:020000042000DA
:1000000000000120910100207F03002081030020D7
:1000100083030020850300208703002000000000E8
:100020000000000000000000000000008903002024
:100030008B030020000000008D0300208F030020B0
:100040009103002093030020191000203910002094
:10005000990300209B0300209D0300209F030020A4
:10006000A1030020A3030020A5030020A703002074
:10007000A9030020AB03002081220020AF03002051
:10008000B1030020B3030020B5030020AD0500201C
:10009000B9030020BB030020BD030020BF030020E4
:1000A000C1030020C3030020C5030020A5110020C8
:1000B00099120020CB030020CD030020CF030020A5
:1000C000D1030020D3030020D5030020D703002054
:1000D000D9030020DB030020DD030020DF03002024
:1000E000E1030020E3030020E5030020E7030020F4
:1000F000E9030020EB030020ED030020EF030020C4
:10010000F1030020F3030020F5030020F703002093
:10011000F9030020FB030020FD030020FF03002063
:10012000010400200304002005040020070400202F
:10013000090400200B0400200D0400200F040020FF
:1001400011040020130400201504002017040020CF
:10015000190400201B0400201D0400201F0400209F
:10016000210400202304002025040020270400206F
:10017000290400202B0400202D0400202F0400203F
:1001800031040020330400200000000000000000C3
:100190004FF0000BDFF8BE020068DFF8B612096806
:1001A00001F0030100F01C00142801D14BF0020BF8
:1001B000002901D04BF0010BBBF1000F05D0A7487F
:1001C000A749DFF8722200F09FF8A64880470BF09D
:1001D000020ABAF1000F0CD0DFF86E02DFF86E12DF
:1001E00002680B680FB44FF000024FF0FF0302608B
:1001F0000B609D489D4A9E4B022808D1DFF83E12B5
:100200000A60DFF842120A60DFF836120B6001283C
:1002100008D1DFF82E120A60DFF82A120A60DFF830
:100220001E120B609348002809D193489349944AC1
:1002300000F032F893489449944A00F02DF894481D
:100240009449954A00F028F894489549DFF8E6214A
:1002500000F05AF8BBF1000F12D092489249DFF833
:10026000DA2100F051F80BF0020ABAF1000F07D0C2
:100270000FBC02600B6000BFAFF30080AFF30080E3
:10028000DFF828020FF2030E00474FF000004FF096
:100290000001DFF81CF2FEE72DE9F841884225D085
:1002A000B2EB010200D5FEE740EA010313F00303BD
:1002B00002D000F01DF819E04FF000039046121133
:1002C000F7D09A421CBFF0C8F0C103F10103F8D186
:1002D00008F00F08B8F1000F08D004780C7000F196
:1002E000010001F10101B8F10108F6D1BDE8F88182
:1002F00008B54FF0000303780B7000F1010001F125
:100300000101013AF7D108BD884237D000F0030659
:10031000002E14D04FF00405A5EB06044FF008079B
:1003200007FB06F8914669FA08F9002C07D080F817
:10033000009069FA07F900F10100013CF5E74FF080
:1003400000060F46091A88460911914614461546BB
:10035000B14206D018BFA0E8340206F10106B1424E
:10036000F8D108F00F08B8F1000F07D002704FEA7B
:10037000322200F10100B8F10108F4E77047FEE70E
:10038000FEE7FEE7FEE7FEE7FEE7FEE7FEE7FEE745
:10039000FEE7FEE7FEE7FEE7FEE7FEE7FEE7FEE735
:1003A000FEE7FEE7FEE7FEE7FEE7FEE7FEE7FEE725
:1003B000FEE7FEE7FEE7FEE7FEE7FEE7FEE7FEE715
:1003C000FEE7FEE7FEE7FEE7FEE7FEE7FEE7FEE705
:1003D000FEE7FEE7FEE7FEE7FEE7FEE7FEE7FEE7F5
:1003E000FEE7FEE7FEE7FEE7FEE7FEE7FEE7FEE7E5
:1003F000FEE7FEE7FEE7FEE7FEE7FEE7FEE7FEE7D5
:10040000FEE7FEE7FEE7FEE7FEE7FEE7FEE7FEE7C4
:10041000FEE7FEE7FEE7FEE7FEE7FEE7FEE7FEE7B4
:10042000FEE7FEE7FEE7FEE7FEE7FEE7FEE7FEE7A4
:10043000FEE7FEE7704700000000A2A2A2A2008033
:100440000340088003401080034030800340348024
:1004500003403880034018080240000000F00020EC
:1004600000000120091C0020000000000000000026
:10047000010000000000000000000020000000203B
:1004800090010020C0040020C0040020004700208C
:100490000047002000470020504B0020504B002018
:1004A000E04C0020E04C002000F00020E944002057
:1004B000A51F002000000000000000000000000058
:1004C00010B5054C237833B9044B13B10448AFF38E
:1004D00000800123237010BD504B0020000000005D
:1004E000D4460020084B10B51BB108480849AFF3AB
:1004F00000800848036803B910BD074B002BFBD0F0
:10050000BDE81040184700BF00000000D44600209E
:10051000544B00200047002000000000016070479D
:10052000006870470EB503FA01F303EA020301689D
:100530006FEA020201EA020141EA030101600EBD15
:10054000006800EA020020FA01F07047018070475D
:10055000008870470EB503FA01F303EA020301882D
:100560006FEA020201EA020141EA030101800EBDC5
:10057000008800EA020020FA01F07047017070471D
:10058000007870470EB503FA01F303EA020301781D
:100590006FEA020201EA020141EA030101700EBDA5
:1005A000007800EA020020FA01F0704780B582B0BE
:1005B00000AF0F4B5B68FB710D4B9B68DAB2FB79A8
:1005C0001340FB71FB7903F00203BB71BB79002B75
:1005D00001D000F0E7F8FB7903F001037B717B7930
:1005E000002B01D000F006F80837BD4680BD00BFE3
:1005F0000060014080B584B000AF634B1B78022BD4
:100600003FD0052B6BD0012B40F0AD805F4B1B889A
:100610009BB2002B30D05E4B1A685C4B1B889BB2A0
:100620001046194600F006FAF860584B1B889BB23A
:100630001A46FB689A420FD9544B1B889AB2FB6842
:100640009BB2D31A9AB2514B1A80514B1A68FB686D
:1006500013444F4A13600EE04C4B00221A804D4B5E
:100660001B68002B03D0484B02221A7003E0464B54
:1006700003221A7004E003E000BE00F0B5F97FE049
:100680007EE0444B1B68002B24D0434B1A68414B3F
:100690001B681046194600F0CDF9B8603D4B1B6849
:1006A000BA689A420CD23B4B1A68BB68D31A394AD3
:1006B0001360394B1A68BB681344374A13600DE066
:1006C000364A364B9B6823F0010393602E4B03227E
:1006D0001A7003E000BE00F087F951E050E02D4BA6
:1006E0001B68002B1BD12E4B1B68002B14D02C4BEE
:1006F0001B68294898470246264B1A60254B1B6801
:10070000002B0CD1254A254B9B6823F001039360F5
:100710001D4B03221A7002E000BE00F065F91D4B6C
:100720001B68002B09D11D4A1C4B9B6823F0010359
:100730009360154B03221A7022E0174B1A68154B71
:100740001B681046194600F075F97860114B1A685D
:100750007B68D31A0F4A13600F4B1A687B681344E7
:100760000D4A13600CE00D4A0C4B9B6823F001030B
:100770009360002000F018F9034B00221A7000BFAC
:100780001037BD4680BD00BF914B0020744B002048
:10079000704B00207C4B0020784B00200060014013
:1007A0008C4B002080B584B000AF794B1B69FB8176
:1007B000FB8923F4FF4323F07F03BB81FB89FB729A
:1007C000744B1B78052B00F2D88001A252F823F05D
:1007D000E907002065090020650900204108002084
:1007E0008F08002039090020BB89002B27D0FB7A15
:1007F000F12B06D0FB7ABB72BB7A184600F04CF99D
:100800001DE0654B00221A80644B1B68624A128807
:1008100092B21344FA7A1A705F4B1B889BB2013371
:100820009AB25D4B1A805D4B1B685B4A128892B28C
:10083000134400221A70574B04221A70A4E0A3E05C
:10084000BB89002B22D0FB7A7B72554B1B78DBB225
:100850007A7A9A4215D1504B00221A804F4B1B686E
:100860004D4A128892B213447A7A1A704A4B1B8806
:100870009BB201339AB2484B1A80464B04221A703D
:1008800004E07B7A184600F007F97DE07CE0BB8944
:10089000002B06D0FB7A3B723B7A184600F0FCF83E
:1008A00049E03E4B1A683C4B1B889BB2013B13440A
:1008B0001B78F12B16D1394B1B68374A128892B23C
:1008C0001344FA7A1A70354B1A68334B1B889BB263
:1008D000013B13441B78184600F0DEF82D4B002234
:1008E0001A7028E02C4B1B889AB22E4B1B889A4218
:1008F00010D2FB7AFB71294B1B68274A128892B2EF
:100900001344FA791A70244B1B889BB201339AB2B4
:10091000214B1A80204B1B889AB2224B1B889A428B
:1009200009D11D4B1B889BB2184600F03DF8194BAE
:1009300000221A7028E027E0BB89002B0BD1174B4F
:100940001B680133FA7A1A70022000F02DF8114B5F
:1009500000221A7018E0FB7ABB71BB79184600F0D0
:100960009BF811E0BB89002B06D0FB7A7B717B7969
:10097000184600F091F807E006E0002000F014F8B7
:10098000044B00221A7000BF1037BD4680BD00BF67
:1009900000600140914B0020864B0020804B0020DE
:1009A0006C4B0020844B002080B582B000AF034622
:1009B000FB800A4B1B68002B0DD0084B1B68084AB4
:1009C0001168FA88084611469847044B00221A60BD
:1009D000044B00221A700837BD4680BD884B0020AA
:1009E000804B0020904B002080B582B000AF0E4BB2
:1009F0001B78DBB2002B13D00C4B1B889BB2184624
:100A0000FFF7D2FF0A4A0A4B1B6843F00103136049
:100A1000074B1B6803F001037B607B68002BF7D159
:100A20000837BD4680BD00BF904B0020864B00209C
:100A30000060014080B485B000AF78603960154A2D
:100A4000144B1B6823F0040313600023FB60114B5D
:100A50005B6803F00103BB600DE00E497A68FB6838
:100A600013441B780B61FB680133FB60094B5B6827
:100A700003F00103BB60BB68002B03D0FA683B683E
:100A80009A42EAD3FB6818461437BD465DF8047BEA
:100A9000704700BF0060014080B582B000AF0346E0
:100AA000FB71064B1B68002B04D0044B1B68FA79C2
:100AB000104698470837BD4680BD00BF944B0020C4
:100AC00080B483B000AF0346FB71094997F9073042
:100AD0005B09FA7902F01F02012000FA02F260338A
:100AE00041F823200C37BD465DF8047B704700BFFA
:100AF00000E100E080B58AB000AF78607B681B68D9
:100B00001B687B627B681B689B693B627B681B6818
:100B10005B68FB617B681B689B6ABB617B681B68C9
:100B20001B6B7B617B681B685B6B3B617B681B6835
:100B3000DB69FB607B68344A93421DD17B68334A92
:100B40001A607B6802221A71314A314B9B6C43F464
:100B5000007393640220FFF7B3FF2D4A2C4B9B6C6C
:100B600023F4007393647B681B687A6812681268C8
:100B700022F000421A601CE07B68264A1A607B68FB
:100B800003221A71224A224B9B6C43F480639364C4
:100B90000320FFF795FF1E4A1D4B9B6C23F48063D7
:100BA00093647B681B687A681268126822F00042BE
:100BB0001A607B6A23F001037B627B681B687A6A98
:100BC0001A607B681B683A6A9A617B681B68FA69DD
:100BD0005A607B681B687A681268126842F00102EA
:100BE0001A607B681B68BA699A627B681B687A69BD
:100BF0001A637B681B683A695A637B681B68FA68EA
:100C0000DA612837BD4680BD3C4C00200010004012
:100C1000008003400010014080B485B000AF7860D0
:100C20000023FB600DE07B681B687A6891687A6836
:100C300012690A4412785A617B681B695A1C7B68E6
:100C40001A617B681B689B6803F48073002B05D1D5
:100C50007B681A697B68DB689A42E4D37B681A690F
:100C60007B68DB689A421BD30DE07B681B687A685F
:100C700051697A68D2690A4412785A617B68DB69E3
:100C80005A1C7B68DA617B681B689B6803F480737D
:100C9000002B05D17B68DA697B689B699A42E4D3B3
:100CA0007B685B6A002B1DD07B681A697B68DB68F8
:100CB0009A4217D37B68DA697B689B699A4211D3A1
:100CC00006E07B681B6800225A61FB680133FB6009
:100CD0007B681B689B6803F48073002B02D1FB6860
:100CE0001F2BEED91437BD465DF8047B704700BF5B
:100CF00080B584B000AF78607B6893F88030022BB9
:100D000015D10CE07B681B681B69FB607B685B6F1F
:100D1000002B04D07B685B6FFA68104698477B68AD
:100D20001B689B6803F04003002BEBD030E07B682E
:100D300093F88030012B1FD116E07B681B681B697C
:100D4000FB607B681A6B7B68DB6A9A4207D27B6820
:100D50009A6A7B681B6B1344FA68D2B21A707B687C
:100D60001B6B5A1C7B681A637B681B689B6803F0CB
:100D70004003002BE1D00BE003E07B681B681B699C
:100D8000FB607B681B689B6803F04003002BF4D07A
:100D90001037BD4680BD00BF80B586B000AF78601B
:100DA0007B681B6820337B617B686C4A934204D06C
:100DB0007B686B4A934200D000BE7B691B6803F0DE
:100DC0000203002B4FD07B6893F88030022B15D1A3
:100DD0000CE07B681B681B69FB607B685B6F002B0A
:100DE00004D07B685B6FFA68104698477B681B6885
:100DF0009B6803F04003002BEBD030E07B6893F856
:100E00008030012B1FD116E07B681B681B69FB60DB
:100E10007B681A6B7B68DB6A9A4207D27B689A6AA6
:100E20007B681B6B1344FA68D2B21A707B681B6B29
:100E30005A1C7B681A637B681B689B6803F040033D
:100E4000002BE1D00BE003E07B681B681B69FB60B3
:100E50007B681B689B6803F04003002BF4D07B6821
:100E60001B680222DA607B691B6803F00103002B18
:100E700011D07B6893F88030022B05D17B681B680A
:100E80007A68926F5A6102E07868FFF7C5FE7B6866
:100E90001B680122DA607B691B6803F01003002BDA
:100EA00021D07868FFF724FF7B681B6A002B0BD0EA
:100EB0007B681B6A7A68916A7A68126B08461146E9
:100EC00098477868FFF7A8FE7B6801225A627B6822
:100ED0001B687A681268926A22F010029A627B6834
:100EE0001B681022DA607B691B6803F00403002B87
:100EF0000ED07B681B687A681268D26A42F00402DE
:100F0000DA627868FFF7F6FD7B681B680422DA6016
:100F10007B691B6803F00803002B32D07B681B68D9
:100F20007A681268D26A42F00802DA627B6893F843
:100F30008030022B16D17B681A687B681B681B689F
:100F400023F47F0323F47F4343F4807313607B68AF
:100F50001B687A68926F5A610FE000BF3C4C00201A
:100F6000B84B00207B6893F88030012B05D17B685B
:100F700000221A617868FFF74FFE7B681B68082221
:100F8000DA607B691B6803F02003002B41D078688E
:100F9000FFF7AEFE7B681B6B3B617B681B6A002B17
:100FA00017D07B6800225A627B6800225A617B68F6
:100FB00000229A617B680022DA617B681B6810223C
:100FC000DA607B681B687A681268926A42F01002E5
:100FD0009A627B6800221A617B681B687A681268D3
:100FE000D26A42F00C02DA627868FFF715FE7B687D
:100FF00000221A637B68DB6F002B06D07B68DB6FF7
:101000007A68926A1046396998477B681B68202283
:10101000DA601837BD4680BD684620F007018D466E
:1010200089B500AF0348FFF7B7FEBD46BDE889406C
:10103000854670473C4C0020684620F007018D46ED
:1010400089B500AF0348FFF7A7FEBD46BDE889405C
:1010500085467047B84B002090B484B000AFF8606C
:10106000B9607A60FB704B484B4B1A68F9781346AD
:101070009B001344DB01034403F5E07359604749C7
:10108000454B1A6813469B0013449B000B44FA68B7
:101090005A604249404B1A6813469B0013449B0018
:1010A0000B44BA689A603D483B4B19683B4C3A4B3D
:1010B0001A6813469B0013449B00234408335B6863
:1010C0001A0C12040B469B000B449B00034408338C
:1010D0005A607B68B3F5803F0FD97B68A3F58033F6
:1010E0002F4A1361BB6803F580332D4AD360FB6838
:1010F00003F580332A4A936019E02848264B1A6882
:10110000264C254B19680B469B000B449B0023443F
:1011100008335B68796889B2194313469B0013440E
:101120009B000344083359601D4B00221A611B4881
:10113000194B1A68194C184B19680B469B000B4445
:101140009B00234408335B6843F4E00113469B0093
:1011500013449B000344083359600E490E4B1A6830
:1011600013469B001344DB010B4403F5E07301229B
:101170001A600849084B1A6813469B001344DB01A8
:101180000B4403F5E47300225A601037BD4690BC4F
:10119000704700BF00002842B04B002000400140D3
:1011A000984B0020684620F007018D4691B500AFAE
:1011B000344A354B1B6803F52873012142F823108C
:1011C0003248314B1A68314C2F4B19680B469B0043
:1011D0000B449B00234408335B6823F4E00113466F
:1011E0009B0013449B00034408335960264B1B6843
:1011F0000133254A1360244B1B68042B02D1224B78
:1012000000221A60224B1B69002B17D0214B1B6850
:10121000042B03D11F4B00221A6004E01D4B1B68F6
:1012200001331C4A13601A4B9868194BD968184B44
:101230001A69174B1B7DFFF70FFF1EE01349124B76
:101240001A6813469B0013449B000B4408335B68E9
:1012500003F4E003002B10D10B4B00221A600D4B5E
:1012600000221A600A4B01221A70094B5B68002B9E
:1012700003D0074B5B6801209847BD46BDE891400D
:101280008546704700002842B44B002000400140D2
:10129000984B0020B04B0020684620F007018D4697
:1012A00081B583B000AF384B1B683B603B6803F4EB
:1012B00070633B603B68002B2FD03449344B1A6875
:1012C00013469B001344DB010B4403F502731B68B8
:1012D000002B0AD02F4B02221A702E4B5B68002B7A
:1012E00003D02C4B5B68022098472849284B1A688A
:1012F00013469B001344DB010B4403F502735B6848
:10130000002B0AD0234B03221A70224B5B68002B60
:1013100003D0204B5B68032098471B4B1B683B6046
:101320003B6803F470433B603B68002B0AD0194BC9
:1013300004221A70174B5B68002B03D0154B5B68B7
:101340000420984700237B6014E010497A68134614
:101350009B001344DB010B4403F5E47301221A6084
:101360000A4A7B6803F52873012142F823107B6841
:1013700001337B607B68032BE7D90C37BD46BDE8A2
:1013800081408546704700BF004001400000284270
:10139000B44B0020984B002080B586B000AFF860B9
:1013A000B96011461A460B46FB8013467B71FB68F9
:1013B000002B00D100BE7B79072B00D900BEFB8833
:1013C000B3F5005F00D300BEFB68002B6BD07B79C8
:1013D000072B68D8FB88B3F5005F64D2BB6803F1C4
:1013E0000802FB88DBB210461946FFF7C7F8BB6856
:1013F00003F10C017B79FA8802F47F425211134306
:1014000008461946FFF7BAF8FB68BA681A60FB6825
:101410001B6808331846FFF7B3F80346BB82FB6826
:101420001B680C331846FFF7ABF80346FB74FB7CD4
:1014300023F00703BB74BB7C9BB25B019AB2BB8AEF
:101440001343BB82FB7C03F00703FB74BA8AFB885F
:101450009A4200D000BEFA7C7B799A4200D000BE4E
:10146000FB681B6810331846FFF78AF8034603F041
:101470000203FB7511E0FB681B6804331846FFF795
:101480007FF803467B74FB681B6810331846FFF730
:1014900077F8034603F00203FB75FB7D002BEAD1CE
:1014A000FB6800221A711837BD4680BD80B586B032
:1014B00000AFF860B9607A60FB68002B00D100BE15
:1014C000BB68002B00D100BE7B68002B00D100BEA2
:1014D000FB68002B26D0BB68002B23D07B68002B39
:1014E00020D000237B6119E0FB681B68103318468D
:1014F000FFF746F8034603F00103FB74FB7C002B67
:10150000F2D0FB681968BA687B6913441B780846F7
:101510001946FFF733F87B6901337B617A697B6891
:101520009A42E1D31837BD4680BD00BF90B589B05F
:1015300000AFF860B9607A600023BB61FB68002BE4
:1015400000D100BEBB68002B00D100BE7B68002B21
:1015500000D100BEFB68002B43D0BB68002B40D0FD
:101560007B68002B3DD00023BB61FB681B681033F8
:101570001846FFF705F80346FB75FB681A79FB7DF3
:101580001343DAB2FB681A71FB7D03F00203FB77A9
:1015900020E0BA68BB69D418FB681B68043318469E
:1015A000FEF7EEFF03462370BB690133BB61FB68A6
:1015B0001B6810331846FEF7E3FF0346FB75FB6814
:1015C0001A79FB7D1343DAB2FB681A71FB7D03F0D5
:1015D0000203FB77FB7F002B03D0BA697B689A423A
:1015E000D7D3BB6918462437BD4690BD80B485B0BB
:1015F00000AF7860FF23FB737B68002B00D100BE37
:101600007B68002B08D07B681B7903F01C039B10C0
:10161000FB737B6800221A71FB7B18461437BD46AA
:101620005DF8047B704700BF80B584B000AFF86000
:10163000B9607A603B60FB68BA681A60FB681B6837
:10164000083318460021FEF799FFFB681B680C332E
:1016500018460021FEF792FFFB681B681846796860
:10166000FEF75CFF3B68002B00D100BEFB681B68E7
:10167000043318463968FEF751FFFB681B681033C6
:1016800018460021FEF74AFFFB681B68183318460E
:101690000021FEF743FFFB681B682033184600213A
:1016A000FEF73CFFFB681B68283318460021FEF755
:1016B00035FFFB681B68303318460021FEF72EFF0C
:1016C000FB681B68383318460021FEF727FFFB68CC
:1016D0001B68403318460021FEF720FFFB681B689B
:1016E000483318460021FEF719FFFB681B6850338A
:1016F00018460021FEF712FFFB681B685833184696
:101700000021FEF70BFFFB681B68603318460021C1
:10171000FEF704FFFB681B68683318460021FEF7DC
:10172000FDFEFB681B68703318460021FEF7F6FECD
:10173000FB681B68783318460021FEF7EFFEFB6854
:101740001B68803318460021FEF7E8FEFB681B6823
:10175000883318460021FEF7E1FE1037BD4680BDF4
:1017600080B584B000AF78600B46FB70FB78002B2F
:1017700000D100BEFB78102B00D900BEFB78002BF7
:1017800034D0FB78102B31D8FB781A4AD35CFB732A
:10179000FB78082B15D87B681B6808331846FEF7C2
:1017A000EFFE0346BB73BA7BFB7B1343BB737B68C3
:1017B0001B6803F10802BB7B10461946FEF7DEFEEC
:1017C00014E07B681B680C331846FEF7D9FE03460D
:1017D000BB73BA7BFB7B1343BB737B681B6803F152
:1017E0000C02BB7B10461946FEF7C8FE1037BD46FB
:1017F00080BD00BF2846002080B584B000AF78606F
:101800000B46FB70FB78002B00D100BEFB78102B41
:1018100000D900BEFB78002B38D0FB78102B35D8D0
:10182000FB781C4AD35CFB73FB78082B17D87B68CA
:101830001B6808331846FEF7A3FE0346BB73FB7B09
:10184000DB43DAB2BB7B1340BB737B681B6803F1DD
:101850000802BB7B10461946FEF790FE16E07B6837
:101860001B680C331846FEF78BFE0346BB73FB7BED
:10187000DB43DAB2BB7B1340BB737B681B6803F1AD
:101880000C02BB7B10461946FEF778FE1037BD46AA
:1018900080BD00BF2846002080B588B000AFF8604A
:1018A0000B467A60FB72FB7A002B00D100BEFB7AFC
:1018B000102B00D900BEFB681B6804331846FEF7E6
:1018C0002FFEF8617A68FB699A4200D900BEFB7A64
:1018D000002B3AD0FB7A102B37D87B68002B05D130
:1018E000FB7AF8681946FFF787FF2EE0FB681A6855
:1018F000FB7A174951F82330134418460021FEF7AC
:101900000DFEFB681A68FB7A124951F82330134424
:1019100018467968FEF702FEFB7A0E4A52F8233029
:10192000BB61FB681A68BB6913441846FEF728FEC2
:101930000346FB757B68DBB2FA7D9A4200D000BE9D
:10194000FB7AF8681946FFF70BFF2037BD4680BDCC
:101950003C4600208046002080B586B000AFF8608D
:10196000B9601346FB710023FB75BB683B61FB68E4
:10197000BA681A60FB68FA791A710023FB75BB68B4
:101980003B6109E038690021FEF7F8FD3B6904334B
:101990003B61FB7D0133FB75FB7D1F2BF2D9FB689F
:1019A0001B79012B0DD0022B02D0002B1AD036E070
:1019B000FB681B68803318464FF0FF31FEF7AEFD21
:1019C0002FE0FB681B68803318464FF6FF71FEF767
:1019D000BDFDFB681B68843318464FF6FF71FEF7A8
:1019E000B5FD1EE0FB681B6880331846FF21FEF73B
:1019F000C5FDFB681B6884331846FF21FEF7BEFD5A
:101A0000FB681B6888331846FF21FEF7B7FDFB68AB
:101A10001B688C331846FF21FEF7B0FD01E000BEC5
:101A200000BF1837BD4680BD80B586B000AFF860F6
:101A30000B467A60FB72FB7A1F2B00D900BEFB7A43
:101A40001F2B14D8FB681B687B61FB7A9B001A462E
:101A50007B6913447B6178697968FEF75FFD78697B
:101A6000FEF75EFD02467B689A4200D000BE183742
:101A7000BD4680BD80B582B000AF786039607B68BC
:101A80001B79012B0CD0022B02D0002B1DD047E07C
:101A90007B681B68A03318463968FEF73FFD41E0BC
:101AA0007B681B68A0333A6892B218461146FEF76D
:101AB0004DFD7B681B6803F1A4023B681B0C9BB2C5
:101AC00010461946FEF742FD2CE07B681B68A033E8
:101AD0003A68D2B218461146FEF750FD7B681B6883
:101AE00003F1A4023B681B0ADBB210461946FEF75D
:101AF00045FD7B681B6803F1A8023B681B0CDBB249
:101B000010461946FEF73AFD7B681B6803F1AC02EC
:101B10003B681B0EDBB210461946FEF72FFD01E0B5
:101B200000BE00BF786800F009F802463B689A42A0
:101B300000D000BE0837BD4680BD00BF80B584B070
:101B400000AF78600023FB607B681B79012B0CD011
:101B5000022B02D0002B20D04FE07B681B68A03303
:101B60001846FEF7DDFCF86049E07B681B68A0338F
:101B70001846FEF7EDFC03461A46FB681343FB606C
:101B80007B681B68A4331846FEF7E2FC03461B047F
:101B90001A46FB681343FB6031E07B681B68A03387
:101BA0001846FEF7D5FC03461A46FB681343FB6054
:101BB0007B681B68A4331846FEF7CAFC03461B0269
:101BC0001A46FB681343FB607B681B68A833184602
:101BD000FEF7BEFC03461B041A46FB681343FB607A
:101BE0007B681B68AC331846FEF7B2FC03461B0645
:101BF0001A46FB681343FB6001E000BE00BFFB68B0
:101C000018461037BD4680BD80B500AF00F0F8F82B
:101C1000044A044B5B6943F400735361FEF70AFC0A
:101C200080BD00BF00ED00E080B588B000AF2F4B55
:101C3000D3F8983003F08063FB61FB69002B4BD134
:101C40002A4BD3F8983003F48053BB61BB69002B57
:101C500015D1274B274A1A60274B264A1A60274B73
:101C6000244A1A60264B274A1A60274B274A1A60D3
:101C7000274B204A1A60274B1E4A1A602BE0264A3F
:101C80003B1D1068516803C3184BD3F89C309B0967
:101C900003F007037B613A1D7B6913441B78FB74D7
:101CA000FB7C012B0AD0022B0DD0002B0FD100F0B2
:101CB00037F8F860F86800F051F80CE04FF4004095
:101CC00000F04CF807E0154800F048F803E013482E
:101CD00000F044F800BF05E000F022F8F860F86872
:101CE00000F03CF82037BD4680BD00BF00800340B7
:101CF00004470020003B5808084700200C470020FC
:101D000010470020C00E160214470020801D2C042E
:101D1000184700201C470020C446002040420F0006
:101D200080B483B000AF0A4BD3F8503103F0040302
:101D30003B603B68002B02D1064B7B6001E0064B09
:101D40007B607B6818460C37BD465DF8047B7047A6
:101D50000080034040787D0180F0FA0280B483B0B7
:101D600000AF78600C4A7B6813600C4A7B68136094
:101D70000B4A7B6813600B4B0B4A1A600B4A7B685B
:101D800013600B4A7B6813600A4A7B6813600C3748
:101D9000BD465DF8047B70470447002008470020DB
:101DA0000C47002010470020C00E160214470020E8
:101DB000184700201C47002080B483B000AF0E4BB2
:101DC000D3F84C313B603B684FF60202934203D09C
:101DD0000A4A934203D005E001237B6005E0022319
:101DE0007B6002E000237B6000BF7B6818460C37F5
:101DF000BD465DF8047B70470080034002F8010097
:101E000080B582B000AFFFF7D7FF78607B68012B09
:101E100000D002E000F004F800BF0837BD4680BDE6
:101E200080B400AF094A094BD3F8983043F480736B
:101E3000C2F89830054A054BD3F8983023F08063F8
:101E4000C2F89830BD465DF8047B704700800340BF
:101E500080B483B000AF0346FB71084997F907309F
:101E60005B09FA7902F01F02012000FA02F241F840
:101E700023200C37BD465DF8047B704700E100E08D
:101E800080B483B000AF0346FB71094997F907306E
:101E90005B09FA7902F01F02012000FA02F22033F6
:101EA00041F823200C37BD465DF8047B704700BF26
:101EB00000E100E080B483B000AF0346FB71094944
:101EC00097F907305B09FA7902F01F02012000FA46
:101ED00002F2603341F823200C37BD465DF8047BE5
:101EE000704700BF00E100E080B582B000AF03465C
:101EF000FB710E20FFF7C4FF0F4A0F4B9B6C23F0C2
:101F0000400393644FF0402300225A650B4B00229C
:101F1000C3F88021094B0022C3F88821074AFB79C6
:101F2000C2F884314FF0402301221A610E20FFF7DE
:101F3000C1FF0837BD4680BD008003400000084255
:101F400080B400AF034B0122C3F88021BD465DF889
:101F5000047B70470000084280B483B000AF786013
:101F60004FF040227B6853600C37BD465DF8047B20
:101F7000704700BF80B500AF034B0122C3F8882132
:101F80000E20FFF765FF80BD0000084280B400AF5F
:101F90004FF0402301221A61BFF34F8FBD465DF819
:101FA000047B704780B58AB000AFA3484FF0A041D2
:101FB000312240F28F13FFF737FBA048062100F0D3
:101FC0009BF99F48042100F097F99E48052100F0F5
:101FD00093F99D48022100F08FF99C48032100F0FD
:101FE0008BF99948072100F087F99948082100F0FA
:101FF00083F94FF4FA7000F067F99648062100F073
:102000007BF99548042100F077F99448052100F008
:1020100073F99348022100F06FF98A48032100F018
:102020006BF98648072100F067F98448082100F021
:1020300063F94FF4FA7000F047F98648062100F082
:102040005BF98548042100F057F98448052100F028
:1020500053F98348022100F04FF97A48032100F038
:102060004BF97648072100F047F97448082100F041
:1020700043F94FF4FA7000F027F93B4600221A604A
:10208000043300221A60043300221A600433002251
:102090001A60043300221A60043300221A600433E9
:1020A00000221A60043300221A6004336D486E491E
:1020B00025220123FFF770F96A486C490422FFF7D3
:1020C000F5F9FFF7B1FD6A486A490222FFF744FCBF
:1020D000674800210522FFF7A7FC6548012105227A
:1020E000FFF7A2FC624802210522FFF79DFC624B2C
:1020F0001B685F481946FFF7BDFC604B1A68134622
:102100009B0013445B003B620020FFF7EDFE386A42
:10211000FFF722FFFFF714FFFFF72CFF564B1B685A
:1021200053481946FFF7A6FC4E48FFF75FFA0346EF
:10213000002B06D13B464B4819462022FFF7F6F903
:1021400078627B6A002B0BD03B78412B08D10023AF
:102150003B7047480121FFF78DFC01F007FB67E06A
:102160007B6A002B0BD03B78422B08D100233B70BD
:102170003F480121FFF77EFC01F02AFB58E07B6A13
:10218000002B0BD03B78432B08D100233B70384801
:102190000121FFF76FFC01F04DFB49E07B6A002B4A
:1021A0000BD03B78442B08D100233B7030480121F1
:1021B000FFF760FC01F064FB3AE07B6A002B0BD078
:1021C0003B78452B08D12A480121FFF753FC002317
:1021D0003B7001F081FB2BE07B6A002B0BD03B783E
:1021E000472B08D100233B7021480121FFF742FC17
:1021F00001F096FB1CE07B6A002B0BD03B78492B4F
:1022000008D11B480021FFF735FC00233B7001F08B
:10221000A9F90DE07B6A002B0AD03B784A2B07D145
:1022200000233B7012480121FFF724FC00F084FAE0
:102230000A2000F049F871E7D04C00200000C842A5
:10224000000002430000F0410000B44200000C42D4
:102250000000C8410000DC4200002043000018429A
:102260000000B842C84C0020002000502047002049
:10227000C04C0020001000302447002008470020F8
:1022800080B500AF0C48FFF759FC02460B4B1A60B3
:102290000A4B1B6883F00703084A1360074B1B684F
:1022A00005481946FFF7E6FB054806490422FFF7F3
:1022B000FDF8FFF76BFE80BDC04C002024470020D6
:1022C000C84C00202047002080B485B000AF786063
:1022D0000023FB6002E0FB680133FB607B6841F692
:1022E000641202FB03F2FB689A42F4DC1437BD4629
:1022F0005DF8047B704700BF80B584B000AF7860A4
:1023000039603B68012B30D1786801F08DFC0246C2
:102310000B46104619464FF000024FF0000301F043
:1023200025FB02460B4610461946C7A3D3E90023F6
:1023300001F0CEFC02460B46104619464FF0000253
:10234000C94B01F013FB02460B461046194601F03B
:10235000D1FE0346FB60F86802F0A0F80346C348CC
:1023600001211A46FFF798FA6AE13B68022B30D147
:10237000786801F059FC02460B46104619464FF0AA
:1023800000024FF0000301F0F1FA02460B4610463E
:102390001946ADA3D3E9002301F09AFC02460B468F
:1023A000104619464FF00002AF4B01F0DFFA02462B
:1023B0000B461046194601F09DFE0346FB60F86887
:1023C00002F06CF80346A94802211A46FFF764FAA6
:1023D00036E13B68032B30D1786801F025FC0246DA
:1023E0000B46104619464FF000024FF0000301F073
:1023F000BDFA02460B461046194695A3D3E90023C1
:1024000001F066FC02460B46104619464FF00002EA
:10241000974B01F0ABFA02460B461046194601F005
:1024200069FE0346FB60F86802F038F803468F48FF
:1024300003211A46FFF730FA02E13B68042B30D142
:10244000786801F0F1FB02460B46104619464FF042
:1024500000024FF0000301F089FA02460B461046D5
:10246000194679A3D3E9002301F032FC02460B465A
:10247000104619464FF000027B4B01F077FA0246F6
:102480000B461046194601F035FE0346FB60F8681E
:1024900002F004F80346754804211A46FFF7FCF9D8
:1024A000CEE03B68052B30D1786801F0BDFB0246D9
:1024B0000B46104619464FF000024FF0000301F0A2
:1024C00055FA02460B461046194663A3D3E900238A
:1024D00001F0FEFB02460B46104619464FF0000283
:1024E000644B01F043FA02460B461046194601F0D0
:1024F00001FE0346FB60F86801F0D0FF03465B482D
:1025000005211A46FFF7C8F99AE03B68062B30D13F
:10251000786801F089FB02460B46104619464FF0D9
:1025200000024FF0000301F021FA02460B4610466C
:1025300019464BA3D3E9002301F0CAFB02460B4620
:10254000104619464FF000024B4B01F00FFA0246BD
:102550000B461046194601F0CDFD0346FB60F868B6
:1025600001F09CFF0346414806211A46FFF794F903
:1025700066E03B68062B30D1786801F055FB0246D7
:102580000B46104619464FF000024FF0000301F0D1
:10259000EDF902460B46104619462BA3D3E900235A
:1025A00001F096FB02460B46104619464FF000021A
:1025B0002D4B01F0DBF902460B461046194601F09F
:1025C00099FD0346FB60F86801F068FF0346274861
:1025D00007211A46FFF760F932E03B68062B2FD13E
:1025E000786801F021FB02460B46104619464FF071
:1025F00000024FF0000301F0B9F902460B46104605
:10260000194611A3D3E9002301F062FB02460B46F1
:10261000104619464FF00002134B01F0A7F902468D
:102620000B461046194601F065FD0346FB60F8684D
:1026300001F034FF03460D4808211A46FFF72CF934
:102640001037BD4680BD00BF181818181818C83FAD
:102650001B1B1B1B1B1BCB3F5A5A5A5A5A5ACA3FA9
:10266000D9D8D8D8D8D8C83F00002840D04C0020AE
:1026700000002040000022400000264080B500AF4E
:102680000E480621FFF738FE0D480421FFF734FEFF
:102690000C480521FFF730FE0B480221FFF72CFE06
:1026A0000A480321FFF728FE09480721FFF724FE07
:1026B00007480821FFF720FE80BD00BF0000DC4274
:1026C00000002043000018420000B8420000F04122
:1026D0000000C84280B582B000AF78607B68002BF4
:1026E00004D111480621FFF707FE16E07B68012B95
:1026F00004D10E480621FFF7FFFD0EE07B68022B98
:1027000004D10B480621FFF7F7FD06E07B68032B99
:1027100003D108480621FFF7EFFD3220FFF7D4FD73
:102720000837BD4680BD00BF0000F04200000243F4
:10273000000048420000DC4280B582B002AF0523B1
:102740000093022301934448444900224FF07E53F2
:1027500000F092F84FF47A70FFF7B6FD0220FFF711
:10276000B9FF0A230093032301933D483D49012209
:102770004FF07E5300F080F84FF47A70FFF7A4FD1D
:102780000A230093042301933748384900224FF06D
:102790007E5300F071F842F21070FFF795FD0320B0
:1027A000FFF798FF4FF4FA50FFF78EFD0A230093CE
:1027B000032301932E482A4900224FF07E5300F054
:1027C0005BF84FF47A70FFF77FFD0A230093032331
:1027D00001932348264901224FF07E5300F04CF824
:1027E0004FF4FA70FFF770FD0220FFF773FF4FF40C
:1027F000FA70FFF769FD0A23009303230193194838
:10280000174900224FF07E5300F036F80A23009358
:10281000042301931548144901224FF07E5300F020
:102820002BF80A230093022301930C480A49012242
:102830004FF07E5300F020F80E480721FFF75CFDB3
:102840000C480821FFF758FD4FF4FA70FFF73CFDE4
:10285000FFF714FFBD4680BD0000B6420000B8423D
:102860000000A0420000F041000040420000204370
:10287000000082420000C84280B588B000AFF86016
:10288000B9607A603B607B68012B19D1BB68BB6182
:102890000EE0B869F96AFFF72FFDB86AFFF714FD7B
:1028A000BB69FB61B869396801F07AFC0346BB611A
:1028B000B869F96801F0D4FD0346002BE9D11BE0AB
:1028C0007B68002B18D1BB687B610EE07869F96AE0
:1028D000FFF712FDB86AFFF7F7FC7B69FB617869C7
:1028E000396801F05BFC03467B617869F96801F0A7
:1028F000C1FD0346002BE9D1FB6918462037BD46D0
:1029000080BD00BF80B582B002AF0A2300930223CE
:1029100001932648264901224FF07C53FFF7ACFF74
:102920000A230093032301932148224901224FF0F7
:102930007E53FFF7A1FF4FF4FA70FFF7C5FC0A239F
:102940000093042301931C481C4900224FF07E533E
:10295000FFF792FF4FF47A70FFF7B6FC0320FFF702
:10296000B9FE4FF4FA70FFF7AFFC0A23009304237B
:1029700001931348104901224FF07C53FFF77CFF6D
:102980004FF49670FFF7A0FC0A23009303230193F2
:102990000C480D4900224FF07E53FFF76DFF4FF4B6
:1029A000FA70FFF791FCBD4680BD00BF0000E64213
:1029B0000000B8420000F0410000A842000020439F
:1029C00000009642000070420000BA4280B582B01A
:1029D00002AF0523009302230193154815490022F5
:1029E0004FF07C53FFF748FF0A2300930523019320
:1029F0001148124901224FF07E53FFF73DFF4FF47B
:102A0000FA70FFF761FC4FF47A70FFF75DFC0A2360
:102A10000093032301930A480A4901224FF07E5391
:102A2000FFF72AFF4FF4FA70FFF74EFCBD4680BD5A
:102A3000000078420000E6420000484200001842D0
:102A400000009C420000704280B582B002AF0A23B1
:102A50000093032301930E480E4900224FF07E534A
:102A6000FFF70AFF4FF4FA70FFF72EFC0A230093DA
:102A7000052301930848064900224FF07E53FFF7D3
:102A8000FBFE4FF4FA70FFF71FFCBD4680BD00BF90
:102A9000000048420000A0420000184280B582B009
:102AA00002AF0A2300930623019320481F49012205
:102AB0004FF07E53FFF7E0FE0A23009304230193B7
:102AC0001B481C4901224FF07E53FFF7D5FE0A2315
:102AD0000093052301931848174901224FF07E53B4
:102AE000FFF7CAFE0A2300930223019313481449F7
:102AF00001224FF07E53FFF7BFFE0A23009303230A
:102B000001931048104900224FF07E53FFF7B4FEA6
:102B10000E480721FFF7F0FB0C480821FFF7ECFBFC
:102B20004FF4FA70FFF7D0FBBD4680BD0000DC42D9
:102B30000000204300009442000018420000B84208
:102B4000000078420000F041000048420000C84206
:102B500080B582B002AF0A230093022301934FF0A5
:102B60008540274900224FF07C53FFF785FE642003
:102B7000FFF7AAFB0A23009303230193214822496C
:102B800001224FF07E53FFF777FE4FF4FA70FFF704
:102B90009BFB0A230093042301931C481C49002239
:102BA0004FF07E53FFF768FE4FF42F70FFF78CFB5A
:102BB0000320FFF78FFD4FF42F70FFF785FB0A23EB
:102BC0000093042301931348104900224FF07E53D1
:102BD000FFF752FE4FF4FA70FFF776FB0A230093DB
:102BE000032301930C480D4900224FF07E53FFF759
:102BF00043FE4FF47A70FFF767FBBD4680BD00BF10
:102C00000000B7420000D8420000F0410000C0427E
:102C1000000020430000BC4200008C420000DC4267
:102C200080B582B002AF05230093022301932448AC
:102C3000244901224FF07C53FFF71EFE4FF47A70B7
:102C4000FFF742FB0A230093052301931E481F4907
:102C500000224FF07E53FFF70FFE4FF4FA70FFF79C
:102C600033FB0A23009304230193194819490022D6
:102C70004FF07E53FFF700FE4FF4FA70FFF724FB8E
:102C80000A230093032301931348144901224FF0B0
:102C90007E53FFF7F1FD4FF47A70FFF715FB0A231F
:102CA0000093042301930E48094900224FF07E53FC
:102CB000FFF7E2FD4FF4FA70FFF706FBBD4680BD5B
:102CC0000000E04200007E420000E04100001842A7
:102CD0000000B0420000BC420000AE4200008C4246
:102CE00000009C4280B582B002AF0A230093032308
:102CF00001930648064900224FF07E53FFF7BCFDC2
:102D00004FF4FA70FFF7E0FABD4680BD000048427C
:102D10000000AE4280B582B002AF0A2300930623C2
:102D2000019320481F4901224FF07E53FFF7A4FD75
:102D30000A230093042301931B481C4901224FF0EE
:102D40007E53FFF799FD0A2300930523019318484A
:102D5000184900224FF07E53FFF78EFD0A2300939F
:102D6000022301931448154901224FF07C53FFF7C9
:102D700083FD0A2300930323019311481149002284
:102D80004FF07E53FFF778FD0F480721FFF7B4FAA5
:102D90000D480821FFF7B0FA4FF4FA70FFF794FAE4
:102DA000BD4680BD0000DC42000020430000A6427A
:102DB000000018420000E0410000B8420000E0427C
:102DC0000000F041000048420000C84280B582B0D7
:102DD00002AF0A23009302230193284828490022C6
:102DE0004FF07C53FFF748FD4FF41670FFF76CFA75
:102DF0000A230093032301932248234901224FF021
:102E00007C53FFF739FD4FF49670FFF75DFA0A2304
:102E10000093042301931A481C4900224FF07C536D
:102E2000FFF72AFD4FF49670FFF74EFA0320FFF7E5
:102E300051FC4FF4FA70FFF747FA0A23009304237A
:102E4000019313480E4900224FF07C53FFF714FD05
:102E50004FF49670FFF738FA0F2300930323019382
:102E60000C48084900224FF07E53FFF705FD4FF450
:102E70007A70FFF729FABD4680BD00BF0000AA4264
:102E80000000B8420000CE420000F04100002043A4
:102E90000000B0420000964280B582B002AF0A2323
:102EA0000093022301931B481B4900224FF07E53DD
:102EB000FFF7E2FC4FF4FA70FFF706FA0A230093DB
:102EC000042301931548164900224FF07E53FFF763
:102ED000D3FC4FF44870FFF7F7F90A23009305235A
:102EE00001931048104900224FF07E53FFF7C4FCB5
:102EF0000A230093032301930C480D4901224FF04C
:102F00007E53FFF7B9FC4FF4FA70FFF7DDF9BD46C9
:102F100080BD00BF000054420000AA420000A04251
:102F20000000B0420000C841000018420000AE425C
:102F30000000964280B582B002AF0A2300930323BB
:102F400001931748174900224FF07E53FFF794FC76
:102F50000A230093042301931348144901224FF0DC
:102F60007E53FFF789FC0A23009305230193104841
:102F70000B4901224FF07E53FFF77EFC0A2300939A
:102F8000022301930B480C4901224FF07E53FFF7B7
:102F900073FC4FF4FA70FFF797F9BD4680BD00BF90
:102FA0000000F0410000AE42000020430000A042BB
:102FB000000018420000B8420000544280B582B0C0
:102FC00002AF0A23009302230193274827490022D6
:102FD0004FF07E53FFF750FC4FF4FA70FFF774F98F
:102FE0000A230093042301932148224900224FF031
:102FF0007C53FFF741FCC820FFF766F90A230093D2
:10300000032301931C481D4901224FF07E53FFF713
:1030100033FC4FF4FA70FFF757F90320FFF75AFB20
:103020004FF4FA70FFF750F90A2300930423019339
:1030300013480F4900224FF07C53FFF71DFC4FF45B
:10304000FA70FFF741F90A230093032301930D4817
:10305000094900224FF07E53FFF70EFC4FF47A70BF
:10306000FFF732F9BD4680BD000054420000B8426F
:1030700000009D42000020430000B4420000F041E7
:103080000000964200008C4280B582B002AF0A2355
:103090000093022301931C481C4901224FF07E53E8
:1030A000FFF7EAFB4FF47A70FFF70EF90A2300935B
:1030B000052301931648174901224FF07E53FFF76D
:1030C000DBFBC820FFF700F90A23009304230193D8
:1030D0001148124900224FF07E53FFF7CDFB4FF409
:1030E0002F70FFF7F1F80A230093032301930C4894
:1030F000094901224FF07E53FFF7BEFB4FF4FA70EF
:10310000FFF7E2F8BD4680BD0000B4420000544223
:1031100000005C420000184200008C420000964211
:103120000000A84280B582B002AF0A2300930323B7
:1031300001930D480D4901224FF07E53FFF79CFB90
:103140004FF4FA70FFF7C0F80523009302230193B0
:103150000748084901224FF07C53FFF78DFBC82038
:10316000FFF7B2F8BD4680BD0000AE420000A842A5
:103170000000B6420000B44280B582B002AF0A231C
:103180000093052301931B481B4900224FF07E53F7
:10319000FFF772FB0A230093042301931748184991
:1031A00001224FF07E53FFF767FB4FF4FA70FFF7F1
:1031B0008BF80A230093032301931248124900223B
:1031C0004FF07E53FFF758FB4FF4FA70FFF77CF88F
:1031D0000A230093022301930C480D4901224FF06A
:1031E0007E53FFF749FB4FF47A70FFF76DF8BD4649
:1031F00080BD00BF0000184200005C420000204378
:10320000000092420000F0410000AE420000B842CF
:103210000000B64280B582B002AF0A2300930423B7
:1032200001932248224901224FF07C53FFF724FBEF
:1032300005230093052301931E481F4901224FF0E7
:103240007E53FFF719FB4FF41670FFF73DF8052387
:103250000093052301931948164900224FF07E532D
:10326000FFF70AFB4FF4FA70FFF72EF805230093DF
:10327000052301930F48114901224FF07E53FFF7B8
:10328000FBFA4FF4FA70FFF71FF8052300930523AC
:1032900001930948074900224FF07E53FFF7ECFAEB
:1032A0004FF41670FFF710F8BD4680BD0000E642EF
:1032B0000000964200003443000018420000A04085
:1032C00080B582B002AF0A230093052301932F48F3
:1032D0002F4900224FF07E53FFF7CEFA4FF4FA70D9
:1032E000FEF7F2FF0A2300930423019329482A4999
:1032F00000224FF07E53FFF7BFFA4FF47A70FEF7CB
:10330000E3FF0A2300930323019324482449012265
:103310004FF07E53FFF7B0FA40F2DC50FEF7D4FFD7
:103320000A230093042301931E481A4900224FF0F8
:103330007E53FFF7A1FA4FF4FA70FEF7C5FF0220A3
:10334000FFF7C8F94FF4FA70FEF7BEFF0A230093A7
:10335000032301931448114900224FF07E53FFF7D5
:103360008BFA4FF47A70FEF7AFFF0A230093042321
:1033700001930C480B4901224FF07E53FFF77CFA72
:103380004FF4FA70FEF7A0FFBD4680BD0000F0418B
:10339000000018420000B4420000E6420000AA42C9
:1033A000000070420000A6420000484280B582B092
:1033B00002AF0A23009304230193224822490122E9
:1033C0004FF07E53FFF758FA05230093052301932E
:1033D0001E481F4901224FF07E53FFF74DFA4FF46C
:1033E0001670FEF771FF052300930523019319481A
:1033F000164900224FF07E53FFF73EFA4FF4FA7061
:10340000FEF762FF05230093052301930F4811493E
:1034100001224FF07E53FFF72FFA4FF4FA70FEF7B8
:1034200053FF052300930523019309480749002210
:103430004FF07E53FFF720FA4FF41670FEF744FF6B
:10344000BD4680BD0000F0420000B04200003443A1
:10345000000018420000A04080B582B002AF0A23ED
:103460000093042301932048204900224FF07E530B
:10347000FFF702FA4FF4FA70FEF726FF0F230093CE
:10348000032301931A481B4901224FF07E53FFF793
:10349000F3F94FF47A70FEF717FF0220FFF71AF9DD
:1034A0004FF4FA70FEF710FF0A23009303230193F1
:1034B00011480F4901224FF07E53FFF7DDF94FF419
:1034C000FA70FEF701FF05230093022301930B48D6
:1034D000074901224FF07C53FFF7CEF9C820FEF7D1
:1034E000F3FEBD4680BD00BF0000B2420000F042C6
:1034F0000000AA42000096420000B0420000AC4228
:1035000080B582B002AF0A230093042301931048D0
:10351000104901224FF07E53FFF7AEF90A230093C2
:10352000032301930C480D4900224FF07E53FFF70F
:10353000A3F90B480721FEF7DFFE09480821FEF733
:10354000DBFE4FF4FA70FEF7BFFEBD4680BD00BF44
:10355000000020430000B2420000F0410000B042F1
:103560000000C84280B582B002AF75480621FEF760
:10357000C3FE05230093042301937248724900227D
:103580004FF07E53FFF778F90A230093022301934B
:103590006E486F4901224FF07E53FFF76DF9052306
:1035A0000093052301936B486B4901224FF07E5332
:1035B000FFF762F90220FFF78DF8C820FEF784FEBE
:1035C0000A230093022301935F48604901224FF0D0
:1035D0007E53FFF751F908230093032301935F48BB
:1035E0005F4901224FF07E53FFF746F90523009310
:1035F000042301935B48534901224FF07E53FFF7A8
:103600003BF9C820FEF760FE0320FFF763F80523AF
:103610000093052301934FF000004E4901224FF023
:103620007E53FFF729F9C820FEF74EFE05230093CD
:103630000523019347484FF0000100224FF07E53CD
:10364000FFF71AF9C820FEF73FFE08230093032373
:1036500001934348414900224FF07E53FFF70CF994
:1036600005230093042301933F483E4900224FF075
:103670007E53FFF701F90220FFF72CF8C820FEF770
:1036800023FE0A230093022301934FF000002E49EA
:1036900000224FF07E53FFF7EFF8C820FEF714FE2C
:1036A0000320FFF717F8052300930523019329480A
:1036B0004FF0000101224FF07E53FFF7DDF8C820E4
:1036C000FEF702FE05230093052301934FF000004F
:1036D000204900224FF07E53FFF7CEF8C820FEF7B6
:1036E000F3FD0220FEF7F6FF052300930423019368
:1036F00015481D4901224FF07E53FFF7BDF8052301
:1037000000930523019314484FF0000100224FF06D
:103710007E53FFF7B1F80A230093022301930C486C
:103720004FF0000101224FF07E53FFF7A5F8FEF79E
:10373000A5FF4FF47A70FEF7C7FDBD4680BD00BF00
:103740000000DC4200004842000020430000C84264
:103750000000B84200003E43000018420000A042B2
:103760000000F0410000F0420000164380B500AFB9
:10377000FEF784FF0220FEF7ADFF4FF4FA70FEF76C
:10378000A3FDFFF7BFF84FF4FA70FEF79DFDFFF7BA
:103790001DF94FF47A70FEF797FD0220FEF79AFFAD
:1037A0004FF47A70FEF790FDFFF74EF9FFF776F9C8
:1037B000C820FEF789FDFEF761FF4FF4FA70FEF7AF
:1037C00083FDFEF75BFF4FF47A70FEF77DFD80BD51
:1037D00080B500AFFEF752FF0220FEF77BFF4FF4EB
:1037E0007A70FEF771FDFFF7B3F94FF4FA70FEF748
:1037F0006BFDFFF715FA4FF47A70FEF765FD0220B6
:10380000FEF768FF4FF47A70FEF75EFDFFF76AFA85
:10381000FFF780FAC820FEF757FDFEF72FFF4FF4A1
:10382000FA70FEF751FDFEF729FF4FF47A70FEF7AC
:103830004BFD80BD80B500AF0220FEF74BFFFFF7C8
:10384000C5FA4FF4FA70FEF73FFDFFF725FB4FF482
:10385000FA70FEF739FD0220FEF73CFF4FF4FA70D4
:10386000FEF732FDFFF766FB4FF4FA70FEF72CFD12
:10387000FEF704FF4FF47A70FEF726FD80BD00BF0F
:1038800080B500AF0220FEF725FFFFF797FB4FF44E
:10389000FA70FEF719FDFFF7F7FB4FF4FA70FEF729
:1038A00013FD0220FEF716FF4FF47A70FEF70CFDB1
:1038B000FFF738FC4FF4FA70FEF706FDFFF75CFCEB
:1038C0004FF4FA70FEF700FDFEF7D8FE4FF47A7061
:1038D000FEF7FAFC80BD00BF80B500AF0220FEF706
:1038E000F9FEFFF70FF84FF47A70FEF7EDFCFFF7E3
:1038F00091FC4FF4FA70FEF7E7FCFFF7E1FC4FF4A0
:103900007A70FEF7E1FCFFF705FA4FF47A70FEF7E4
:10391000DBFCFEF7B3FE4FF47A70FEF7D5FC80BDFA
:1039200080B500AF0220FEF7D5FEFFF74FFA4FF447
:103930007A70FEF7C9FCFFF739FD4FF4FA70FEF715
:10394000C3FCFFF789FD4FF47A70FEF7BDFCFFF76B
:10395000D7FDFEF793FE4FF47A70FEF7B5FC80BDFD
:1039600081F0004102E000BF83F0004330B54FEA30
:1039700041044FEA430594EA050F08BF90EA020F9D
:103980001FBF54EA000C55EA020C7FEA645C7FEA30
:10399000655C00F0E2804FEA5454D4EB5555B8BF53
:1039A0006D420CDD2C4480EA020281EA030382EAC4
:1039B000000083EA010180EA020281EA0303362D56
:1039C00088BF30BD11F0004F4FEA01314FF4801C29
:1039D0004CEA113102D0404261EB410113F0004F3B
:1039E0004FEA03334CEA133302D0524263EB4303F2
:1039F00094EA050F00F0A780A4F10104D5F1200E90
:103A00000DDB02FA0EFC22FA05F2801841F10001EA
:103A100003FA0EF2801843FA05F359410EE0A5F1BE
:103A200020050EF1200E012A03FA0EFC28BF4CF0EF
:103A3000020C43FA05F3C01851EBE37101F00045A5
:103A400007D54FF0000EDCF1000C7EEB00006EEBB2
:103A50000101B1F5801F1BD3B1F5001F0CD349083C
:103A60005FEA30004FEA3C0C04F101044FEA445293
:103A700012F5800F80F09A80BCF1004F08BF5FEA1A
:103A8000500C50F1000041EB045141EA050130BDFA
:103A90005FEA4C0C404141EB010111F4801FA4F19D
:103AA0000104E9D191F0000F04BF01460020B1FAF2
:103AB00081F308BF2033A3F10B03B3F120020CDA2A
:103AC0000C3208DD02F1140CC2F10C0201FA0CF008
:103AD00021FA02F10CE002F11402D8BFC2F1200C6D
:103AE00001FA02F120FA0CFCDCBF41EA0C01904023
:103AF000E41AA2BF01EB0451294330BD6FEA04046C
:103B00001F3C1CDA0C340EDC04F11404C4F1200256
:103B100020FA04F001FA02F340EA030021FA04F368
:103B200045EA030130BDC4F10C04C4F1200220FABF
:103B300002F001FA04F340EA0300294630BD21FAFD
:103B400004F0294630BD94F0000F83F4801306BFC3
:103B500081F480110134013D4EE77FEA645C18BFB7
:103B60007FEA655C29D094EA050F08BF90EA020F4E
:103B700005D054EA000C04BF1946104630BD91EA46
:103B8000030F1EBF0021002030BD5FEA545C05D149
:103B90004000494128BF41F0004130BD14F5800488
:103BA0003CBF01F5801130BD01F0004545F0FE41FC
:103BB00041F470014FF0000030BD7FEA645C1ABF31
:103BC000194610467FEA655C1CBF0B46024650EA68
:103BD000013406BF52EA033591EA030F41F4002194
:103BE00030BD00BF90F0000F04BF0021704730B51A
:103BF0004FF4806404F132044FF000054FF00001EF
:103C000050E700BF90F0000F04BF0021704730B5AF
:103C10004FF4806404F1320410F0004548BF404284
:103C20004FF000013EE700BF42004FEAE2014FEAD9
:103C300031014FEA02701FBF12F07F4393F07F4FB4
:103C400081F06051704792F0000F14BF93F07F4FE6
:103C5000704730B54FF4607401F0004521F0004129
:103C600020E700BF50EA010208BF704730B54FF0AF
:103C700000050AE050EA010208BF704730B511F0B4
:103C8000004502D5404261EB41014FF4806404F1EC
:103C900032045FEA915C3FF4DCAE4FF003025FEA6E
:103CA000DC0C18BF03325FEADC0C18BF033202EBF6
:103CB000DC02C2F1200300FA03FC20FA02F001FA50
:103CC00003FE40EA0E0021FA02F11444C1E600BFEF
:103CD00070B54FF0FF0C4CF4E06C1CEA11541DBFA2
:103CE0001CEA135594EA0C0F95EA0C0F00F0DEF86D
:103CF0002C4481EA030621EA4C5123EA4C5350EA52
:103D0000013518BF52EA033541F4801143F48013A2
:103D100038D0A0FB02CE4FF00005E1FB02E506F033
:103D20000042E0FB03E54FF00006E1FB03569CF088
:103D3000000F18BF4EF0010EA4F1FF04B6F5007F8E
:103D400064F5407404D25FEA4E0E6D4146EB060600
:103D500042EAC62141EA55514FEAC52040EA5E5089
:103D60004FEACE2EB4F1FD0C88BFBCF5E06F1ED833
:103D7000BEF1004F08BF5FEA500E50F1000041EB6A
:103D8000045170BD06F0004646EA010140EA020017
:103D900081EA0301B4EB5C04C2BFD4EB0C0541EA39
:103DA000045170BD41F480114FF0000E013C00F34E
:103DB000AB8014F1360FDEBF002001F0004170BD72
:103DC000C4F10004203C35DA0C341BDC04F114048B
:103DD000C4F1200500FA05F320FA04F001FA05F217
:103DE00040EA020001F0004221F0004110EBD370E4
:103DF00021FA04F642EB06015EEA430E08BF20EA10
:103E0000D37070BDC4F10C04C4F1200500FA04F3B2
:103E100020FA05F001FA04F240EA020001F0004144
:103E200010EBD37041F100015EEA430E08BF20EAB7
:103E3000D37070BDC4F1200500FA05F24EEA020EFF
:103E400020FA04F301FA05F243EA020321FA04F02E
:103E500001F0004121FA04F220EA020000EBD370E5
:103E60005EEA430E08BF20EAD37070BD94F0000FE5
:103E70000FD101F00046400041EB010111F4801F19
:103E800008BF013CF7D041EA060195F0000F18BFCA
:103E9000704703F00046520043EB030313F4801F06
:103EA00008BF013DF7D043EA0603704794EA0C0FC0
:103EB0000CEA135518BF95EA0C0F0CD050EA4106D6
:103EC00018BF52EA4306D1D181EA030101F0004153
:103ED0004FF0000070BD50EA410606BF104619467B
:103EE00052EA430619D094EA0C0F02D150EA013687
:103EF00013D195EA0C0F05D152EA03361CBF1046C8
:103F000019460AD181EA030101F0004141F0FE4166
:103F100041F470014FF0000070BD41F0FE4141F4EA
:103F2000780170BD70B54FF0FF0C4CF4E06C1CEAEA
:103F300011541DBF1CEA135594EA0C0F95EA0C0F9F
:103F400000F0A7F8A4EB050481EA030E52EA03355A
:103F50004FEA013100F088804FEA03334FF080557B
:103F600045EA131343EA12634FEA022245EA1115A8
:103F700045EA10654FEA00260EF000419D4208BF59
:103F8000964244F1FD0404F5407402D25B084FEA06
:103F90003202B61A65EB03055B084FEA32024FF4B2
:103FA00080104FF4002CB6EB020E75EB030E22BF0F
:103FB000B61A754640EA0C005B084FEA3202B6EBCF
:103FC000020E75EB030E22BFB61A754640EA5C007E
:103FD0005B084FEA3202B6EB020E75EB030E22BF0E
:103FE000B61A754640EA9C005B084FEA3202B6EB0F
:103FF000020E75EB030E22BFB61A754640EADC00CE
:1040000055EA060E18D04FEA051545EA16754FEA2F
:1040100006164FEAC30343EA52734FEAC2025FEA4D
:104020001C1CC0D111F4801F0BD141EA00014FF0DC
:1040300000004FF0004CB6E711F4801F04BF0143AD
:104040000020B4F1FD0C88BFBCF5E06F3FF6AFAEC9
:10405000B5EB030C04BFB6EB020C5FEA500C50F159
:10406000000041EB045170BD0EF0004E4EEA1131DC
:1040700014EB5C04C2BFD4EB0C0541EA045170BDE3
:1040800041F480114FF0000E013C90E645EA060E27
:104090008DE60CEA135594EA0C0F08BF95EA0C0F55
:1040A0003FF43BAF94EA0C0F0AD150EA01347FF49D
:1040B00034AF95EA0C0F7FF425AF104619462CE774
:1040C00095EA0C0F06D152EA03353FF4FDAE1046D7
:1040D000194622E750EA410618BF52EA43067FF428
:1040E000C5AE50EA41047FF40DAF52EA43057FF4B8
:1040F000EBAE12E74FEA4102B2F1E04324BFB3F561
:10410000001CDCF1FE5C0DD901F0004C4FEAC0024E
:104110004CEA5070B2F1004F40EB830008BF20F032
:104120000100704711F0804F21D113F13872BCBFEC
:1041300001F00040704741F480114FEA5252C2F141
:104140001802C2F1200C10FA0CF320FA02F018BF8A
:1041500040F001004FEAC1234FEAD32303FA0CFCDD
:1041600040EA0C0023FA02F34FEA4303CCE77FEA6C
:10417000625307D150EA01331EBF4FF0FE4040F4B6
:104180004000704701F0004040F0FE4040F4000065
:10419000704700BF80F0004002E000BF81F00041A6
:1041A00042001FBF5FEA410392EA030F7FEA226CDD
:1041B0007FEA236C6AD04FEA1262D2EB1363C1BF6D
:1041C000D218414048404140B8BF5B42192B88BFDC
:1041D000704710F0004F40F4000020F07F4018BFFF
:1041E000404211F0004F41F4000121F07F4118BF1F
:1041F000494292EA030F3FD0A2F1010241FA03FCC7
:1042000010EB0C00C3F1200301FA03F100F00043AE
:1042100002D5494260EB4000B0F5000F13D3B0F176
:10422000807F06D340084FEA310102F10102FE2AE5
:1042300051D2B1F1004F40EBC25008BF20F0010055
:1042400040EA03007047490040EB000010F4000F03
:10425000A2F10102EDD1B0FA80FCACF1080CB2EB96
:104260000C0200FA0CF0AABF00EBC25052421843F5
:10427000BCBFD0401843704792F0000F81F400019A
:1042800006BF80F400000132013BB5E74FEA41036D
:104290007FEA226C18BF7FEA236C21D092EA030FD9
:1042A00004D092F0000F08BF0846704790EA010F53
:1042B0001CBF0020704712F07F4F04D1400028BF80
:1042C00040F00040704712F100723CBF00F5000062
:1042D000704700F0004343F0FE4040F40000704798
:1042E0007FEA226216BF08467FEA23630146420244
:1042F00006BF5FEA412390EA010F40F48000704757
:104300004FF0000304E000BF10F0004348BF4042FC
:104310005FEA000C08BF704743F0964301464FF038
:1043200000001CE050EA010208BF70474FF0000394
:104330000AE000BF50EA010208BF704711F00043D5
:1043400002D5404261EB41015FEA010C02BF8446A5
:104350000146002043F0B64308BFA3F18053A3F504
:104360000003BCFA8CF2083AA3EBC25310DB01FA4B
:1043700002FC634400FA02FCC2F12002BCF1004FCF
:1043800020FA02F243EB020008BF20F00100704760
:1043900002F1200201FA02FCC2F1200250EA4C00B4
:1043A00021FA02F243EB020008BF20EADC707047FA
:1043B0004FF0FF3C06E000BF4FF0010C02E000BFF1
:1043C0004FF0010C4DF804CD4FEA40024FEA410393
:1043D0007FEA226C18BF7FEA236C11D001B052EA49
:1043E000530C18BF90EA010F58BFB2EB030088BF0F
:1043F000C81738BF6FEAE17018BF40F0010070477E
:104400007FEA226C02D15FEA402C05D17FEA236C5F
:10441000E4D15FEA412CE1D05DF8040B704700BFA6
:10442000844608466146FFE70FB5FFF7C9FF00283D
:1044300048BF10F1000F0FBD4DF808EDFFF7F4FF76
:104440000CBF012000205DF808FB00BF4DF808ED0F
:10445000FFF7EAFF34BF012000205DF808FB00BF32
:104460004DF808EDFFF7E0FF94BF012000205DF854
:1044700008FB00BF4DF808EDFFF7D2FF94BF012005
:1044800000205DF808FB00BF4DF808EDFFF7C8FFFE
:1044900034BF012000205DF808FB00BF4FEA400256
:1044A000B2F1FE4F0FD34FF09E03B3EB12620DD962
:1044B0004FEA002343F0004310F0004F23FA02F0CC
:1044C00018BF404270474FF00000704712F1610F73
:1044D00001D1420205D110F0004008BF6FF000404A
:1044E00070474FF00000704770B50F4E0F4D761BB0
:1044F000B61018BF002405D0013455F8043B984786
:10450000A642F9D10A4E0B4D00F0E4F8761BB61026
:1045100018BF002406D0013455F8043B9847A64242
:10452000F9D170BD70BD00BFEC460020EC46002004
:10453000F4460020EC460020024B13B1024800F084
:1045400005B87047000000005945002001460020D2
:104550000246034600F016B838B5084B084DED1A70
:10456000AC1018BFED1805D0013C55F8043D984734
:10457000002CF9D1BDE8384000F0B2B8F446002074
:10458000F84600202DE9F047254C06462568884668
:10459000D5F8484192469946C4B360681F2817DC95
:1045A000411C76B104EB8003C3F888A0D4F888518D
:1045B000012282401543022EC4F88851C3F80891A5
:1045C0001ED0831C6160002044F82380BDE8F08782
:1045D000144B03B34FF4C870AFF300800446D0B15E
:1045E000D5F84831002784E888003846C5F84841A6
:1045F0000121C4F88871C4F88C71002EE1D0D1E794
:10460000D4F88C311A43C4F88C21DAE705F5A67486
:10461000C5F84841C1E74FF0FF30BDE8F08700BF63
:10462000D0460020000000000001020408102040D5
:1046300080010204081020408000000000000000FB
:1046400010000000180000002000000028000000FA
:10465000300000003800000040000000480000006A
:1046600050000000580000006000000068000000DA
:10467000700000007800000080000000880000004A
:1046800000000000140000001C00000024000000D6
:104690002C000000340000003C000000440000003A
:1046A0004C000000540000005C00000064000000AA
:1046B0006C000000740000007C000000840000001A
:1046C0008C0000000001000102020303430000000F
:1046D00028470020F8B500BFF8BC08BC9E467047CC
:1046E000F8B500BFF8BC08BC9E46704739450020AD
:1046F000E5040020C10400200000000000000000CC
:1047000000000000003B5808003B5808003B5808D8
:10471000C00E1602801D2C04003B5808003B5808B0
:104720004B0A0D000200000000000000144A0020A7
:104730007C4A0020E44A0020000000000000000045
:104740000000000000000000000000000000000069
:10475000000000000000000000000000CC46002027
:104760000000000000000000000000000000000049
:104770000000000000000000000000000000000039
:104780000000000000000000000000000000000029
:104790000000000000000000000000000000000019
:1047A0000000000000000000000000000000000009
:1047B00000000000000000000000000000000000F9
:1047C00000000000000000000000000000000000E9
:1047D00001000000000000000E33CDAB34126DE686
:1047E000ECDE05000B0000000000000000000000EF
:1047F00000000000000000000000000000000000B9
:1048000000000000000000000000000000000000A8
:104810000000000000000000000000000000000098
:104820000000000000000000000000000000000088
:040000052000019145
:00000001FF
