:1000000000000120910100007F0300008103000037
:100010008303000085030000870300000000000048
:100020000000000000000000000000008903000044
:100030008B030000000000008D0300008F03000010
:1000400091030000930300006D0C0000890C000078
:10005000990300009B0300009D0300009F03000024
:10006000A1030000A3030000A5030000A7030000F4
:10007000A9030000AB030000F1130000AF03000070
:10008000B1030000B3030000B50300004106000007
:10009000B9030000BB030000BD030000BF03000064
:1000A000C1030000C3030000C5030000450D0000AC
:1000B000E50D0000CB030000CD030000CF030000DE
:1000C000D1030000D3030000D5030000D7030000D4
:1000D000D9030000DB030000DD030000DF030000A4
:1000E000E1030000E3030000E5030000E703000074
:1000F000E9030000EB030000ED030000EF03000044
:10010000F1030000F3030000F5030000F703000013
:10011000F9030000FB030000FD030000FF030000E3
:1001200001040000030400000504000007040000AF
:10013000090400000B0400000D0400000F0400007F
:10014000110400001304000015040000170400004F
:10015000190400001B0400001D0400001F0400001F
:1001600021040000230400002504000027040000EF
:10017000290400002B0400002D0400002F040000BF
:100180003104000033040000000000000000000003
:100190004FF0000BDFF8BE020068DFF8B612096806
:1001A00001F0030100F01C00142801D14BF0020BF8
:1001B000002901D04BF0010BBBF1000F05D0A7487F
:1001C000A749DFF8722200F09FF8A64880470BF09D
:1001D000020ABAF1000F0CD0DFF86E02DFF86E12DF
:1001E00002680B680FB44FF000024FF0FF0302608B
:1001F0000B609D489D4A9E4B022808D1DFF83E12B5
:100200000A60DFF842120A60DFF836120B6001283C
:1002100008D1DFF82E120A60DFF82A120A60DFF830
:100220001E120B609348002809D193489349944AC1
:1002300000F032F893489449944A00F02DF894481D
:100240009449954A00F028F894489549DFF8E6214A
:1002500000F05AF8BBF1000F12D092489249DFF833
:10026000DA2100F051F80BF0020ABAF1000F07D0C2
:100270000FBC02600B6000BFAFF30080AFF30080E3
:10028000DFF828020FF2030E00474FF000004FF096
:100290000001DFF81CF2FEE72DE9F841884225D085
:1002A000B2EB010200D5FEE740EA010313F00303BD
:1002B00002D000F01DF819E04FF000039046121133
:1002C000F7D09A421CBFF0C8F0C103F10103F8D186
:1002D00008F00F08B8F1000F08D004780C7000F196
:1002E000010001F10101B8F10108F6D1BDE8F88182
:1002F00008B54FF0000303780B7000F1010001F125
:100300000101013AF7D108BD884237D000F0030659
:10031000002E14D04FF00405A5EB06044FF008079B
:1003200007FB06F8914669FA08F9002C07D080F817
:10033000009069FA07F900F10100013CF5E74FF080
:1003400000060F46091A88460911914614461546BB
:10035000B14206D018BFA0E8340206F10106B1424E
:10036000F8D108F00F08B8F1000F07D002704FEA7B
:10037000322200F10100B8F10108F4E77047FEE70E
:10038000FEE7FEE7FEE7FEE7FEE7FEE7FEE7FEE745
:10039000FEE7FEE7FEE7FEE7FEE7FEE7FEE7FEE735
:1003A000FEE7FEE7FEE7FEE7FEE7FEE7FEE7FEE725
:1003B000FEE7FEE7FEE7FEE7FEE7FEE7FEE7FEE715
:1003C000FEE7FEE7FEE7FEE7FEE7FEE7FEE7FEE705
:1003D000FEE7FEE7FEE7FEE7FEE7FEE7FEE7FEE7F5
:1003E000FEE7FEE7FEE7FEE7FEE7FEE7FEE7FEE7E5
:1003F000FEE7FEE7FEE7FEE7FEE7FEE7FEE7FEE7D5
:10040000FEE7FEE7FEE7FEE7FEE7FEE7FEE7FEE7C4
:10041000FEE7FEE7FEE7FEE7FEE7FEE7FEE7FEE7B4
:10042000FEE7FEE7FEE7FEE7FEE7FEE7FEE7FEE7A4
:10043000FEE7FEE7704700000000A2A2A2A2008033
:100440000340088003401080034030800340348024
:1004500003403880034018080240000000F00020EC
:1004600000000120B91200000000000000000000A0
:10047000010000000000000000000000000000007B
:1004800090010000C0040000C0040000B040000063
:10049000B040000000000020500400205004002064
:1004A000E0050020E005002000F000209D3E000057
:1004B00039300000000000000000000000000000D3
:1004C00010B5054C237833B9044B13B10448AFF38E
:1004D00000800123237010BD5004002000000000A4
:1004E00088400000084B10B51BB108480849AFF31D
:1004F00000800848036803B910BD074B002BFBD0F0
:10050000BDE81040184700BF000000008840000010
:10051000540400200000002000000000016070472B
:10052000006870470EB503FA01F303EA020301689D
:100530006FEA020201EA020141EA030101600EBD15
:10054000006800EA020020FA01F07047018070475D
:10055000008870470EB503FA01F303EA020301882D
:100560006FEA020201EA020141EA030101800EBDC5
:10057000008800EA020020FA01F07047017070471D
:10058000007870470EB503FA01F303EA020301781D
:100590006FEA020201EA020141EA030101700EBDA5
:1005A000007800EA020020FA01F0704730B4124CE3
:1005B00082B0236823F004032360636803F001031F
:1005C0000193019BABB181B1451E002201E08A423B
:1005D0000BD015F8013F01322361636803F001037A
:1005E0000193019B002BF2D11146084602B030BCAA
:1005F00070471946F9E700BF006001400B4B10B58A
:100600000B4C1988236889B233B10A4A106898479D
:10061000094A002313702360084B1A46196841F0F9
:10062000010119601368DB07FCD410BD8C040020A5
:100630008804002094040020780400200060014019
:10064000944AF8B553689468DBB21C40A0071DD4E7
:10065000E10700D4F8BD904E3378022B60D0052B13
:100660002FD0012B4ED08B4A8C4C936823F0010382
:10067000936023683BB18A4A002110689847894AF1
:1006800000231370236000233370F8BD1069824E7D
:1006900020F4FF43327823F07F039DB2C0B2052AD5
:1006A00000F2BB80DFE812F090009C009C00A400E8
:1006B00063004F007C4B1A68002A40F08E80E307ED
:1006C000C8D57A4C236883B9794B1B68002B00F09E
:1006D000D180784898472060236833B96D4A032158
:1006E000936823F001039360317023686F4C002BF3
:1006F00040F0B480674A0321936823F001039360BC
:100700003170F8BD6C4C23889BB2002B40F0928076
:10071000644B1B78002B9DD0BDE8F840FFF76EBFFF
:10072000624C2368002BF3D0624D21682868FFF7E4
:100730003DFF23689842DDD223682A681B1A1044C3
:1007400023602860F8BD002DB4D1554B534F1A6873
:100750003B6850702BB1104602219847514B3D60C9
:100760001D7000233370E2077FF574AF7BE7002D27
:100770002FD1524A4A4913880D689BB22B4413F873
:10078000013CF12B00F0A5804D49138809889BB2EC
:100790008B4206D217881388BFB201339BB2E8554B
:1007A00013801388454A9BB299427FF451AF3B4F67
:1007B00013883A6899B2002AD3D028469047394A1C
:1007C000002313703B60CCE7002DCCD0F12800F063
:1007D0009080354B1A68002AC5D01B68984737E7C8
:1007E000002D3FF435AF304B1A68002AF5D12FE7C2
:1007F000002DB8D0334B1B789842EAD12F4A002302
:1008000013801188264D13882F68013389B29BB25B
:100810000425138078543570A5E7204D2B68002BF4
:100820009FD01F4A0021106898471E4A002313706A
:100830002B6096E7244F21883D6889B22846FFF750
:10084000B5FE23889BB298421CD30022174B22800E
:100850001B68002B3AD002233370F8BD154D216878
:100860002868FFF7A3FE2A6823680244181A2A6042
:100870002060F8BD0B4B1B78002B3FF436AFFFF721
:10088000BDFE32E7238805441B1A9BB23D602380DE
:10089000F8BD00BF006001409804002088040020DB
:1008A00094040020780400207C04002090040020A0
:1008B0007004002084040020800400208C040020A8
:1008C0006C0400209904002074040020032333707A
:1008D000F8BD1188104F13888AB29BB23968A854AA
:1008E0001D4415F8010C00293FF43BAF3B689847C5
:1008F00037E70A4B00271F8019881A88084D0132F4
:1009000092B21A801B882D688AB29BB20421A85427
:100910003170EF5427E700BF7C0400208C040020D6
:10092000940400202C4A036890422DE9F04F1C6883
:10093000D3F81880D3F804C0D3F828E01F6B5E6B9F
:10094000DD692CD0254A26491346D1F84890DFF8B6
:1009500098A04FF0030B026080F804B049F480695E
:100960000820C1F84890CAF88001886C20F48060A3
:100970008864116821F00041116024F001021A60BE
:10098000C3F81880C3F804C01A6842F001021A6064
:10099000C3F828E01F635E63DD61BDE8F08F104A95
:1009A0001049936CDFF8409043F400734FF0020B52
:1009B0004FF0040A016080F804B09364C9F880A184
:1009C000D2F84890036829F4007090640A6822F015
:1009D00000420A60D1E700BF40050020001001403E
:1009E000008003400010004000E100E0026830B4E5
:1009F0009368DD053DD40369C568AB4210D28168B8
:100A0000194401E0AB420BD211F8014B01335461A0
:100A100094680361E405F5D5AB4201D230BC704760
:100A20009368DD0510D4C36985699D4224D9416965
:100A3000194401E0AB4207D211F8014B0133546174
:100A40009468C361E405F5D5436A002BE6D0C1691B
:100A500083699942E2D3906810F48070DED120233C
:100A600001E0013BDAD050619168C905F9D530BC8D
:100A70007047C5680369CFE7436A002BEBD1CDE728
:100A800010B590F8803082B0022B0CD0012B18D01A
:100A900003689A68520604D41A6900929A6852064A
:100AA000FAD502B010BD0446236803E01969626FED
:100AB00000911AB99A685106F8D5F2E70098904764
:100AC000F2E7026893685C06EBD4036BC16A1469B1
:100AD0008B42019404D2826A0199D154036B02685B
:100AE0009168013349060363F0D502B010BD00BF21
:100AF00070B5036882B01A6A044692071D460ED587
:100B000090F88020022A36D0012A9A6803D190E01A
:100B10001A6901929A685206FAD50222DA602A6AA4
:100B2000D60709D594F88020022A28D02046FFF75E
:100B30005DFF23680122DA602A6AD00648D42A6A57
:100B400051075CD42A6A12070BD5DA6A94F8801030
:100B500042F008020229DA625CD001297FD0082223
:100B6000DA602B6A9B060DD402B070BD1969626F02
:100B70000191002A59D19A685606F7D5CDE7A26FA0
:100B80005A61D7E72046FFF77BFF236A256B002BCE
:100B900063D023680022102162626261A261E26177
:100BA000D9609A6A0A439A62DA6A002642F00C0215
:100BB00026612046DA62FFF719FFE36F266313B15F
:100BC0002946A06A984723682022DA6002B070BDE7
:100BD0002046FFF755FF236A2BB1A06A216B984787
:100BE0002046FFF703FF236810219A6A012022F0B4
:100BF000100260629A62D9602A6A5107A2D5DA6A45
:100C0000204642F00402DA62FFF78CFE23680422D9
:100C1000DA6097E71A68A16F22F47F0222F47F421C
:100C200042F480721A60596199E7019890472368ED
:100C3000A1E750063FF571AF226BE16A1869914256
:100C4000019004D9A36A01999954226B2368996889
:100C5000013249062263F0D55FE72368A4E7002349
:100C600023612046FFF7C2FE236878E7684620F03C
:100C700007018D4601B50348FFF73AFFBDE8014083
:100C80008546704740050020684620F007018D46E4
:100C900001B50348FFF72CFFBDE8014085467047CA
:100CA000BC0400202DE9F041224CDFF894E02468D8
:100CB000214D4FEA840C0CEB04064FEA8608F7013D
:100CC00008F1402606F58036BE44CEF8043045448F
:100CD0007060B1606E68B2F5803F4FEA16464FEA29
:100CE00006466E601BD86B6892B214491A43002303
:100CF0006A600B616444104AA3001A445168E4011D
:100D000004F1844303F5201341F4E001012500249C
:100D10005160C3F8C051C3F8CC41BDE8F081074B26
:100D2000A2F5803201F5803100F580301A61D9607A
:100D30009860DFE7B8040020084001409C040020D0
:100D4000C0012842684620F007018D4679B5204849
:100D5000204A0368204C03EB8301890003F52875C2
:100D6000012644F825600A4451683344042B08BF27
:100D7000002321F4E00151600360184B1A697AB135
:100D80001748016804290CBF0021013101609868EF
:100D9000D9681B7DFFF786FFBDE87940854670471F
:100DA00002680C4902EB8202920011444A68084C26
:100DB00012F4E002F0D10A4D5968012022602A6045
:100DC00018700029E8D08847BDE87940854670470B
:100DD000B404002008400140000028429C04002088
:100DE000B8040020684620F007018D46244B31B539
:100DF0001B6813F4706F19D0224C23689900CA182D
:100E0000D20102F1844202F52012D2F808223AB14E
:100E10001D4A02205568107015B1A8472368990033
:100E20000B441A4ADB011A4453680BBB144B1B6872
:100E300013F4704F05D0144B04205A68187002B197
:100E40009047BDE83140124A12490123C2F8C83127
:100E50008546C2F8803AC2F84834C1F8803AC2F8F0
:100E6000C836C1F8843AC2F84839C1F8883A7047A0
:100E7000054B03205A681870002AD7D09047D5E751
:100E800000400140B40400209C04002008022842D5
:100E90000000284204002842F0B5044683B030B177
:100EA000072B1E4603D8B2F5005F154601D303B0E9
:100EB000F0BD0F4601F10800D1B2FFF75FFB05F46A
:100EC0007F4146EA511107F10C00FFF757FB2760FD
:100ED00007F11000FFF754FB82070CD5206804309F
:100EE000FFF74EFB23688DF8070003F11000FFF7B2
:100EF00047FB8307F2D40023237103B0F0BD00BF8A
:100F000098B191B18AB170B504460D468E1820682B
:100F10001030FFF735FBC307F9D515F8011B206822
:100F2000FFF72CFBB542F2D170BD7047F8B508B1A0
:100F300001B112B900252846F8BD044600681746DD
:100F400010300E46FFF71CFB2379820743EA0003AB
:100F50002371EFD5013E002501E0BD42EBD02068B2
:100F600001350430FFF70CFB06F8010F2068103044
:100F7000FFF706FB2379034323718307EDD428464B
:100F8000F8BD00BF034628B100790022C0F38200FB
:100F90001A717047FF20704738B5104B0829054675
:100FA0005C5C00680CD90C30FFF7EAFA2B6840EA69
:100FB0000401C9B203F10C00BDE83840FFF7DEBA06
:100FC0000830FFF7DDFA2B6840EA0401C9B203F1EB
:100FD0000800BDE83840FFF7D1BA00BF204000004C
:100FE00038B5104B082905465C5C00680CD90C30FC
:100FF000FFF7C6FA2B6820EA0401C9B203F10C001E
:10100000BDE83840FFF7BABA0830FFF7B9FA2B68E5
:1010100020EA0401C9B203F10800BDE83840FFF737
:10102000ADBA00BF2040000070B5044616461D460C
:10103000016001F108000021FFF7A0FA20680021FB
:101040000C30FFF79BFA31462068FFF767FA2068FB
:1010500029460430FFF762FA206800211030FFF7BC
:101060005DFA206800211830FFF758FA2068002147
:101070002030FFF753FA206800212830FFF74EFA9E
:10108000206800213030FFF749FA2068002138300D
:10109000FFF744FA206800214030FFF73FFA20684C
:1010A00000214830FFF73AFA206800215030FFF75E
:1010B00035FA206800215830FFF730FA2068002107
:1010C0006030FFF72BFA206800216830FFF726FA1E
:1010D000206800217030FFF721FA20680021783065
:1010E000FFF71CFA206800218030FFF717FA20680C
:1010F00000218830BDE87040FFF710BA70B54C1E73
:101100000F2C04D822B9BDE87040FFF769BF70BD4D
:1011100006460C4615460B4A036852F8210000218A
:101120001844FFF7FBF9084A336852F824002946AF
:101130001844FFF7F3F930462146BDE87040FFF749
:101140002BBF00BF34400000DC3F000070B50646F6
:101150000C46027101F18005316020460021043403
:10116000FFF70CFAAC42F8D13379012B21D00AD326
:10117000022B07D130684FF0FF318030BDE870405E
:10118000FFF7CCB970BD3068FF218030FFF7F6F96A
:101190003068FF218430FFF7F1F93068FF21883093
:1011A000FFF7ECF93068FF218C30BDE87040FFF7A5
:1011B000E5B930684FF6FF718030FFF7C7F9306846
:1011C0004FF6FF71BDE870408430FFF7BFB900BF34
:1011D0001F290B4600D970470068114600EB8300B9
:1011E000FFF79CB938B503790446012B0D4621D091
:1011F00008D3022B05D1BDE838400068A030FFF7C6
:101200008DB938BD0068C9B2A030FFF7B7F92068C2
:10121000C5F30721A430FFF7B1F92068C5F30741F2
:10122000A830FFF7ABF92068290EAC30BDE8384094
:10123000FFF7A4B9006889B2A030FFF787F92068EA
:10124000290CA430BDE83840FFF780B9037970B5A8
:10125000012B044624D009D3022B05D1BDE87040F0
:101260000068A030FFF75CB9002070BD0068A030B6
:10127000FFF76EF905462068A430FFF769F90646C6
:101280002068A830FFF764F92368000440EA0624C8
:1012900003F1AC00FFF75CF92C4344EA006070BD39
:1012A0000068A030FFF754F905462068A430FFF726
:1012B0004FF945EA004070BD4FF602020C4BD3F8DF
:1012C0004C11914206D00B4A536943F400735361A9
:1012D000FFF7B0B8D3F8982042F48072C3F8982092
:1012E000D3F8982022F08062C3F89820EBE700BF83
:1012F0000080034000ED00E0F0B52E4B83B0D3F842
:101300009820510117D4D3F89820D2042ED56A46DC
:1013100029490868496803C2D3F89C2002A9C2F38E
:1013200082120A4412F8082C012A36D003D3DFF8BF
:10133000BCE0224B09E0D3F85011214A11F0040F10
:10134000204B18BF1346DFF8A4E01F4F1F4E204D5F
:10135000204C2148214A2249CEF800303B603360BE
:101360002B6023600360116003B0F0BD1D4BDFF8FC
:101370007CC0DFF854E0154F164E174D1748184C37
:10138000134A1949CCF80030CEF800303B60336086
:101390002B600460116003B0F0BDDFF850E00A4F2D
:1013A0000A4E0B4D0B4C0C480C4A0D494FF40043B0
:1013B000D2E700BF008003407840000040420F00A9
:1013C00080F0FA0240787D0114000020180000200F
:1013D0000C00002010000020040000200800002065
:1013E000C00E1602003B5808801D2C041C00002073
:1013F00010B50D4C2046FFF729FF02460B4B204647
:101400001A601A6882F007021A601968FFF7EAFE8C
:10141000074808490422FFF773FD4FF040230122DB
:101420001A61BFF34F8F10BDC405002020000020BB
:10143000CC05002024000020012910B50C460AD05C
:10144000022908D0032920D0042904D005292AD054
:10145000062936D010BD02F0C1F80022002301F0A9
:101460005FFF1FA3D3E9002302F00CF9244B0022F5
:1014700001F056FF02F018FB02F0EAFC2146BDE83D
:10148000104002461F48FFF739BE02F0A7F80022BD
:10149000002301F045FF14A3D3E9002302F0F2F882
:1014A0000022194BE4E702F099F80022002301F032
:1014B00037FF0FA3D3E9002302F0E4F80022134B17
:1014C000D6E702F08BF80022002301F029FF0AA3DF
:1014D000D3E9002302F0D6F800220D4BC8E700BF85
:1014E000181818181818C83F1B1B1B1B1B1BCB3FB9
:1014F0005A5A5A5A5A5ACA3FD9D8D8D8D8D8C83FAF
:1015000000002840D40500200000204000002240B8
:101510000000264008B50B480621FFF78DFF0A485A
:101520000421FFF789FF09480521FFF785FF0848D7
:101530000221FFF781FFBDE8084006480321FFF7BD
:101540007BBF00BF0000DC420000204300001842C7
:101550000000B8420000F04100B583B0A0B10128FE
:101560001CD002281FD0032813D000230193019B15
:101570000F4A934205DC019B01330193019B934287
:10158000F9DD03B05DF804FB0A480621FFF754FFBC
:10159000EBE709480621FFF74FFFE6E7074806217A
:1015A000FFF74AFFE1E706480621FFF745FFDCE7C2
:1015B00087F504000000F0420000DC420000024316
:1015C000000048422DE9F043012A83B090460546C9
:1015D00089461E462AD02ABB0846294602F024FC2A
:1015E00000B341F664174C460A9B07FB03F72046FD
:1015F0000B99FFF721FFCDF80480019B9F4205DD89
:10160000019B01330193019B9F42F9DC3146204647
:1016100002F09EFA81462846494602F0FBFB08B1DB
:101620004C46E4E7204603B0BDE8F083084629466F
:1016300002F0F0FB0028F5D041F664174C460A9BF7
:101640004FF0000807FB03F720460B99FFF7F4FE65
:10165000CDF80080009B9F4205DD009B0133009385
:10166000009BBB42F9DB3146204602F073FA81460B
:101670002846494602F0D8FB0028D3D04C46E3E781
:1016800010B505228AB002238DE80C005F480022C5
:101690004FF07E535E49FFF795FF00230293029BB4
:1016A0005C4A934205DC029B01330293029B934206
:1016B000F9DD0220FFF750FF0A2203238DE80C001A
:1016C000554801224FF07E535449FFF77BFF00231A
:1016D0000393039B4F4A934205DC039B013303931F
:1016E000039B9342F9DD0A2204238DE80C004C4849
:1016F00000224FF07E534B49FFF764FF0023049311
:10170000049B494A934205DC049B01330493049BE8
:101710009342F9DD0320FFF71FFF00230593059B8C
:10172000424A934205DC059B01330593059B934296
:10173000F9DD0A2203238DE80C003D4800224FF01A
:101740007E533549FFF73EFF00230693069B314A3F
:10175000934205DC069B01330693069B9342F9DD19
:101760000A2203238DE80C002B4801224FF07E5300
:101770002F49FFF727FF00230793079B2D4A93422A
:1017800005DC079B01330793079B9342F9DD022099
:10179000FFF7E2FE00230893089B264A934205DCEC
:1017A000089B01330893089B9342F9DD0A24032325
:1017B0000193194900224FF07E5300941748FFF718
:1017C00001FF04230193164901224FF07E53009438
:1017D0001448FFF7F7FE0223019301224FF07E53D6
:1017E00000940B480949FFF7EDFE00230993099B7C
:1017F000104A934205DC099B01330993099B9342EC
:10180000F9DDFFF787FE0AB010BD00BF0000B64249
:101810000000B8429F2E63000000A0420000F0418B
:1018200000004042000020433FD2DF03FF74190351
:10183000000082424F97310010B5022388B00A247D
:1018400001933A4901224FF07C5300943848FFF746
:10185000B9FE0323019301224FF07E5300943348D5
:101860003449FFF7AFFE00230393039B324A9342B0
:1018700005DC039B01330393039B9342F9DD0A22AA
:1018800004238DE80C002D4800224FF07E532C4994
:10189000FFF798FE00230493049B2A4A934205DC39
:1018A000049B01330493049B9342F9DD0320FFF76B
:1018B00053FE00230593059B1F4A934205DC059BBD
:1018C00001330593059B9342F9DD0A2204238DE839
:1018D0000C001D4801224FF07C531849FFF772FE9F
:1018E00000230693069B194A934205DC069B0133AD
:1018F0000693069B9342F9DD0A2203238DE80C0030
:10190000134800224FF07E531249FFF75BFE00237D
:101910000793079B084A934205DC079B0133079313
:10192000079B9342F9DD08B010BD00BF0000B8422C
:101930000000E6420000F0414F9731000000A8424D
:10194000000020439F2E6300000096422FC11D001F
:10195000000070420000BA4210B5022386B0052490
:101960000193214900224FF07C5300941F48FFF758
:1019700029FE0A238DE8180001224FF07E531C48EF
:101980001C49FFF71FFE00230393039B1A4A93424F
:1019900005DC039B01330393039B9342F9DD002392
:1019A0000493049B154A934205DC049B0133049382
:1019B000049B9342F9DD0A2203238DE80C001048B2
:1019C00001224FF07E530F49FFF7FCFD00230593E2
:1019D000059B094A934205DC059B01330593059B52
:1019E0009342F9DD06B010BD0000E64200007842E7
:1019F00000004842000018424F9731009F2E6300BC
:101A000000009C420000704200B50A2285B003230A
:101A10008DE80C00164800224FF07E531549FFF761
:101A2000D1FD00230293029B134A934205DC029BE3
:101A300001330293029B9342F9DD0A2205238DE8CC
:101A40000C000E4800224FF07E530949FFF7BAFD03
:101A500000230393039B084A934205DC039B013355
:101A60000393039B9342F9DD05B05DF804FB00BFCF
:101A7000000048420000A0424F9731000000184289
:101A800010B5214884B00A2406230146019301229F
:101A90004FF07E530094FFF795FD042301931B49FB
:101AA00001224FF07E5300941948FFF78BFD19482F
:101AB00005230146019301224FF07E530094FFF766
:101AC00081FD02230193144901224FF07E530094BB
:101AD0001248FFF777FD0323019300224FF07E5356
:101AE00000940F480F49FFF76DFD00230393039BFC
:101AF0000D4A934205DC039B01330393039B9342FE
:101B0000F9DD04B010BD00BF0000DC4200009442CB
:101B10000000204300001842000078420000B84254
:101B20000000F041000048424F97310000B50A2202
:101B300089B002238DE80C004FF0854000224FF061
:101B40007C533E49FFF73EFD00230293029B3C4A33
:101B5000934205DC029B01330293029B9342F9DD21
:101B60000A2203238DE80C00364801224FF07E53F1
:101B70003549FFF727FD00230393039B334A934224
:101B800005DC039B01330393039B9342F9DD0A2297
:101B900004238DE80C002E4800224FF07E532D497F
:101BA000FFF710FD00230493049B2B4A934205DCAE
:101BB000049B01330493049B9342F9DD0320FFF758
:101BC000CBFC00230593059B234A934205DC059B30
:101BD00001330593059B9342F9DD0A2204238DE826
:101BE0000C001E4800224FF07E531949FFF7EAFC13
:101BF00000230693069B154A934205DC069B01339E
:101C00000693069B9342F9DD0A2203238DE80C001C
:101C1000134800224FF07E531249FFF7D3FC0023F4
:101C20000793079B104A934205DC079B01330793F8
:101C3000079B9342F9DD09B05DF804FB0000B74251
:101C40000FEB09000000D8420000F0414F9731002F
:101C50000000C042000020436F6D45000000BC4200
:101C600000008C420000DC429F2E630000B505227C
:101C700089B002238DE80C00384801224FF07C53D4
:101C80003749FFF79FFC00230393039B354A934298
:101C900005DC039B01330393039B9342F9DD0A2286
:101CA00005238DE80C00304800224FF07E532F4969
:101CB000FFF788FC00230493049B2D4A934205DC24
:101CC000049B01330493049B9342F9DD0A2204230D
:101CD0008DE80C00274800224FF07E532649FFF77D
:101CE00071FC00230593059B214A934205DC059B6B
:101CF00001330593059B9342F9DD0A2203238DE806
:101D00000C001E4801224FF07E531D49FFF75AFC7C
:101D100000230693069B134A934205DC069B01337E
:101D20000693069B9342F9DD0A2204238DE80C00FA
:101D3000144800224FF07E530E49FFF743FC002366
:101D40000793079B0A4A934205DC079B01330793DD
:101D5000079B9342F9DD09B05DF804FB0000E04207
:101D600000007E429F2E63000000E0410000184208
:101D70004F9731000000B0420000BC420000AE426C
:101D800000008C4200009C4200B50A2285B003236B
:101D90008DE80C000A4800224FF07E530949FFF7F6
:101DA00011FC00230393039B074A934205DC039B2A
:101DB00001330393039B9342F9DD05B05DF804FB07
:101DC000000048420000AE424F97310010B5214854
:101DD00084B00A2406230146019301224FF07E536A
:101DE0000094FFF7EFFB042301931B4901224FF0FE
:101DF0007E5300941948FFF7E5FB0523019318492A
:101E000000224FF07E5300941648FFF7DBFB0223BD
:101E10000193154901224FF07C5300941348FFF7BA
:101E2000D1FB0323019300224FF07E53009410480E
:101E30001049FFF7C7FB00230393039B0E4A93420D
:101E400005DC039B01330393039B9342F9DD04B04C
:101E500010BD00BF0000DC420000A642000020438D
:101E60000000E041000018420000E0420000B842DB
:101E70000000F041000048424F97310000B50A22AF
:101E800089B002238DE80C00404800224FF07C53BB
:101E90003F49FFF797FB00230293029B3D4A934281
:101EA00005DC029B01330293029B9342F9DD0A2277
:101EB00003238DE80C00384801224FF07C5337494A
:101EC000FFF780FB00230393039B354A934205DC15
:101ED000039B01330393039B9342F9DD0A220423FE
:101EE0008DE80C002A4800224FF07C532D49FFF763
:101EF00069FB00230493049B294A934205DC049B5D
:101F000001330493049B9342F9DD0320FFF724FB84
:101F100000230593059B244A934205DC059B01336E
:101F20000593059B9342F9DD0A2204238DE80C00FA
:101F30001E4800224FF07C531549FFF743FB002356
:101F40000693069B164A934205DC069B01330693D3
:101F5000069B9342F9DD0F2203238DE80C00144801
:101F600000224FF07E530C49FFF72CFB0023079310
:101F7000079B104A934205DC079B01330793079B9D
:101F80009342F9DD09B05DF804FB00BF0000AA42EE
:101F90000000B8425F823B000000CE420000F041EA
:101FA0002FC11D00000020434F9731000000B042B8
:101FB000000096429F2E630010B50A2286B00223CD
:101FC0008DE80C00264800224FF07E532549FFF78C
:101FD000F9FA00230393039B234A934205DC039BF6
:101FE00001330393039B9342F9DD0A2204238DE816
:101FF0000C001E4800224FF07E531D49FFF7E2FA05
:1020000000230493049B1B4A934205DC049B013389
:102010000493049B9342F9DD0A2405230193164996
:1020200000224FF07E5300941448FFF7CBFA0323AD
:10203000019301224FF07E53009411481149FFF79C
:10204000C1FA00230593059B074A934205DC059BD3
:1020500001330593059B9342F9DD06B010BD00BF27
:10206000000054420000AA424F9731000000A042F5
:102070000000B0427F584F00000018420000C841E5
:102080000000AE420000964210B5032384B00A243B
:1020900001931A4900224FF07E5300941848FFF72D
:1020A00091FA04230193174901224FF07E530094C3
:1020B0001548FFF787FA05230193114901224FF0D4
:1020C0007E5300941148FFF77DFA02230193012209
:1020D0004FF07E5300940E480E49FFF773FA002329
:1020E0000393039B0C4A934205DC039B0133039348
:1020F000039B9342F9DD04B010BD00BF0000AE4267
:102100000000F0410000A0420000204300001842FF
:102110000000B842000054424F97310000B50A2237
:1021200089B002238DE80C00404800224FF07E5316
:102130003F49FFF747FA00230293029B3D4A93422F
:1021400005DC029B01330293029B9342F9DD0A22D4
:1021500004238DE80C00384800224FF07C533749A7
:10216000FFF730FA00230393039B354A934205DCC3
:10217000039B01330393039B9342F9DD0A2203235C
:102180008DE80C002F4801224FF07E532E49FFF7B7
:1021900019FA00230493049B264A934205DC049B0E
:1021A00001330493049B9342F9DD0320FFF7D4F934
:1021B00000230593059B1F4A934205DC059B0133D1
:1021C0000593059B9342F9DD0A2204238DE80C0058
:1021D0001E4800224FF07C531749FFF7F3F9002304
:1021E0000693069B134A934205DC069B0133069334
:1021F000069B9342F9DD0A2203238DE80C00144864
:1022000000224FF07E530F49FFF7DCF900230793BC
:10221000079B104A934205DC079B01330793079BFA
:102220009342F9DD09B05DF804FB00BF00005442A1
:102230000000B8424F97310000009D42000020434B
:102240001FD613000000B4420000F0410000964287
:1022500000008C429F2E630000B50A2287B0022343
:102260008DE80C002D4801224FF07E532C49FFF7DA
:10227000A9F900230293029B2A4A934205DC029BA0
:1022800001330293029B9342F9DD0A2205238DE874
:102290000C00254801224FF07E532449FFF792F9A4
:1022A00000230393039B224A934205DC039B0133E3
:1022B0000393039B9342F9DD0A2204238DE80C006B
:1022C0001C4800224FF07E531B49FFF77BF9002387
:1022D0000493049B194A934205DC049B0133049345
:1022E000049B9342F9DD0A2203238DE80C00144875
:1022F00001224FF07E530F49FFF764F90023059345
:10230000059B104A934205DC059B01330593059B11
:102310009342F9DD07B05DF804FB00BF0000B44252
:10232000000054429F2E630000005C4200001842EF
:102330001FD6130000008C42000096426F6D4500CE
:102340000000A8424F97310000B50A2285B0032350
:102350008DE80C00164801224FF07E531549FFF717
:1023600031F900230293029B134A934205DC029B3E
:1023700001330293029B9342F9DD052202238DE88B
:102380000C000E4801224FF07C530D49FFF71AF95B
:1023900000230393039B0B4A934205DC039B013309
:1023A0000393039B9342F9DD05B05DF804FB00BF86
:1023B0000000AE420000A8424F9731000000B64234
:1023C0000000B4421FD6130010B5052386B00A24BE
:1023D0000193274900224FF07E5300942548FFF7D0
:1023E000F1F80423019301224FF07E530094224818
:1023F0002249FFF7E7F800230393039B204A934207
:1024000005DC039B01330393039B9342F9DD0A220E
:1024100003238DE80C001B4800224FF07E531A491D
:10242000FFF7D0F800230493049B154A934205DC80
:10243000049B01330493049B9342F9DD0A22022397
:102440008DE80C00114801224FF07E531049FFF730
:10245000B9F800230593059B0E4A934205DC059BC2
:1024600001330593059B9342F9DD06B010BD00BF13
:1024700000005C420000184200002043000092422D
:102480004F9731000000F0410000AE420000B8421A
:102490000000B6429F2E630000B50A2287B00423D5
:1024A0008DE80C00304901224FF07C532F48FFF794
:1024B00089F805230093019301224FF07E532C48A5
:1024C0002C49FFF77FF800230293029B2A4A93428C
:1024D00005DC029B01330293029B9342F9DD052345
:1024E0000093019300224FF07E5324482049FFF7C8
:1024F00069F800230393039B214A934205DC039B65
:1025000001330393039B9342F9DD05230093019369
:1025100001224FF07E5316481849FFF753F8002365
:102520000493049B164A934205DC049B01330493F5
:10253000049B9342F9DD05230093019300224FF0A1
:102540007E530C480A49FFF73DF800230593059B8D
:10255000094A934205DC059B01330593059B934291
:10256000F9DD07B05DF804FB000096420000E6428A
:1025700000003443000018425F823B000000A0408E
:102580004F97310000B50A228BB005238DE80C006F
:102590004B4800224FF07E534A49FFF713F80023BF
:1025A0000393039B484A934205DC039B0133039347
:1025B000039B9342F9DD0A2204238DE80C00434873
:1025C00000224FF07E534249FEF7FCFF00230493A4
:1025D000049B404A934205DC049B01330493049B13
:1025E0009342F9DD0A2203238DE80C003A480122C8
:1025F0004FF07E533949FEF7E5FF00230593059B15
:10260000374A934205DC059B01330593059B9342B2
:10261000F9DD0A2204238DE80C00324800224FF035
:102620007E532A49FEF7CEFF00230693069B264AD7
:10263000934205DC069B01330693069B9342F9DD2A
:102640000220FEF789FF00230793079B1E4A93424F
:1026500005DC079B01330793079B9342F9DD0A22B0
:1026600003238DE80C00204800224FF07E531A49C6
:10267000FEF7A8FF00230893089B164A934205DC47
:10268000089B01330893089B9342F9DD15480A2201
:1026900004238DE80C00014601224FF07E53FEF723
:1026A00091FF00230993099B074A934205DC099B8C
:1026B00001330993099B9342F9DD0BB05DF804FBEC
:1026C0000000F041000018424F9731000000B44272
:1026D0000000E6429F2E63000000AA420000704204
:1026E000EFC594000000A6420000484200B50A224F
:1026F00087B004238DE80C00304901224FF07E534F
:102700002F48FEF75FFF05230093019301224FF04E
:102710007E532C482C49FEF755FF00230293029B61
:102720002A4A934205DC029B01330293029B9342A7
:10273000F9DD05230093019300224FF07E532448D6
:102740002049FEF73FFF00230393039B214A934256
:1027500005DC039B01330393039B9342F9DD0523BF
:102760000093019301224FF07E5316481849FEF75B
:1027700029FF00230493049B164A934205DC049B23
:1027800001330493049B9342F9DD052300930193E5
:1027900000224FF07E530C480A49FEF713FF002336
:1027A0000593059B094A934205DC059B013305937C
:1027B000059B9342F9DD07B05DF804FB0000B042D1
:1027C0000000F04200003443000018425F823B00EA
:1027D0000000A0404F97310000B50A2289B00423C1
:1027E0008DE80C00344800224FF07E533349FEF749
:1027F000E9FE00230393039B314A934205DC039BCC
:1028000001330393039B9342F9DD0F2203238DE8E9
:102810000C002C4801224FF07E532B49FEF7D2FECC
:1028200000230493049B294A934205DC049B013353
:102830000493049B9342F9DD0220FEF78DFE0023F2
:102840000593059B1E4A934205DC059B01330593C6
:10285000059B9342F9DD0A2203238DE80C001C48F6
:1028600001224FF07E531749FEF7ACFE002306937A
:10287000069B134A934205DC069B01330693069B95
:102880009342F9DD052202238DE80C001148012254
:102890004FF07C530B49FEF795FE00230793079BEF
:1028A0000D4A934205DC079B01330793079B934234
:1028B000F9DD09B05DF804FB0000B2420000F0420F
:1028C0004F9731000000AA42000096429F2E6300FD
:1028D0000000B0420000AC421FD6130010B5042324
:1028E00084B00A240193104901224FF07E530094D2
:1028F0000E48FEF767FE0323019300224FF07E533C
:1029000000940B480B49FEF75DFE00230393039BE5
:10291000094A934205DC039B01330393039B9342D3
:10292000F9DD04B010BD00BF0000B242000020433A
:102930000000F0410000B0424F97310030B596489A
:102940008DB00621FEF778FD0524042301939349F9
:1029500000224FF07E5300949148FEF733FE02258B
:102960000A238DE828008F4901224FF07E538E48BC
:10297000FEF728FE01224FF07E538C49009401940B
:102980008B48FEF71FFE2846FEF7E6FD0023039363
:10299000039B884A934205DC039B01330393039B0B
:1029A0009342F9DD0A2202238DE80C007E490122C0
:1029B0004FF07E537948FEF705FE082203238DE889
:1029C0000C007D4901224FF07E537C48FEF7FAFD52
:1029D000052204238DE80C00794801224FF07E5334
:1029E0006F49FEF7EFFD00230493049B714A934265
:1029F00005DC049B01330493049B9342F9DD03201F
:102A0000FEF7AAFD05230093019301224FF07E53A8
:102A100000206749FEF7D6FD00230593059B654A14
:102A2000934205DC059B01330593059B9342F9DD39
:102A300005230093019300224FF07E535C48002150
:102A4000FEF7C0FD00230693069B5A4A934205DC1D
:102A5000069B01330693069B9342F9DD082203236C
:102A60008DE80C00554900224FF07E535248FEF786
:102A7000A9FD052204238DE80C00514900224FF0E6
:102A80007E535048FEF79EFD0220FEF765FD0023B1
:102A90000793079B474A934205DC079B0133079343
:102AA000079B9342F9DD0A2202238DE80C000020E7
:102AB00000224FF07E533949FEF784FD002308932E
:102AC000089B3C4A934205DC089B01330893089B12
:102AD0009342F9DD0320FEF73FFD052300930193A8
:102AE00001224FF07E5332480021FEF76BFD002398
:102AF0000993099B2F4A934205DC099B01330993F3
:102B0000099B9342F9DD05230093019300224FF0C6
:102B10007E5300202649FEF755FD00230A930A9BA9
:102B2000244A934205DC0A9B01330A930A9B934291
:102B3000F9DD0220FEF710FD05240423019321494D
:102B400001224FF07E5300941448FEF73BFD002114
:102B500000224FF07E53009401941448FEF732FD9A
:102B60000A2202238DE80C00002101224FF07E533F
:102B70000C48FEF727FDFEF7CDFC00230B930B9BC3
:102B8000114A934205DC0B9B01330B930B9B934241
:102B9000F9DD0DB030BD00BF0000DC420000204375
:102BA000000048420000B8420000C842000018423D
:102BB00000003E431FD613000000F0410000A04279
:102BC0000000F042000016439F2E630000B589B05C
:102BD000FEF7A0FC0220FEF7BFFC00230193019B3F
:102BE000314A934205DC019B01330193019B9342DF
:102BF000F9DDFEF721FE00230293029B2A4A93424D
:102C000005DC029B01330293029B9342F9DDFEF740
:102C1000A3FE00230393039B244A934205DC039BFA
:102C200001330393039B9342F9DD0220FEF794FCEA
:102C300000230493049B1D4A934205DC049B01334B
:102C40000493049B9342F9DDFEF7DEFEFEF718FFC6
:102C500000230593059B164A934205DC059B01332F
:102C60000593059B9342F9DDFEF754FC0023069380
:102C7000069B0D4A934205DC069B01330693069B97
:102C80009342F9DDFEF746FC00230793079B074AB2
:102C9000934205DC079B01330793079B9342F9DDC1
:102CA00009B05DF804FB00BF4F9731009F2E630011
:102CB0001FD6130000B589B0FEF72CFC0220FEF7EA
:102CC0004BFC00230193019B314A934205DC019B9D
:102CD00001330193019B9342F9DDFEF727FF0023A7
:102CE0000293029B2B4A934205DC029B0133029321
:102CF000029B9342F9DDFEF7B9FF00230393039B88
:102D0000234A934205DC039B01330393039B9342C5
:102D1000F9DD0220FEF720FC00230493049B1C4AEB
:102D2000934205DC049B01330493049B9342F9DD39
:102D3000FFF72AF8FFF74AF800230593059B164A88
:102D4000934205DC059B01330593059B9342F9DD16
:102D5000FEF7E0FB00230693069B0E4A934205DC38
:102D6000069B01330693069B9342F9DDFEF7D2FBE7
:102D700000230793079B064A934205DC079B013318
:102D80000793079B9342F9DD09B05DF804FB00BF90
:102D90009F2E63004F9731001FD6130000B502200D
:102DA00087B0FEF7D9FBFFF769F800230193019B79
:102DB000224A934205DC019B01330193019B93421C
:102DC000F9DDFFF7F9F800230293029B1B4A9342B7
:102DD00005DC029B01330293029B9342F9DD022042
:102DE000FEF7BAFB00230393039B144A934205DCCE
:102DF000039B01330393039B9342F9DDFFF744F9EF
:102E000000230493049B0D4A934205DC049B013389
:102E10000493049B9342F9DDFEF77CFB00230593AA
:102E2000059B074A934205DC059B01330593059BEF
:102E30009342F9DD07B05DF804FB00BF4F97310006
:102E40009F2E630000B5022087B0FEF785FBFFF7D9
:102E500065F900230093009B294A934205DC009BFF
:102E600001330093009B9342F9DDFFF7F5F900234E
:102E70000193019B224A934205DC019B013301939C
:102E8000019B9342F9DD0220FEF766FB00230293CB
:102E9000029B1C4A934205DC029B01330293029B76
:102EA0009342F9DDFFF750FA00230393039B144A82
:102EB000934205DC039B01330393039B9342F9DDAB
:102EC000FFF782FA00230493049B0D4A934205DC2A
:102ED000049B01330493049B9342F9DDFEF71AFB34
:102EE00000230593059B074A934205DC059B0133AC
:102EF0000593059B9342F9DD07B05DF804FB00BF25
:102F00004F9731009F2E630000B5022087B0FEF777
:102F100023FBFEF791FC00230193019B214A93427E
:102F200005DC019B01330193019B9342F9DDFFF71F
:102F3000B3FA00230293029B1B4A934205DC029BD7
:102F400001330293029B9342F9DDFFF71BFB002341
:102F50000393039B134A934205DC039B01330393C2
:102F6000039B9342F9DDFEF731FF00230493049B9A
:102F70000C4A934205DC049B01330493049B934267
:102F8000F9DDFEF7C7FA00230593059B054A934236
:102F900005DC059B01330593059B9342F9DD07B0E2
:102FA0005DF804FB9F2E63004F97310000B50220AF
:102FB00085B0FEF7D1FAFEF761FF00230093009B76
:102FC0001B4A934205DC009B01330093009B934214
:102FD000F9DDFFF78BFB00230193019B154A934218
:102FE00005DC019B01330193019B9342F9DDFFF75F
:102FF000F3FB00230293029B0D4A934205DC029BE4
:1030000001330293029B9342F9DDFFF767FCFEF761
:1030100081FA00230393039B054A934205DC039B3B
:1030200001330393039B9342F9DD05B05DF804FB84
:103030009F2E63004F9731002DE9F04131228CB073
:1030400040F28F139E484FF0A041FDF7EDFF9D48E1
:103050000621FEF7F1F99C480421FEF7EDF99B48A3
:103060000521FEF7E9F99A480221FEF7E5F99948AA
:103070000321FEF7E1F900230093009A964B9A4250
:1030800005DC009A01320092009A9A42F9DD9348D9
:103090000621FEF7D1F992480421FEF7CDF99148B7
:1030A0000521FEF7C9F990480221FEF7C5F98748C6
:1030B0000321FEF7C1F900230193019A864B9A423E
:1030C00005DC019A01320192019A9A42F9DD8348A6
:1030D0000621FEF7B1F982480421FEF7ADF98148D7
:1030E0000521FEF7A9F980480221FEF7A5F97748E6
:1030F0000321FEF7A1F900230293029A764B9A422C
:1031000005DC029A01320292029A9A42F9DD002607
:103110000123764876492522049605960696079659
:10312000089609960A960B96FDF7B6FE6F48714908
:103130000422FDF7E5FEFEF7DFF86F486F49022233
:10314000FEF704F831466C480522FEF741F86C4D55
:10315000694801210522FEF73BF805226648022155
:10316000FEF736F829686448FEF73CF86549664B77
:103170004FF48040DFF898811B68C1F88000D8F8D0
:103180004870624A03EB83034FF0402E27F0400C57
:103190005B000127C8F848C0CEF85460C2F88061CF
:1031A000C2F88861C2F88461CEF81070C1F880015D
:1031B000CEF80430C2F88071C2F8887108604E48B9
:1031C0002968FEF70FF84948FDF7DCFE00B38CB123
:1031D0009DF81030412B22D0422B2AD0432B32D0E5
:1031E000442B3AD0452B42D0472B4AD0492B52D0C2
:1031F0004A2B5AD04FF6E75200230393039B934286
:10320000DDDC039B01330393039B9342F9DDD6E797
:10321000364804A92022FDF789FE0446D7E700239B
:10322000354801218DF81030FDF7DCFFFFF7CEFCAB
:10323000E0E70023304801218DF81030FDF7D2FF80
:10324000FFF738FDD6E700232B4801218DF8103019
:10325000FDF7C8FFFFF7A2FDCCE7002326480121B8
:103260008DF81030FDF7BEFFFFF7ECFDC2E72248F6
:103270000121FDF7B7FF00238DF81030FFF744FE62
:10328000B8E700231C4801218DF81030FDF7AAFF94
:10329000FFF78CFEAEE718480021FDF7A3FF0023DF
:1032A0008DF81030FFF74AFBA4E7002312480121F4
:1032B0008DF81030FDF796FFFEF7E2F99AE700BFB0
:1032C000D40500200000C842000002430000F04185
:1032D0000000B44200000C424F9731000000DC4275
:1032E00000002043000018420000B842CC05002036
:1032F0000020005024000020C405002000100030F1
:103300002000002000E100E014000020000008423E
:103310000080034081F0004102E000BF83F00043E1
:1033200030B54FEA41044FEA430594EA050F08BF60
:1033300090EA020F1FBF54EA000C55EA020C7FEA24
:10334000645C7FEA655C00F0E2804FEA5454D4EBA1
:103350005555B8BF6D420CDD2C4480EA020281EA6B
:10336000030382EA000083EA010180EA020281EAA3
:103370000303362D88BF30BD11F0004F4FEA0131F5
:103380004FF4801C4CEA113102D0404261EB410104
:1033900013F0004F4FEA03334CEA133302D052428A
:1033A00063EB430394EA050F00F0A780A4F1010446
:1033B000D5F1200E0DDB02FA0EFC22FA05F2801880
:1033C00041F1000103FA0EF2801843FA05F3594166
:1033D0000EE0A5F120050EF1200E012A03FA0EFCE5
:1033E00028BF4CF0020C43FA05F3C01851EBE3710F
:1033F00001F0004507D54FF0000EDCF1000C7EEB2C
:1034000000006EEB0101B1F5801F1BD3B1F5001F69
:103410000CD349085FEA30004FEA3C0C04F1010488
:103420004FEA445212F5800F80F09A80BCF1004FB1
:1034300008BF5FEA500C50F1000041EB045141EA33
:10344000050130BD5FEA4C0C404141EB010111F434
:10345000801FA4F10104E9D191F0000F04BF0146DF
:103460000020B1FA81F308BF2033A3F10B03B3F1BD
:1034700020020CDA0C3208DD02F1140CC2F10C024D
:1034800001FA0CF021FA02F10CE002F11402D8BFAB
:10349000C2F1200C01FA02F120FA0CFCDCBF41EA77
:1034A0000C019040E41AA2BF01EB0451294330BD46
:1034B0006FEA04041F3C1CDA0C340EDC04F1140423
:1034C000C4F1200220FA04F001FA02F340EA0300FA
:1034D00021FA04F345EA030130BDC4F10C04C4F140
:1034E000200220FA02F001FA04F340EA0300294620
:1034F00030BD21FA04F0294630BD94F0000F83F46A
:10350000801306BF81F480110134013D4EE77FEA4C
:10351000645C18BF7FEA655C29D094EA050F08BF98
:1035200090EA020F05D054EA000C04BF1946104679
:1035300030BD91EA030F1EBF0021002030BD5FEABD
:10354000545C05D14000494128BF41F0004130BDE5
:1035500014F580043CBF01F5801130BD01F0004539
:1035600045F0FE4141F470014FF0000030BD7FEAAC
:10357000645C1ABF194610467FEA655C1CBF0B46A7
:10358000024650EA013406BF52EA033591EA030FBE
:1035900041F4002130BD00BF90F0000F04BF0021B6
:1035A000704730B54FF4806404F132044FF00005E9
:1035B0004FF0000150E700BF90F0000F04BF002162
:1035C000704730B54FF4806404F1320410F00045C8
:1035D00048BF40424FF000013EE700BF42004FEAC3
:1035E000E2014FEA31014FEA02701FBF12F07F4340
:1035F00093F07F4F81F06051704792F0000F14BF3D
:1036000093F07F4F704730B54FF4607401F0004580
:1036100021F0004120E700BF50EA010208BF7047D7
:1036200030B54FF000050AE050EA010208BF7047CC
:1036300030B511F0004502D5404261EB41014FF435
:10364000806404F132045FEA915C3FF4DCAE4FF039
:1036500003025FEADC0C18BF03325FEADC0C18BF20
:10366000033202EBDC02C2F1200300FA03FC20FA71
:1036700002F001FA03FE40EA0E0021FA02F11444BE
:10368000C1E600BF70B54FF0FF0C4CF4E06C1CEAD3
:1036900011541DBF1CEA135594EA0C0F95EA0C0F48
:1036A00000F0DEF82C4481EA030621EA4C5123EABB
:1036B0004C5350EA013518BF52EA033541F48011EA
:1036C00043F4801338D0A0FB02CE4FF00005E1FB9D
:1036D00002E506F00042E0FB03E54FF00006E1FBE7
:1036E00003569CF0000F18BF4EF0010EA4F1FF042A
:1036F000B6F5007F64F5407404D25FEA4E0E6D416A
:1037000046EB060642EAC62141EA55514FEAC5207A
:1037100040EA5E504FEACE2EB4F1FD0C88BFBCF5F6
:10372000E06F1ED8BEF1004F08BF5FEA500E50F1A7
:10373000000041EB045170BD06F0004646EA01016D
:1037400040EA020081EA0301B4EB5C04C2BFD4EB9F
:103750000C0541EA045170BD41F480114FF0000E98
:10376000013C00F3AB8014F1360FDEBF002001F006
:10377000004170BDC4F10004203C35DA0C341BDC80
:1037800004F11404C4F1200500FA05F320FA04F052
:1037900001FA05F240EA020001F0004221F0004186
:1037A00010EBD37021FA04F642EB06015EEA430EF9
:1037B00008BF20EAD37070BDC4F10C04C4F1200529
:1037C00000FA04F320FA05F001FA04F240EA0200DC
:1037D00001F0004110EBD37041F100015EEA430EAD
:1037E00008BF20EAD37070BDC4F1200500FA05F2CD
:1037F0004EEA020E20FA04F301FA05F243EA02034C
:1038000021FA04F001F0004121FA04F220EA02005A
:1038100000EBD3705EEA430E08BF20EAD37070BDA0
:1038200094F0000F0FD101F00046400041EB010180
:1038300011F4801F08BF013CF7D041EA060195F062
:10384000000F18BF704703F00046520043EB03031C
:1038500013F4801F08BF013DF7D043EA0603704709
:1038600094EA0C0F0CEA135518BF95EA0C0F0CD014
:1038700050EA410618BF52EA4306D1D181EA03015A
:1038800001F000414FF0000070BD50EA410606BF54
:103890001046194652EA430619D094EA0C0F02D199
:1038A00050EA013613D195EA0C0F05D152EA0336DE
:1038B0001CBF104619460AD181EA030101F00041FC
:1038C00041F0FE4141F470014FF0000070BD41F045
:1038D000FE4141F4780170BD70B54FF0FF0C4CF41F
:1038E000E06C1CEA11541DBF1CEA135594EA0C0F3E
:1038F00095EA0C0F00F0A7F8A4EB050481EA030E8B
:1039000052EA03354FEA013100F088804FEA033371
:103910004FF0805545EA131343EA12634FEA02223F
:1039200045EA111545EA10654FEA00260EF0004100
:103930009D4208BF964244F1FD0404F5407402D252
:103940005B084FEA3202B61A65EB03055B084FEAE3
:1039500032024FF480104FF4002CB6EB020E75EBE0
:10396000030E22BFB61A754640EA0C005B084FEA08
:103970003202B6EB020E75EB030E22BFB61A754685
:1039800040EA5C005B084FEA3202B6EB020E75EBD0
:10399000030E22BFB61A754640EA9C005B084FEA48
:1039A0003202B6EB020E75EB030E22BFB61A754655
:1039B00040EADC0055EA060E18D04FEA051545EA44
:1039C00016754FEA06164FEAC30343EA52734FEAED
:1039D000C2025FEA1C1CC0D111F4801F0BD141EA66
:1039E00000014FF000004FF0004CB6E711F4801FCB
:1039F00004BF01430020B4F1FD0C88BFBCF5E06FAB
:103A00003FF6AFAEB5EB030C04BFB6EB020C5FEABA
:103A1000500C50F1000041EB045170BD0EF0004E0F
:103A20004EEA113114EB5C04C2BFD4EB0C0541EA41
:103A3000045170BD41F480114FF0000E013C90E63E
:103A400045EA060E8DE60CEA135594EA0C0F08BF02
:103A500095EA0C0F3FF43BAF94EA0C0F0AD150EA01
:103A600001347FF434AF95EA0C0F7FF425AF104694
:103A700019462CE795EA0C0F06D152EA03353FF4BC
:103A8000FDAE1046194622E750EA410618BF52EA39
:103A900043067FF4C5AE50EA41047FF40DAF52EA0D
:103AA00043057FF4EBAE12E74FEA4102B2F1E04387
:103AB00024BFB3F5001CDCF1FE5C0DD901F0004C15
:103AC0004FEAC0024CEA5070B2F1004F40EB830065
:103AD00008BF20F00100704711F0804F21D113F191
:103AE0003872BCBF01F00040704741F480114FEACA
:103AF0005252C2F11802C2F1200C10FA0CF320FA53
:103B000002F018BF40F001004FEAC1234FEAD3236F
:103B100003FA0CFC40EA0C0023FA02F34FEA4303D9
:103B2000CCE77FEA625307D150EA01331EBF4FF062
:103B3000FE4040F44000704701F0004040F0FE407D
:103B400040F40000704700BF80F0004002E000BF7A
:103B500081F0004142001FBF5FEA410392EA030F78
:103B60007FEA226C7FEA236C6AD04FEA1262D2EBC2
:103B70001363C1BFD218414048404140B8BF5B42C7
:103B8000192B88BF704710F0004F40F4000020F060
:103B90007F4018BF404211F0004F41F4000121F076
:103BA0007F4118BF494292EA030F3FD0A2F10102C0
:103BB00041FA03FC10EB0C00C3F1200301FA03F1FE
:103BC00000F0004302D5494260EB4000B0F5000F21
:103BD00013D3B0F1807F06D340084FEA310102F1E0
:103BE0000102FE2A51D2B1F1004F40EBC25008BF92
:103BF00020F0010040EA03007047490040EB00005C
:103C000010F4000FA2F10102EDD1B0FA80FCACF18A
:103C1000080CB2EB0C0200FA0CF0AABF00EBC25089
:103C200052421843BCBFD0401843704792F0000F77
:103C300081F4000106BF80F400000132013BB5E7CA
:103C40004FEA41037FEA226C18BF7FEA236C21D040
:103C500092EA030F04D092F0000F08BF08467047A5
:103C600090EA010F1CBF0020704712F07F4F04D173
:103C7000400028BF40F00040704712F100723CBF86
:103C800000F50000704700F0004343F0FE4040F4B0
:103C9000000070477FEA226216BF08467FEA23636E
:103CA0000146420206BF5FEA412390EA010F40F459
:103CB000800070474FF0000304E000BF10F00043A5
:103CC00048BF40425FEA000C08BF704743F096438C
:103CD00001464FF000001CE050EA010208BF7047A7
:103CE0004FF000030AE000BF50EA010208BF70472E
:103CF00011F0004302D5404261EB41015FEA010C43
:103D000002BF84460146002043F0B64308BFA3F13A
:103D10008053A3F50003BCFA8CF2083AA3EBC2531C
:103D200010DB01FA02FC634400FA02FCC2F120023B
:103D3000BCF1004F20FA02F243EB020008BF20F072
:103D40000100704702F1200201FA02FCC2F12002D8
:103D500050EA4C0021FA02F243EB020008BF20EACD
:103D6000DC7070474FF0FF3C06E000BF4FF0010CE5
:103D700002E000BF4FF0010C4DF804CD4FEA4002C5
:103D80004FEA41037FEA226C18BF7FEA236C11D00F
:103D900001B052EA530C18BF90EA010F58BFB2EBC2
:103DA000030088BFC81738BF6FEAE17018BF40F042
:103DB000010070477FEA226C02D15FEA402C05D1F6
:103DC0007FEA236CE4D15FEA412CE1D05DF8040B7B
:103DD000704700BF844608466146FFE70FB5FFF70E
:103DE000C9FF002848BF10F1000F0FBD4DF808EDC6
:103DF000FFF7F4FF0CBF012000205DF808FB00BFB7
:103E00004DF808EDFFF7EAFF34BF012000205DF810
:103E100008FB00BF4DF808EDFFF7E0FF94BF01205D
:103E200000205DF808FB00BF4DF808EDFFF7D2FF5A
:103E300094BF012000205DF808FB00BF4DF808ED9D
:103E4000FFF7C8FF34BF012000205DF808FB00BF6A
:103E50004FEA4002B2F1FE4F0FD34FF09E03B3EB97
:103E600012620DD94FEA002343F0004310F0004FD7
:103E700023FA02F018BF404270474FF0000070472D
:103E800012F1610F01D1420205D110F0004008BFCC
:103E90006FF0004070474FF00000704770B50F4E54
:103EA0000F4D761BB61018BF002405D0013455F80D
:103EB000043B9847A642F9D10A4E0B4D00F0E4F8B6
:103EC000761BB61018BF002406D0013455F8043B09
:103ED0009847A642F9D170BD70BD00BFA040000058
:103EE000A0400000A8400000A0400000024B13B119
:103EF000024800F005B87047000000000D3F0000C8
:103F0000014600200246034600F016B838B5084BBB
:103F1000084DED1AAC1018BFED1805D0013C55F84E
:103F2000043D9847002CF9D1BDE8384000F0B2B804
:103F3000A8400000AC4000002DE9F047254C0646A3
:103F400025688846D5F8484192469946C4B36068CA
:103F50001F2817DC411C76B104EB8003C3F888A04E
:103F6000D4F88851012282401543022EC4F88851AA
:103F7000C3F808911ED0831C6160002044F82380A0
:103F8000BDE8F087144B03B34FF4C870AFF3008063
:103F90000446D0B1D5F84831002784E88800384677
:103FA000C5F848410121C4F88871C4F88C71002E0D
:103FB000E1D0D1E7D4F88C311A43C4F88C21DAE788
:103FC00005F5A674C5F84841C1E74FF0FF30BDE8DC
:103FD000F08700BF844000000000000000000000E7
:103FE000140000001C000000240000002C00000051
:103FF000340000003C000000440000004C000000C1
:10400000540000005C000000640000006C00000030
:10401000740000007C000000840000008C000000A0
:104020000001020408102040800102040810204012
:1040300080000000000000001000000018000000D8
:1040400020000000280000003000000038000000C0
:104050004000000048000000500000005800000030
:1040600060000000680000007000000078000000A0
:10407000800000008800000000010001020203032C
:104080004300000028000020F8B500BFF8BC08BCC1
:104090009E467047F8B500BFF8BC08BC9E46704706
:1040A000ED3E0000E5040000C10400000000000037
:1040B00000000000003B5808C00E1602801D2C04B2
:1040C000003B5808003B5808003B5808003B580884
:1040D000020000004B0A0D00000000001403002045
:1040E0007C030020E403002000000000000000002A
:1040F00000000000000000000000000000000000C0
:1041000000000000000000000000000080400000EF
:10411000000000000000000000000000000000009F
:10412000000000000000000000000000000000008F
:10413000000000000000000000000000000000007F
:10414000000000000000000000000000000000006F
:10415000000000000000000000000000000000005F
:10416000000000000000000000000000000000004F
:10417000000000000000000000000000000000003F
:1041800001000000000000000E33CDAB34126DE6DC
:10419000ECDE05000B000000000000000000000045
:1041A000000000000000000000000000000000000F
:1041B00000000000000000000000000000000000FF
:1041C00000000000000000000000000000000000EF
:1041D00000000000000000000000000000000000DF
:040000030000019167
:00000001FF
