:1000000000000120910100007F0300008103000037
:100010008303000085030000870300000000000048
:100020000000000000000000000000008903000044
:100030008B030000000000008D0300008F03000010
:1000400091030000930300006D0C0000890C000078
:10005000990300009B0300009D0300009F03000024
:10006000A1030000A3030000A5030000A7030000F4
:10007000A9030000AB030000B1140000AF030000AF
:10008000B1030000B3030000B50300004106000007
:10009000B9030000BB030000BD030000BF03000064
:1000A000C1030000C3030000C5030000450D0000AC
:1000B000E50D0000CB030000CD030000CF030000DE
:1000C000D1030000D3030000D5030000591B00003A
:1000D000F9140000DB030000DD030000DF03000073
:1000E000E1030000E3030000E5030000E703000074
:1000F000E9030000EB030000ED030000EF03000044
:10010000F1030000F3030000F5030000F703000013
:10011000F9030000FB030000FD030000FF030000E3
:1001200001040000030400000504000007040000AF
:10013000090400000B0400000D0400000F0400007F
:10014000110400001304000015040000170400004F
:10015000190400001B0400001D0400001F0400001F
:1001600021040000230400002504000027040000EF
:10017000290400002B0400002D0400002F040000BF
:100180003104000033040000000000000000000003
:100190004FF0000BDFF8BE020068DFF8B612096806
:1001A00001F0030100F01C00142801D14BF0020BF8
:1001B000002901D04BF0010BBBF1000F05D0A7487F
:1001C000A749DFF8722200F09FF8A64880470BF09D
:1001D000020ABAF1000F0CD0DFF86E02DFF86E12DF
:1001E00002680B680FB44FF000024FF0FF0302608B
:1001F0000B609D489D4A9E4B022808D1DFF83E12B5
:100200000A60DFF842120A60DFF836120B6001283C
:1002100008D1DFF82E120A60DFF82A120A60DFF830
:100220001E120B609348002809D193489349944AC1
:1002300000F032F893489449944A00F02DF894481D
:100240009449954A00F028F894489549DFF8E6214A
:1002500000F05AF8BBF1000F12D092489249DFF833
:10026000DA2100F051F80BF0020ABAF1000F07D0C2
:100270000FBC02600B6000BFAFF30080AFF30080E3
:10028000DFF828020FF2030E00474FF000004FF096
:100290000001DFF81CF2FEE72DE9F841884225D085
:1002A000B2EB010200D5FEE740EA010313F00303BD
:1002B00002D000F01DF819E04FF000039046121133
:1002C000F7D09A421CBFF0C8F0C103F10103F8D186
:1002D00008F00F08B8F1000F08D004780C7000F196
:1002E000010001F10101B8F10108F6D1BDE8F88182
:1002F00008B54FF0000303780B7000F1010001F125
:100300000101013AF7D108BD884237D000F0030659
:10031000002E14D04FF00405A5EB06044FF008079B
:1003200007FB06F8914669FA08F9002C07D080F817
:10033000009069FA07F900F10100013CF5E74FF080
:1003400000060F46091A88460911914614461546BB
:10035000B14206D018BFA0E8340206F10106B1424E
:10036000F8D108F00F08B8F1000F07D002704FEA7B
:10037000322200F10100B8F10108F4E77047FEE70E
:10038000FEE7FEE7FEE7FEE7FEE7FEE7FEE7FEE745
:10039000FEE7FEE7FEE7FEE7FEE7FEE7FEE7FEE735
:1003A000FEE7FEE7FEE7FEE7FEE7FEE7FEE7FEE725
:1003B000FEE7FEE7FEE7FEE7FEE7FEE7FEE7FEE715
:1003C000FEE7FEE7FEE7FEE7FEE7FEE7FEE7FEE705
:1003D000FEE7FEE7FEE7FEE7FEE7FEE7FEE7FEE7F5
:1003E000FEE7FEE7FEE7FEE7FEE7FEE7FEE7FEE7E5
:1003F000FEE7FEE7FEE7FEE7FEE7FEE7FEE7FEE7D5
:10040000FEE7FEE7FEE7FEE7FEE7FEE7FEE7FEE7C4
:10041000FEE7FEE7FEE7FEE7FEE7FEE7FEE7FEE7B4
:10042000FEE7FEE7FEE7FEE7FEE7FEE7FEE7FEE7A4
:10043000FEE7FEE7704700000000A2A2A2A2008033
:100440000340088003401080034030800340348024
:1004500003403880034018080240000000F00020EC
:1004600000000120791300000000000000000000DF
:10047000010000000000000000000000000000007B
:1004800090010000C0040000C004000070410000A2
:1004900070410000000000205004002050040020A3
:1004A000E0050020E005002000F00020553F00009E
:1004B00051300000000000000000000000000000BB
:1004C00010B5054C237833B9044B13B10448AFF38E
:1004D00000800123237010BD5004002000000000A4
:1004E00040410000084B10B51BB108480849AFF364
:1004F00000800848036803B910BD074B002BFBD0F0
:10050000BDE81040184700BF000000004041000057
:10051000540400200000002000000000016070472B
:10052000006870470EB503FA01F303EA020301689D
:100530006FEA020201EA020141EA030101600EBD15
:10054000006800EA020020FA01F07047018070475D
:10055000008870470EB503FA01F303EA020301882D
:100560006FEA020201EA020141EA030101800EBDC5
:10057000008800EA020020FA01F07047017070471D
:10058000007870470EB503FA01F303EA020301781D
:100590006FEA020201EA020141EA030101700EBDA5
:1005A000007800EA020020FA01F0704730B4124CE3
:1005B00082B0236823F004032360636803F001031F
:1005C0000193019BABB181B1451E002201E08A423B
:1005D0000BD015F8013F01322361636803F001037A
:1005E0000193019B002BF2D11146084602B030BCAA
:1005F00070471946F9E700BF006001400B4B10B58A
:100600000B4C1988236889B233B10A4A106898479D
:10061000094A002313702360084B1A46196841F0F9
:10062000010119601368DB07FCD410BD8C040020A5
:100630008804002094040020780400200060014019
:10064000944AF8B553689468DBB21C40A0071DD4E7
:10065000E10700D4F8BD904E3378022B60D0052B13
:100660002FD0012B4ED08B4A8C4C936823F0010382
:10067000936023683BB18A4A002110689847894AF1
:1006800000231370236000233370F8BD1069824E7D
:1006900020F4FF43327823F07F039DB2C0B2052AD5
:1006A00000F2BB80DFE812F090009C009C00A400E8
:1006B00063004F007C4B1A68002A40F08E80E307ED
:1006C000C8D57A4C236883B9794B1B68002B00F09E
:1006D000D180784898472060236833B96D4A032158
:1006E000936823F001039360317023686F4C002BF3
:1006F00040F0B480674A0321936823F001039360BC
:100700003170F8BD6C4C23889BB2002B40F0928076
:10071000644B1B78002B9DD0BDE8F840FFF76EBFFF
:10072000624C2368002BF3D0624D21682868FFF7E4
:100730003DFF23689842DDD223682A681B1A1044C3
:1007400023602860F8BD002DB4D1554B534F1A6873
:100750003B6850702BB1104602219847514B3D60C9
:100760001D7000233370E2077FF574AF7BE7002D27
:100770002FD1524A4A4913880D689BB22B4413F873
:10078000013CF12B00F0A5804D49138809889BB2EC
:100790008B4206D217881388BFB201339BB2E8554B
:1007A00013801388454A9BB299427FF451AF3B4F67
:1007B00013883A6899B2002AD3D028469047394A1C
:1007C000002313703B60CCE7002DCCD0F12800F063
:1007D0009080354B1A68002AC5D01B68984737E7C8
:1007E000002D3FF435AF304B1A68002AF5D12FE7C2
:1007F000002DB8D0334B1B789842EAD12F4A002302
:1008000013801188264D13882F68013389B29BB25B
:100810000425138078543570A5E7204D2B68002BF4
:100820009FD01F4A0021106898471E4A002313706A
:100830002B6096E7244F21883D6889B22846FFF750
:10084000B5FE23889BB298421CD30022174B22800E
:100850001B68002B3AD002233370F8BD154D216878
:100860002868FFF7A3FE2A6823680244181A2A6042
:100870002060F8BD0B4B1B78002B3FF436AFFFF721
:10088000BDFE32E7238805441B1A9BB23D602380DE
:10089000F8BD00BF006001409804002088040020DB
:1008A00094040020780400207C04002090040020A0
:1008B0007004002084040020800400208C040020A8
:1008C0006C0400209904002074040020032333707A
:1008D000F8BD1188104F13888AB29BB23968A854AA
:1008E0001D4415F8010C00293FF43BAF3B689847C5
:1008F00037E70A4B00271F8019881A88084D0132F4
:1009000092B21A801B882D688AB29BB20421A85427
:100910003170EF5427E700BF7C0400208C040020D6
:10092000940400202C4A036890422DE9F04F1C6883
:10093000D3F81880D3F804C0D3F828E01F6B5E6B9F
:10094000DD692CD0254A26491346D1F84890DFF8B6
:1009500098A04FF0030B026080F804B049F480695E
:100960000820C1F84890CAF88001886C20F48060A3
:100970008864116821F00041116024F001021A60BE
:10098000C3F81880C3F804C01A6842F001021A6064
:10099000C3F828E01F635E63DD61BDE8F08F104A95
:1009A0001049936CDFF8409043F400734FF0020B52
:1009B0004FF0040A016080F804B09364C9F880A184
:1009C000D2F84890036829F4007090640A6822F015
:1009D00000420A60D1E700BF40050020001001403E
:1009E000008003400010004000E100E0026830B4E5
:1009F0009368DD053DD40369C568AB4210D28168B8
:100A0000194401E0AB420BD211F8014B01335461A0
:100A100094680361E405F5D5AB4201D230BC704760
:100A20009368DD0510D4C36985699D4224D9416965
:100A3000194401E0AB4207D211F8014B0133546174
:100A40009468C361E405F5D5436A002BE6D0C1691B
:100A500083699942E2D3906810F48070DED120233C
:100A600001E0013BDAD050619168C905F9D530BC8D
:100A70007047C5680369CFE7436A002BEBD1CDE728
:100A800010B590F8803082B0022B0CD0012B18D01A
:100A900003689A68520604D41A6900929A6852064A
:100AA000FAD502B010BD0446236803E01969626FED
:100AB00000911AB99A685106F8D5F2E70098904764
:100AC000F2E7026893685C06EBD4036BC16A1469B1
:100AD0008B42019404D2826A0199D154036B02685B
:100AE0009168013349060363F0D502B010BD00BF21
:100AF00070B5036882B01A6A044692071D460ED587
:100B000090F88020022A36D0012A9A6803D190E01A
:100B10001A6901929A685206FAD50222DA602A6AA4
:100B2000D60709D594F88020022A28D02046FFF75E
:100B30005DFF23680122DA602A6AD00648D42A6A57
:100B400051075CD42A6A12070BD5DA6A94F8801030
:100B500042F008020229DA625CD001297FD0082223
:100B6000DA602B6A9B060DD402B070BD1969626F02
:100B70000191002A59D19A685606F7D5CDE7A26FA0
:100B80005A61D7E72046FFF77BFF236A256B002BCE
:100B900063D023680022102162626261A261E26177
:100BA000D9609A6A0A439A62DA6A002642F00C0215
:100BB00026612046DA62FFF719FFE36F266313B15F
:100BC0002946A06A984723682022DA6002B070BDE7
:100BD0002046FFF755FF236A2BB1A06A216B984787
:100BE0002046FFF703FF236810219A6A012022F0B4
:100BF000100260629A62D9602A6A5107A2D5DA6A45
:100C0000204642F00402DA62FFF78CFE23680422D9
:100C1000DA6097E71A68A16F22F47F0222F47F421C
:100C200042F480721A60596199E7019890472368ED
:100C3000A1E750063FF571AF226BE16A1869914256
:100C4000019004D9A36A01999954226B2368996889
:100C5000013249062263F0D55FE72368A4E7002349
:100C600023612046FFF7C2FE236878E7684620F03C
:100C700007018D4601B50348FFF73AFFBDE8014083
:100C80008546704740050020684620F007018D46E4
:100C900001B50348FFF72CFFBDE8014085467047CA
:100CA000BC0400202DE9F041224CDFF894E02468D8
:100CB000214D4FEA840C0CEB04064FEA8608F7013D
:100CC00008F1402606F58036BE44CEF8043045448F
:100CD0007060B1606E68B2F5803F4FEA16464FEA29
:100CE00006466E601BD86B6892B214491A43002303
:100CF0006A600B616444104AA3001A445168E4011D
:100D000004F1844303F5201341F4E001012500249C
:100D10005160C3F8C051C3F8CC41BDE8F081074B26
:100D2000A2F5803201F5803100F580301A61D9607A
:100D30009860DFE7B8040020084001409C040020D0
:100D4000C0012842684620F007018D4679B5204849
:100D5000204A0368204C03EB8301890003F52875C2
:100D6000012644F825600A4451683344042B08BF27
:100D7000002321F4E00151600360184B1A697AB135
:100D80001748016804290CBF0021013101609868EF
:100D9000D9681B7DFFF786FFBDE87940854670471F
:100DA00002680C4902EB8202920011444A68084C26
:100DB00012F4E002F0D10A4D5968012022602A6045
:100DC00018700029E8D08847BDE87940854670470B
:100DD000B404002008400140000028429C04002088
:100DE000B8040020684620F007018D46244B31B539
:100DF0001B6813F4706F19D0224C23689900CA182D
:100E0000D20102F1844202F52012D2F808223AB14E
:100E10001D4A02205568107015B1A8472368990033
:100E20000B441A4ADB011A4453680BBB144B1B6872
:100E300013F4704F05D0144B04205A68187002B197
:100E40009047BDE83140124A12490123C2F8C83127
:100E50008546C2F8803AC2F84834C1F8803AC2F8F0
:100E6000C836C1F8843AC2F84839C1F8883A7047A0
:100E7000054B03205A681870002AD7D09047D5E751
:100E800000400140B40400209C04002008022842D5
:100E90000000284204002842F0B5044683B030B177
:100EA000072B1E4603D8B2F5005F154601D303B0E9
:100EB000F0BD0F4601F10800D1B2FFF75FFB05F46A
:100EC0007F4146EA511107F10C00FFF757FB2760FD
:100ED00007F11000FFF754FB82070CD5206804309F
:100EE000FFF74EFB23688DF8070003F11000FFF7B2
:100EF00047FB8307F2D40023237103B0F0BD00BF8A
:100F000098B191B18AB170B504460D468E1820682B
:100F10001030FFF735FBC307F9D515F8011B206822
:100F2000FFF72CFBB542F2D170BD7047F8B508B1A0
:100F300001B112B900252846F8BD044600681746DD
:100F400010300E46FFF71CFB2379820743EA0003AB
:100F50002371EFD5013E002501E0BD42EBD02068B2
:100F600001350430FFF70CFB06F8010F2068103044
:100F7000FFF706FB2379034323718307EDD428464B
:100F8000F8BD00BF034628B100790022C0F38200FB
:100F90001A717047FF20704738B5104B0829054675
:100FA0005C5C00680CD90C30FFF7EAFA2B6840EA69
:100FB0000401C9B203F10C00BDE83840FFF7DEBA06
:100FC0000830FFF7DDFA2B6840EA0401C9B203F1EB
:100FD0000800BDE83840FFF7D1BA00BFD840000094
:100FE00038B5104B082905465C5C00680CD90C30FC
:100FF000FFF7C6FA2B6820EA0401C9B203F10C001E
:10100000BDE83840FFF7BABA0830FFF7B9FA2B68E5
:1010100020EA0401C9B203F10800BDE83840FFF737
:10102000ADBA00BFD840000070B5044616461D4654
:10103000016001F108000021FFF7A0FA20680021FB
:101040000C30FFF79BFA31462068FFF767FA2068FB
:1010500029460430FFF762FA206800211030FFF7BC
:101060005DFA206800211830FFF758FA2068002147
:101070002030FFF753FA206800212830FFF74EFA9E
:10108000206800213030FFF749FA2068002138300D
:10109000FFF744FA206800214030FFF73FFA20684C
:1010A00000214830FFF73AFA206800215030FFF75E
:1010B00035FA206800215830FFF730FA2068002107
:1010C0006030FFF72BFA206800216830FFF726FA1E
:1010D000206800217030FFF721FA20680021783065
:1010E000FFF71CFA206800218030FFF717FA20680C
:1010F00000218830BDE87040FFF710BA4B1E0F2B5F
:1011000001D8FFF76DBF704770B54C1E0F2C04D887
:1011100022B9BDE87040FFF763BF70BD06460C46BC
:1011200015460B4A036852F8210000211844FFF7C6
:10113000F5F9084A336852F8240029461844FFF7A5
:10114000EDF930462146BDE87040FFF725BF00BFEE
:10115000EC4000009440000070B506460C46027159
:1011600001F180053160204600210434FFF706FAC2
:10117000AC42F8D13379012B21D00AD3022B07D10D
:1011800030684FF0FF318030BDE87040FFF7C6B9DE
:1011900070BD3068FF218030FFF7F0F93068FF2123
:1011A0008430FFF7EBF93068FF218830FFF7E6F96C
:1011B0003068FF218C30BDE87040FFF7DFB9306840
:1011C0004FF6FF718030FFF7C1F930684FF6FF71BD
:1011D000BDE870408430FFF7B9B900BF1F290B4646
:1011E00000D970470068114600EB8300FFF796B9FD
:1011F00038B503790446012B0D4621D008D3022BC4
:1012000005D1BDE838400068A030FFF787B938BD88
:101210000068C9B2A030FFF7B1F92068C5F3072113
:10122000A430FFF7ABF92068C5F30741A830FFF7FA
:10123000A5F92068290EAC30BDE83840FFF79EB90B
:10124000006889B2A030FFF781F92068290CA4302A
:10125000BDE83840FFF77AB9037970B5012B044631
:1012600024D009D3022B05D1BDE870400068A0301E
:10127000FFF756B9002070BD0068A030FFF768F98D
:1012800005462068A430FFF763F906462068A830B9
:10129000FFF75EF92368000440EA062403F1AC007E
:1012A000FFF756F92C4344EA006070BD0068A03097
:1012B000FFF74EF905462068A430FFF749F945EAE3
:1012C000004070BD1F29006800D9704710B500EBC1
:1012D00081042046FFF754F940F00801C9B22046C6
:1012E000BDE81040FFF74AB91F29006800D97047D0
:1012F00010B500EB81042046FFF742F920F0080109
:101300002046BDE81040FFF739B900BF38B5037972
:101310000124012B054604FA01F420D009D3022B45
:1013200006D100682146BDE838408030FFF7F6B8A6
:1013300038BD006821468030FFF720F92868210A6F
:101340008430FFF71BF92868210C8830FFF716F965
:101350002868210E8C30BDE83840FFF70FB90068CF
:1013600021468030FFF7F2F82868210C8430BDE870
:101370003840FFF7EBB800BF4FF602020C4BD3F832
:101380004C11914206D00B4A536943F400735361E8
:10139000FFF750B8D3F8982042F48072C3F8982031
:1013A000D3F8982022F08062C3F89820EBE700BFC2
:1013B0000080034000ED00E0F0B52E4B83B0D3F881
:1013C0009820510117D4D3F89820D2042ED56A461C
:1013D00029490868496803C2D3F89C2002A9C2F3CE
:1013E00082120A4412F8082C012A36D003D3DFF8FF
:1013F000BCE0224B09E0D3F85011214A11F0040F50
:10140000204B18BF1346DFF8A4E01F4F1F4E204D9E
:10141000204C2148214A2249CEF800303B603360FD
:101420002B6023600360116003B0F0BD1D4BDFF83B
:101430007CC0DFF854E0154F164E174D1748184C76
:10144000134A1949CCF80030CEF800303B603360C5
:101450002B600460116003B0F0BDDFF850E00A4F6C
:101460000A4E0B4D0B4C0C480C4A0D494FF40043EF
:10147000D2E700BF008003403041000040420F002F
:1014800080F0FA0240787D0114000020180000204E
:101490000C000020100000200400002008000020A4
:1014A000C00E1602003B5808801D2C041C000020B2
:1014B00010B50D4C2046FFF7CFFE02460B4B2046E1
:1014C0001A601A6882F007021A601968FFF790FE26
:1014D000074808490222FFF713FD4FF0402301227D
:1014E0001A61BFF34F8F10BDC405002020000020FB
:1014F000CC0500202400002008B51848184B4FF4F4
:1015000080420021C0F88811C3F880201548FFF7F9
:10151000EBFE14480521FFF76BFE13480121FFF78E
:10152000EDFD11480221FFF7E9FD0F480321FFF708
:10153000E5FD0D480421FFF7E1FD0B480521FFF70C
:10154000DDFD09480621FFF7D9FD07480721FFF710
:10155000D5FD05480821FFF7D1FDFEE70000084250
:1015600000E100E0C4050020D405002000000000D8
:10157000012910B50C460ED002290CD0032924D025
:10158000042908D0052932D006293ED0072902D0E7
:10159000082900D010BD02F07DF80022002301F0E0
:1015A0001BFF21A3D3E9002302F0C8F8264B002239
:1015B00001F012FF02F0D4FA02F0A6FC2146BDE8C9
:1015C000104002462148FFF79FBD02F063F8002259
:1015D0001F4B01F001FF0022002301F0FDFE14A3C8
:1015E000D3E9002302F0AAF800221A4BE0E702F048
:1015F00051F80022002301F0EFFE0FA3D3E90023EE
:1016000002F09CF80022144BD2E702F043F80022CB
:10161000002301F0E1FE0AA3D3E9002302F08EF8D3
:1016200000220E4BC4E700BF2A2A2A2A2A2A024097
:101630005A5A5A5A5A5A02404E4E4E4E4E4E024036
:10164000363636363636024000405940D405002042
:1016500000804440004058400080584000005940FD
:1016600010B50F480F4C0621FFF782FF0E480421EA
:10167000FFF77EFF20460521FFF77AFF0B48022186
:10168000FFF776FF00200321FFF772FF08480721CC
:10169000FFF76EFF2046BDE810400821FFF768BF46
:1016A00000008C420000C8420000A0420000B4428A
:1016B0000000824200B583B0A0B1012817D00228F3
:1016C0001AD0032813D000230193019B0D4A9342A3
:1016D00005DC019B01330193019B9342F9DD03B0CB
:1016E0005DF804FB08480621FFF742FFEBE70748D7
:1016F0000621FFF73DFFE6E705480621FFF738FF23
:10170000E1E700BF87F5040000008C420000DC42E6
:10171000000070422DE9F043012A83B0904605464F
:1017200089461E462AD02ABB0846294602F0D8FB25
:1017300000B341F664174C460A9B07FB03F72046AB
:101740000B99FFF715FFCDF80480019B9F4205DD43
:10175000019B01330193019B9F42F9DC31462046F6
:1017600002F052FA81462846494602F0AFFB08B122
:101770004C46E4E7204603B0BDE8F083084629461E
:1017800002F0A4FB0028F5D041F664174C460A9BF2
:101790004FF0000807FB03F720460B99FFF7E8FE20
:1017A000CDF80080009B9F4205DD009B0133009334
:1017B000009BBB42F9DB3146204602F027FA814606
:1017C0002846494602F08CFB0028D3D04C46E3E77C
:1017D00010B5314886B00A24022301460193012244
:1017E0004FF07E530094FFF795FF032301930122EE
:1017F0004FF07E53009429480021FFF78BFF002310
:101800000293029B264A934205DC029B013302931A
:10181000029B9342F9DD0A2204238DE80C001F4845
:1018200000224FF07E531F49FFF774FF00230393FC
:10183000039B1B4A934205DC039B01330393039BE9
:101840009342F9DD0A2208238DE80C001648002295
:101850004FF07E531549FFF75DFF00230493049B6F
:101860000F4A934205DC049B01330493049B93428B
:10187000F9DD0120FFF71EFF00230593059B084AB1
:10188000934205DC059B01330593059B9342F9DDEB
:10189000FFF7E6FE06B010BD0000B4420000204293
:1018A0009F2E63000000A042000070420000C8426A
:1018B00030B59B488DB00621FFF75AFE052404235E
:1018C0000193984900224FF07E5300949648FFF709
:1018D00021FF02250A238DE82800944901224FF0B8
:1018E0007E539348FFF716FF01224FF07E53904935
:1018F000009401948F48FFF70DFF2846FFF7DAFEAA
:1019000000230393039B8C4A934205DC039B013322
:101910000393039B9342F9DD0A2202238DE80C0016
:10192000834901224FF07E538448FFF7F3FE0822DB
:1019300003238DE80C00002101224FF07E537948EB
:10194000FFF7E8FE052204238DE80C007C48012205
:101950004FF07E537449FFF7DDFE00230493049B90
:10196000754A934205DC049B01330493049B934224
:10197000F9DD0320FFF79EFE05230093019300226B
:101980004FF07E5300206B49FFF7C4FE0023059300
:10199000059B694A934205DC059B01330593059B32
:1019A0009342F9DD05230093019301224FF07E530A
:1019B00060480021FFF7AEFE00230693069B5E4AB7
:1019C000934205DC069B01330693069B9342F9DDA7
:1019D000082203238DE80C00524900224FF07E5369
:1019E0005848FFF797FE052204238DE80C00544960
:1019F00001224FF07E534F48FFF78CFE0220FFF785
:101A000059FE00230793079B4B4A934205DC079B33
:101A100001330793079B9342F9DD0A2202238DE8E5
:101A20000C00002000224FF07E534749FFF772FE62
:101A300000230893089B404A934205DC089B01332E
:101A40000893089B9342F9DD0320FFF733FE05233B
:101A50000093019301224FF07E533C480021FFF791
:101A600059FE00230993099B334A934205DC099BE5
:101A700001330993099B9342F9DD052300930193F8
:101A800000224FF07E5300203049FFF743FE002331
:101A90000A930A9B284A934205DC0A9B01330A9366
:101AA0000A9B9342F9DD0220FFF704FE052404237C
:101AB0000193274900224FF07E5300941948FFF705
:101AC00029FE002101224FF07E5300940194184812
:101AD000FFF720FE0A2202238DE80C0000210122DC
:101AE0004FF07E531148FFF715FE082203238DE8BF
:101AF0000C00144901224FF07E530A48FFF70AFEFA
:101B0000FFF7AEFD00230B930B9B124A934205DCBB
:101B10000B9B01330B930B9B9342F9DD0DB030BD52
:101B20000000DC420000A042000048420000B44235
:101B30000000C842000016431FD6130000000C43EB
:101B40000000F0420000F041000020430000344358
:101B5000000002434F97310000B5164883B00021C2
:101B6000FFF7C2FB13480121FFF7BEFB1148042118
:101B7000FFF73EFB0F480021FFF7C8FB0D4801218E
:101B8000FFF7C4FB0B480021FFF79CFB094801212C
:101B9000FFF798FB084C0025FFF78AFE0195019B93
:101BA000A342F9DC019B01330193019BA342F9DDC0
:101BB000F2E700BFC40500207FBA8C0130B50325D1
:101BC00095B00624B04900224FF07E530095019451
:101BD000AE48FFF79FFD01224FF07E530095019420
:101BE000AB48AA49FFF796FD00230393039BA94A3C
:101BF000934205DC039B01330393039B9342F9DD7E
:101C0000032206238DE80C00A04800224FF07E53EB
:101C10009F49FFF77FFD00230493049B9D4A934255
:101C200005DC049B01330493049B9342F9DD0322FA
:101C300006238DE80C00944801224FF07E5393490F
:101C4000FFF768FD00230593059B924A934205DC4C
:101C5000059B01330593059B9342F9DD8E480821CE
:101C6000FFF786FC042403238DE818008B4900222B
:101C70004FF07E538A48FFF74DFD05238DE818008D
:101C800001224FF07E5387488549FFF743FD00232B
:101C90000693069B7F4A934205DC069B013306931D
:101CA000069B9342F9DD052204238DE80C007B4856
:101CB00000224FF07E537B49FFF72CFD0023079352
:101CC000079B744A934205DC079B01330793079BEC
:101CD0009342F9DD70480821FFF74AFC05240323ED
:101CE0008DE818006C4900224FF07E536E48FFF7D4
:101CF00011FD01224FF07E53009401946B48664918
:101D0000FFF708FD00230893089B624A934205DC15
:101D1000089B01330893089B9342F9DD0523009348
:101D2000019300224FF07E535B486049FFF7F2FCBD
:101D300000230993099B574A934205DC099B013311
:101D40000993099B9342F9DD53480521FFF710FCE5
:101D500000230A930A9B4F4A934205DC0A9B0133F6
:101D60000A930A9B9342F9DD4B480821FFF700FCD8
:101D7000022403238DE818004D4900224FF07E53C2
:101D80004C48FFF7C7FC0A238DE8180001224FF0EA
:101D90007E5349484749FFF7BDFC00230B930B9B3B
:101DA0003C4A934205DC0B9B01330B930B9B934204
:101DB000F9DD0A2202238DE80C003D4800224FF095
:101DC0007E533D49FFF7A6FC00230C930C9B314A40
:101DD000934205DC0C9B01330C930C9B9342F9DD81
:101DE00033480221FFF7C4FB00230D930D9B294AC2
:101DF000934205DC0D9B01330D930D9B9342F9DD5E
:101E000025480821FFF7B4FB082203238DE80C00C6
:101E1000224801224FF07E530021FFF77BFC002374
:101E20000E930E9B1B4A934205DC0E9B01330E93CF
:101E30000E9B9342F9DD082203238DE80C0000205D
:101E400000224FF07E531549FFF764FC00230F93E7
:101E50000F9B104A934205DC0F9B01330F930F9B9E
:101E60009342F9DD00200321FFF782FB002310934A
:101E7000109B084A934221DC109B01331093109B66
:101E80009342F9DD1AE000BF00008C4200002042BE
:101E90000000DC421FD613000000C8420000A04230
:101EA0000000F0410000F0420000484200002043E2
:101EB0000000B4420000204100002A4308230093A0
:101EC000019301224FF07E531A481B49FFF722FC71
:101ED00000231193119B194A934205DC119B013396
:101EE0001193119B9342F9DD0B2208238DE80C001E
:101EF000114800224FF07C530E49FFF70BFC0023E2
:101F00001293129B0D4A934205DC129B01331293EC
:101F1000129B9342F9DD00231393139B084A9342CB
:101F200005DC139B01331393139B9342F9DD15B02A
:101F300030BD00BF000020430000C8424F97310071
:101F40009F2E630010B59A4890B00A2402230146E0
:101F5000019301224FF07E530094FFF7DBFB032334
:101F6000019301224FF07E53009492480021FFF725
:101F7000D1FB00230393039B8F4A934205DC039B11
:101F800001330393039B9342F9DD0A2204238DE876
:101F90000C00884800224FF07E538849FFF7BAFBB7
:101FA00000230493049B844A934205DC049B013381
:101FB0000493049B9342F9DD0A2208238DE80C0068
:101FC0007F4800224FF07E537E49FFF7A3FB00239A
:101FD0000593059B784A934205DC059B01330593E5
:101FE000059B9342F9DD0120FFF764FB0023069374
:101FF000069B714A934205DC069B01330693069BC0
:102000009342F9DD0A24082301936D4901224FF020
:102010007E5300946948FFF77DFB03230193002260
:102020004FF07E53009468486249FFF773FB00232A
:102030000793079B604A934205DC079B0133079394
:10204000079B9342F9DD0A2202238DE80C005C48CD
:1020500000224FF07E535649FFF75CFB00230893A4
:10206000089B5A4A934205DC089B01330893089B5E
:102070009342F9DD0A2208238DE80C005048002223
:102080004FF07E534D49FFF745FB00230993099B11
:102090004E4A934205DC099B01330993099B934205
:1020A000F9DD0A2203238DE80C00424801224FF09B
:1020B0007E534549FFF72EFB00230A930A9B434AB0
:1020C000934205DC0A9B01330A930A9B9342F9DD94
:1020D0000220FFF7EFFA00230B930B9B364A934243
:1020E00005DC0B9B01330B930B9B9342F9DD002026
:1020F000FFF7E0FA0A2208238DE80C00314801229C
:102100004FF07E532E49FFF705FB00230C930C9BE9
:102110002E4A934205DC0C9B01330C930C9B93429B
:10212000F9DD0A2203238DE80C00002000224FF085
:102130007E532049FFF7EEFA00230D930D9B234AAF
:10214000934205DC0D9B01330D930D9B9342F9DD0A
:102150000A2202238DE80C00154801224FF07E531D
:102160001749FFF7D7FA00230E930E9B174A9342A5
:1021700005DC0E9B01330E930E9B9342F9DD0A2280
:1021800004238DE80C000D4801224FF07E530949CD
:10219000FFF7C0FA00230F930F9B0D4A934205DC13
:1021A0000F9B01330F930F9B9342F9DD10B010BDCD
:1021B0000000B442000020429F2E63000000A042B5
:1021C000000070420000C8420000F0414F9731000B
:1021D000DF8B290110B50A2290B002238DE80C0094
:1021E0009E4800224FF07E539D49FFF793FA00234B
:1021F0000293029B9B4A934205DC029B01330293AC
:10220000029B9342F9DD0A2204238DE80C009648D4
:1022100000224FF07E539549FFF77CFA0023039389
:10222000039B904A934205DC039B01330393039B7A
:102230009342F9DD0A2203238DE80C008A4801222B
:102240004FF07E530021FFF765FA00230493049BAF
:10225000844A934205DC049B01330493049B93421C
:10226000F9DD0A2208238DE80C007C4800224FF09B
:102270007E537F49FFF74EFA00230593059B7D4A65
:10228000934205DC059B01330593059B9342F9DDE1
:102290000120FFF70FFA00230693069B754A93422D
:1022A00005DC069B01330693069B9342F9DD0A2465
:1022B00008230193694901224FF07E5300946B4833
:1022C000FFF728FA0323019300224FF07E53009476
:1022D00069486549FFF71EFA00230793079B614A87
:1022E000934205DC079B01330793079B9342F9DD7B
:1022F0000A2202238DE80C00594801224FF07E5338
:102300005649FFF707FA00230893089B554A934262
:1023100005DC089B01330893089B9342F9DD0A22F0
:1023200008238DE80C004D4800224FF07E534F49A2
:10233000FFF7F0F900230993099B4A4A934205DC11
:10234000099B01330993099B9342F9DD0A22032378
:102350008DE80C00444801224FF07E534649FFF7B8
:10236000D9F900230A930A9B3E4A934205DC0A9B53
:1023700001330A930A9B9342F9DD0220FFF79AF991
:1023800000230B930B9B3B4A934205DC0B9B0133D1
:102390000B930B9B9342F9DD0020FFF78BF90A2288
:1023A00008238DE80C00324801224FF07E532B4960
:1023B000FFF7B0F900230C930C9B2A4A934205DCEB
:1023C0000C9B01330C930C9B9342F9DD0A220323EF
:1023D0008DE80C00002000224FF07E532249FFF7C9
:1023E00099F900230D930D9B1E4A934205DC0D9B2A
:1023F00001330D930D9B9342F9DD19480A22022304
:102400008DE80C00014601224FF07E53FFF782F960
:1024100000230E930E9B134A934205DC0E9B01335F
:102420000E930E9B9342F9DD0A2204238DE80C00E3
:102430000E4801224FF07E530B49FFF76BF9002342
:102440000F930F9B0D4A934205DC0F9B01330F93B3
:102450000F9B9342F9DD10B010BD00BF0000704229
:102460000000B4424F973100000020420000A0421B
:102470000000C8429F2E63000000F041DF8B29015D
:1024800010B50A2290B002238DE80C009E4800226D
:102490004FF07E539D49FFF73DF900230293029BC5
:1024A0009B4A934205DC029B01330293029B9342B9
:1024B000F9DD0A2204238DE80C00964801224FF032
:1024C0007E539549FFF726F900230393039B904A17
:1024D000934205DC039B01330393039B9342F9DD95
:1024E0000A2203238DE80C008C4801224FF07E5312
:1024F0000021FFF70FF900230493049B844A9342C1
:1025000005DC049B01330493049B9342F9DD0A220A
:1025100008238DE80C00824800224FF07E53814949
:10252000FFF7F8F800230593059B7F4A934205DCEB
:10253000059B01330593059B9342F9DD0120FFF7CD
:10254000B9F800230693069B774A934205DC069B65
:1025500001330693069B9342F9DD0A240823019375
:102560006F4901224FF07E5300946E48FFF7D2F876
:102570000323019300224FF07E5300946B48674978
:10258000FFF7C8F800230793079B614A934205DCD5
:10259000079B01330793079B9342F9DD0A2202232D
:1025A0008DE80C005F4801224FF07E535649FFF73B
:1025B000B1F800230893089B554A934205DC089B19
:1025C00001330893089B9342F9DD0A2208238DE822
:1025D0000C00514800224FF07E535249FFF79AF801
:1025E00000230993099B4A4A934205DC099B013366
:1025F0000993099B9342F9DD0A2203238DE80C001D
:102600004B4801224FF07E534849FFF783F80023DF
:102610000A930A9B3E4A934205DC0A9B01330A93C4
:102620000A9B9342F9DD0220FFF744F800230B9345
:102630000B9B3D4A934205DC0B9B01330B930B9B99
:102640009342F9DD0020FFF735F80A2208238DE8D0
:102650000C00344801224FF07E532F49FFF75AF8FF
:1026600000230C930C9B2A4A934205DC0C9B0133FC
:102670000C930C9B9342F9DD0A2203238DE80C0096
:10268000002000224FF07E532949FFF743F8002332
:102690000D930D9B1E4A934205DC0D9B01330D9358
:1026A0000D9B9342F9DD0A2202238DE80C001748A6
:1026B00000224FF07E531B49FFF72CF800230E93A6
:1026C0000E9B134A934205DC0E9B01330E930E9B27
:1026D0009342F9DD0A2204238DE80C000E48002203
:1026E0004FF07E530B49FFF715F800230F930F9B14
:1026F000104A934205DC0F9B01330F930F9B9342CB
:10270000F9DD10B010BD00BF00005C420000B44213
:102710004F9731000000AA420000A0420000704222
:1027200000008C420000C8429F2E63000000F04170
:1027300000002042DF8B290100B50A2293B002235A
:102740008DE80C00A54801224FF07E53A449FEF706
:10275000E1FF00230393039BA24A934205DC039B02
:1027600001330393039B9342F9DD0A2204238DE88E
:102770000C009D4801224FF07E539C49FEF7CAFF92
:1027800000230493049B974A934205DC049B013386
:102790000493049B9342F9DD0A2203238DE80C0085
:1027A000934801224FF07E530021FEF7B3FF002330
:1027B0000593059B8B4A934205DC059B01330593EA
:1027C000059B9342F9DD0A2208238DE80C00874817
:1027D00000224FF07E538149FEF79CFF00230693B1
:1027E000069B844A934205DC069B01330693069BB5
:1027F0009342F9DD0120FEF75DFF00230793079B5D
:102800007C4A934205DC079B01330793079B934265
:10281000F9DD0A2208238DE80C00704801224FF0F0
:102820007E537249FEF776FF00230893089B6D4A9A
:10283000934205DC089B01330893089B9342F9DD22
:102840000A2203238DE80C006B4800224FF07E53D0
:102850006749FEF75FFF00230993099B614A934292
:1028600005DC099B01330993099B9342F9DD0A2298
:1028700002238DE80C00614800224FF07E53574937
:10288000FEF748FF00230A930A9B564A934205DC51
:102890000A9B01330A930A9B9342F9DD0A22032320
:1028A0008DE80C00524801224FF07E535249FEF74A
:1028B00031FF00230B930B9B4A4A934205DC0B9B91
:1028C00001330B930B9B9342F9DD0A2208238DE819
:1028D0000C00464800224FF07E534049FEF71AFF95
:1028E00000230C930C9B3F4A934205DC0C9B013365
:1028F0000C930C9B9342F9DD0220FEF7DBFE0023D4
:102900000D930D9B3B4A934205DC0D9B01330D93C8
:102910000D9B9342F9DD0020FEF7CCFE0A2208232E
:102920008DE80C002D4801224FF07E532F49FEF711
:10293000F1FE00230E930E9B2E4A934205DC0E9B64
:1029400001330E930E9B9342F9DD0A2203238DE897
:102950000C00002000224FF07E532549FEF7DAFEDE
:1029600000230F930F9B1F4A934205DC0F9B0133FB
:102970000F930F9B9342F9DD0A2202238DE80C008E
:10298000174801224FF07E531C49FEF7C3FE002377
:102990001093109B134A934205DC109B0133109354
:1029A000109B9342F9DD0A2204238DE80C000F48A6
:1029B00000224FF07E530C49FEF7ACFE002311932A
:1029C000119B0F4A934205DC119B01331193119B1C
:1029D0009342F9DD13B05DF804FB00BF0000C8426C
:1029E0000000B4424F9731000000AA420000A0420C
:1029F000000020429F2E63000000F04100005C4276
:102A0000DF8B290110B5AE4892B00A24022301469B
:102A1000019301224FF07E530094FEF77BFE0323C7
:102A2000019301224FF07E530094A6480021FEF747
:102A300071FE00230393039BA34A934205DC039B8F
:102A400001330393039B9342F9DD0A2204238DE8AB
:102A50000C009C4800224FF07E539C49FEF75AFE22
:102A600000230493049B984A934205DC049B0133A2
:102A70000493049B9342F9DD0A2208238DE80C009D
:102A8000934800224FF07E539249FEF743FE002305
:102A90000593059B8C4A934205DC059B0133059306
:102AA000059B9342F9DD0120FEF704FE0023069307
:102AB000069B854A934205DC069B01330693069BE1
:102AC0009342F9DD0A2408230193814901224FF042
:102AD0007E5300947A48FEF71DFE032301930022E3
:102AE0004FF07E5300947C487649FEF713FE002396
:102AF0000793079B744A934205DC079B01330793B6
:102B0000079B9342F9DD0A2205238DE80C007348E8
:102B100000224FF07E536F49FEF7FCFD002308931F
:102B2000089B6F4A934205DC089B01330893089B7E
:102B30009342F9DD0A2205238DE80C006948012241
:102B40004FF07E536549FEF7E5FD00230993099B8D
:102B5000634A934205DC099B01330993099B934225
:102B6000F9DD0A2205238DE80C005C4800224FF0B5
:102B70007E535C49FEF7CEFD00230A930A9B584A18
:102B8000934205DC0A9B01330A930A9B9342F9DDC9
:102B90000A2205238DE80C004E4801224FF07E5397
:102BA0004E49FEF7B7FD00230B930B9B4C4A934213
:102BB00005DC0B9B01330B930B9B9342F9DD0A223F
:102BC00003238DE80C003F4801224FF07E53424919
:102BD000FEF7A0FD00230C930C9B414A934205DCB9
:102BE0000C9B01330C930C9B9342F9DD0A220823C2
:102BF0008DE80C00364800224FF07E533049FEF736
:102C000089FD00230D930D9B354A934205DC0D9BF6
:102C100001330D930D9B9342F9DD0220FEF74AFD2F
:102C200000230E930E9B2E4A934205DC0E9B01332C
:102C30000E930E9B9342F9DD0020FEF73BFD0A2226
:102C400008238DE80C00234801224FF07E532049D1
:102C5000FEF760FD00230F930F9B1B4A934205DC98
:102C60000F9B01330F930F9B9342F9DD0A2203233D
:102C70008DE80C00002000224FF07E531149FEF732
:102C800049FD00231093109B154A934205DC109BCD
:102C900001331093109B9342F9DD0A2204238DE83F
:102CA0000C000A4801224FF07E530649FEF732FD20
:102CB00000231193119B0C4A93421DDC16E000BFC8
:102CC0000000B442000020429F2E63000000A0429A
:102CD000000070420000C8420000A04100004842CD
:102CE0004F97310000002043DF8B2901119B0133F6
:102CF0001193119B9342F9DD12B010BD10B50A2259
:102D000094B002238DE80C00B04800224FF07E53AF
:102D1000AF49FEF7FFFC00230393039BAD4A9342A8
:102D200005DC039B01330393039B9342F9DD0A22E5
:102D300004238DE80C00A84801224FF07E53A749D8
:102D4000FEF7E8FC00230493049BA24A934205DCAF
:102D5000049B01330493049B9342F9DD0A2203236D
:102D60008DE80C009E4801224FF07E530021FEF7B3
:102D7000D1FC00230593059B964A934205DC059BF5
:102D800001330593059B9342F9DD0A2208238DE860
:102D90000C00944800224FF07E539349FEF7BAFC92
:102DA00000230693069B914A934205DC069B013360
:102DB0000693069B9342F9DD0120FEF77BFC00237E
:102DC0000793079B894A934205DC079B01330793CE
:102DD000079B9342F9DD0A240823019381490122CC
:102DE0004FF07E5300948048FEF794FC0323019338
:102DF00000224FF07E5300947D487949FEF78AFC0B
:102E000000230893089B734A934205DC089B013317
:102E10000893089B9342F9DD0A2205238DE80C00F4
:102E2000744800224FF07E536F49FEF773FC002375
:102E30000993099B674A934205DC099B0133099377
:102E4000099B9342F9DD0A2205238DE80C006A48AC
:102E500001224FF07E536749FEF75CFC00230A9382
:102E60000A9B5C4A934205DC0A9B01330A930A9B46
:102E70009342F9DD0A2205238DE80C005D4800220B
:102E80004FF07E535C49FEF745FC00230B930B9BF0
:102E9000504A934205DC0B9B01330B930B9B9342EF
:102EA000F9DD0A2205238DE80C004F4801224FF07E
:102EB0007E535049FEF72EFC00230C930C9B454A91
:102EC000934205DC0C9B01330C930C9B9342F9DD80
:102ED0000A2203238DE80C00414801224FF07E5363
:102EE0004349FEF717FC00230D930D9B394A93428B
:102EF00005DC0D9B01330D930D9B9342F9DD0A22F6
:102F000008238DE80C00374800224FF07E533649E5
:102F1000FEF700FC00230E930E9B2E4A934205DC25
:102F20000E9B01330E930E9B9342F9DD0220FEF7B8
:102F3000C1FB00230F930F9B264A934205DC0F9B96
:102F400001330F930F9B9342F9DD0020FEF7B2FB94
:102F50000A2208238DE80C00234801224FF07E53FB
:102F60002049FEF7D7FB00231093109B1F4A934282
:102F700005DC109B01331093109B9342F9DD0A226C
:102F800003238DE80C00002000224FF07E531449EB
:102F9000FEF7C0FB00231193119B0E4A934205DC00
:102FA000119B01331193119B9342F9DD0A220423F3
:102FB0008DE80C00094800224FF07E530649FEF7C9
:102FC000A9FB00231293129B18E000BF00005C4293
:102FD0000000B4424F9731000000AA420000A04216
:102FE0000000704200008C420000C8429F2E630027
:102FF0000000F0410000484200002043104A934284
:1030000005DC129B01331293129B9342F9DD0A22D5
:1030100002238DE80C000B4800224FF07E530A4932
:10302000FEF778FB00231393139B084A934205DCB9
:10303000139B01331393139B9342F9DD14B010BD1E
:103040004F9731000000B44200005C42DF8B290141
:103050002DE9F04104228EB040F69F73BD484FF039
:10306000A041FDF7E1FF00230193019ABA4B9A4278
:1030700005DC019A01320192019A9A42F9DDB748C2
:103080000621FEF775FAB6480421FEF771FAB54835
:103090000521FEF76DFAB4480221FEF769FA002017
:1030A0000321FEF765FAB1480721FEF761FAAD4842
:1030B0000821FEF75DFA00230293029AAC4B9A4274
:1030C00005DC029A01320292029A9A42F9DDA9487D
:1030D0000621FEF74DFAA8480421FEF749FAA74851
:1030E0000521FEF745FAA6480221FEF741FA4FF006
:1030F0007E500321FEF73CFAA2480721FEF738FA7A
:103100009E480821FEF734FA00230393039A984B54
:103110009A4205DC039A01320392039A9A42F9DD3E
:103120008E480621FEF724FA8D480421FEF720FA86
:103130008C480521FEF71CFA8B480221FEF718FA8D
:1031400000200321FEF714FA88480721FEF710FA41
:1031500084480821FEF70CFA00230493049A844B58
:103160009A4205DC049A01320492049A9A42F9DDEB
:10317000FEF72EFB00230593059A834B9A4205DC4C
:10318000059A01320592059A9A42F9DD002601233B
:103190007E487F49252206960796089609960A9644
:1031A0000B960C960D96FDF777FE7848794902222A
:1031B000FDF7A6FEFEF700F9774878490222FDF7F1
:1031C000CBFF314674480522FEF708F8744D72486B
:1031D00001210522FEF702F805226F480221FDF7C2
:1031E000FDFF29686C48FEF703F831466A48432220
:1031F000FDF7F4FF684801214322FDF7EFFF0522A8
:1032000065480221FDF7EAFF31466348FEF75AF8A8
:1032100061480121FEF756F8624B08204FF0100E6E
:1032200060275021604A5860DFF88481C3F804E0C9
:103230004FF4804083F8237383F824131168C3F894
:103240008000D8F84870594A4FF0402E27F0400CC3
:1032500001EB81010127C8F848C0CEF85460C2F8DC
:103260008061C2F88861C2F88461CEF81070C3F83A
:103270008001CEF80410C2F88071C2F8887118601D
:1032800045482968FDF7B4FF4048FDF77BFEE8B1EB
:10329000002CF5D09DF81830412B1ED0422B26D0A3
:1032A000432B2ED0442B36D0452B3ED0472B46D037
:1032B000492B7FD04A2BE3D10023374805218DF8D5
:1032C0001830FDF795FFFEF783FAD9E72F4806A9D6
:1032D0002022FDF72BFE0446DAE700232E480321C7
:1032E0008DF81830FDF784FFFEF72CFEC8E70023A9
:1032F000294803218DF81830FDF77AFFFEF76AFFA1
:10330000BEE70023244803218DF81830FDF770FF35
:10331000FFF7B6F8B4E700231F4803218DF81830F3
:10332000FDF766FFFFF708FAAAE71B480121FDF742
:103330005FFF00238DF81830FFF764FBA0E7002340
:10334000154801218DF81830FDF752FFFFF7D6FC24
:1033500096E700BFD40500201FD6130000008C4262
:103360000000A0420000C8420000B44200008242B7
:103370009F2E630000008E420000A2420000CA425D
:103380000000B642000084424F973100CC05002077
:103390000020005024000020C40500200010003050
:1033A0002000002000E100E014000020000008429E
:1033B0000080034004480621FDF71AFF00238DF822
:1033C0001830FEF7FBFB5BE7C405002081F00041ED
:1033D00002E000BF83F0004330B54FEA41044FEAFA
:1033E000430594EA050F08BF90EA020F1FBF54EA95
:1033F000000C55EA020C7FEA645C7FEA655C00F031
:10340000E2804FEA5454D4EB5555B8BF6D420CDD01
:103410002C4480EA020281EA030382EA000083EA84
:10342000010180EA020281EA0303362D88BF30BD24
:1034300011F0004F4FEA01314FF4801C4CEA11317A
:1034400002D0404261EB410113F0004F4FEA0333D9
:103450004CEA133302D0524263EB430394EA050F64
:1034600000F0A780A4F10104D5F1200E0DDB02FAD3
:103470000EFC22FA05F2801841F1000103FA0EF267
:10348000801843FA05F359410EE0A5F120050EF12D
:10349000200E012A03FA0EFC28BF4CF0020C43FA5E
:1034A00005F3C01851EBE37101F0004507D54FF06B
:1034B000000EDCF1000C7EEB00006EEB0101B1F5BB
:1034C000801F1BD3B1F5001F0CD349085FEA300001
:1034D0004FEA3C0C04F101044FEA445212F5800F0C
:1034E00080F09A80BCF1004F08BF5FEA500C50F1A9
:1034F000000041EB045141EA050130BD5FEA4C0C8C
:10350000404141EB010111F4801FA4F10104E9D114
:1035100091F0000F04BF01460020B1FA81F308BF0B
:103520002033A3F10B03B3F120020CDA0C3208DDD7
:1035300002F1140CC2F10C0201FA0CF021FA02F1B2
:103540000CE002F11402D8BFC2F1200C01FA02F122
:1035500020FA0CFCDCBF41EA0C019040E41AA2BF47
:1035600001EB0451294330BD6FEA04041F3C1CDA0F
:103570000C340EDC04F11404C4F1200220FA04F02F
:1035800001FA02F340EA030021FA04F345EA0301D9
:1035900030BDC4F10C04C4F1200220FA02F001FA9B
:1035A00004F340EA0300294630BD21FA04F029461D
:1035B00030BD94F0000F83F4801306BF81F48011B6
:1035C0000134013D4EE77FEA645C18BF7FEA655C29
:1035D00029D094EA050F08BF90EA020F05D054EAFB
:1035E000000C04BF1946104630BD91EA030F1EBF00
:1035F0000021002030BD5FEA545C05D14000494104
:1036000028BF41F0004130BD14F580043CBF01F5F6
:10361000801130BD01F0004545F0FE4141F47001DC
:103620004FF0000030BD7FEA645C1ABF19461046B7
:103630007FEA655C1CBF0B46024650EA013406BFB8
:1036400052EA033591EA030F41F4002130BD00BF77
:1036500090F0000F04BF0021704730B54FF4806434
:1036600004F132044FF000054FF0000150E700BFB5
:1036700090F0000F04BF0021704730B54FF4806414
:1036800004F1320410F0004548BF40424FF0000101
:103690003EE700BF42004FEAE2014FEA31014FEA44
:1036A00002701FBF12F07F4393F07F4F81F0605193
:1036B000704792F0000F14BF93F07F4F704730B502
:1036C0004FF4607401F0004521F0004120E700BF95
:1036D00050EA010208BF704730B54FF000050AE01C
:1036E00050EA010208BF704730B511F0004502D51D
:1036F000404261EB41014FF4806404F132045FEA1F
:10370000915C3FF4DCAE4FF003025FEADC0C18BFC3
:1037100003325FEADC0C18BF033202EBDC02C2F1B9
:10372000200300FA03FC20FA02F001FA03FE40EA4B
:103730000E0021FA02F11444C1E600BF70B54FF04B
:10374000FF0C4CF4E06C1CEA11541DBF1CEA13552D
:1037500094EA0C0F95EA0C0F00F0DEF82C4481EA95
:10376000030621EA4C5123EA4C5350EA013518BFB5
:1037700052EA033541F4801143F4801338D0A0FBA2
:1037800002CE4FF00005E1FB02E506F00042E0FB4F
:1037900003E54FF00006E1FB03569CF0000F18BF55
:1037A0004EF0010EA4F1FF04B6F5007F64F54074FD
:1037B00004D25FEA4E0E6D4146EB060642EAC62190
:1037C00041EA55514FEAC52040EA5E504FEACE2EFD
:1037D000B4F1FD0C88BFBCF5E06F1ED8BEF1004F00
:1037E00008BF5FEA500E50F1000041EB045170BD7C
:1037F00006F0004646EA010140EA020081EA0301C0
:10380000B4EB5C04C2BFD4EB0C0541EA045170BDBB
:1038100041F480114FF0000E013C00F3AB8014F135
:10382000360FDEBF002001F0004170BDC4F100047E
:10383000203C35DA0C341BDC04F11404C4F12005FF
:1038400000FA05F320FA04F001FA05F240EA02005A
:1038500001F0004221F0004110EBD37021FA04F690
:1038600042EB06015EEA430E08BF20EAD37070BD4A
:10387000C4F10C04C4F1200500FA04F320FA05F0A9
:1038800001FA04F240EA020001F0004110EBD370AB
:1038900041F100015EEA430E08BF20EAD37070BD1B
:1038A000C4F1200500FA05F24EEA020E20FA04F3F4
:1038B00001FA05F243EA020321FA04F001F00041A3
:1038C00021FA04F220EA020000EBD3705EEA430E14
:1038D00008BF20EAD37070BD94F0000F0FD101F043
:1038E0000046400041EB010111F4801F08BF013C7C
:1038F000F7D041EA060195F0000F18BF704703F0BA
:103900000046520043EB030313F4801F08BF013D40
:10391000F7D043EA0603704794EA0C0F0CEA1355FC
:1039200018BF95EA0C0F0CD050EA410618BF52EAB6
:103930004306D1D181EA030101F000414FF00000BC
:1039400070BD50EA410606BF1046194652EA4306CA
:1039500019D094EA0C0F02D150EA013613D195EA3E
:103960000C0F05D152EA03361CBF104619460AD186
:1039700081EA030101F0004141F0FE4141F4700190
:103980004FF0000070BD41F0FE4141F4780170BD80
:1039900070B54FF0FF0C4CF4E06C1CEA11541DBFE5
:1039A0001CEA135594EA0C0F95EA0C0F00F0A7F8E7
:1039B000A4EB050481EA030E52EA03354FEA013114
:1039C00000F088804FEA03334FF0805545EA131327
:1039D00043EA12634FEA022245EA111545EA1065EF
:1039E0004FEA00260EF000419D4208BF964244F186
:1039F000FD0404F5407402D25B084FEA3202B61AA5
:103A000065EB03055B084FEA32024FF480104FF478
:103A1000002CB6EB020E75EB030E22BFB61A7546EC
:103A200040EA0C005B084FEA3202B6EB020E75EB7F
:103A3000030E22BFB61A754640EA5C005B084FEAE7
:103A40003202B6EB020E75EB030E22BFB61A7546B4
:103A500040EA9C005B084FEA3202B6EB020E75EBBF
:103A6000030E22BFB61A754640EADC0055EA060E80
:103A700018D04FEA051545EA16754FEA06164FEAC3
:103A8000C30343EA52734FEAC2025FEA1C1CC0D16F
:103A900011F4801F0BD141EA00014FF000004FF0FC
:103AA000004CB6E711F4801F04BF01430020B4F1BD
:103AB000FD0C88BFBCF5E06F3FF6AFAEB5EB030C75
:103AC00004BFB6EB020C5FEA500C50F1000041EB72
:103AD000045170BD0EF0004E4EEA113114EB5C043F
:103AE000C2BFD4EB0C0541EA045170BD41F4801112
:103AF0004FF0000E013C90E645EA060E8DE60CEA1A
:103B0000135594EA0C0F08BF95EA0C0F3FF43BAF36
:103B100094EA0C0F0AD150EA01347FF434AF95EAED
:103B20000C0F7FF425AF104619462CE795EA0C0FD1
:103B300006D152EA03353FF4FDAE1046194622E79E
:103B400050EA410618BF52EA43067FF4C5AE50EA78
:103B500041047FF40DAF52EA43057FF4EBAE12E768
:103B60004FEA4102B2F1E04324BFB3F5001CDCF19F
:103B7000FE5C0DD901F0004C4FEAC0024CEA5070D7
:103B8000B2F1004F40EB830008BF20F00100704706
:103B900011F0804F21D113F13872BCBF01F0004009
:103BA000704741F480114FEA5252C2F11802C2F13B
:103BB000200C10FA0CF320FA02F018BF40F00100BC
:103BC0004FEAC1234FEAD32303FA0CFC40EA0C006E
:103BD00023FA02F34FEA4303CCE77FEA625307D1AB
:103BE00050EA01331EBF4FF0FE4040F440007047E2
:103BF00001F0004040F0FE4040F40000704700BF7C
:103C000080F0004002E000BF81F0004142001FBF91
:103C10005FEA410392EA030F7FEA226C7FEA236C9A
:103C20006AD04FEA1262D2EB1363C1BFD21841408F
:103C300048404140B8BF5B42192B88BF704710F025
:103C4000004F40F4000020F07F4018BF404211F0C8
:103C5000004F41F4000121F07F4118BF494292EA30
:103C6000030F3FD0A2F1010241FA03FC10EB0C005C
:103C7000C3F1200301FA03F100F0004302D54942E9
:103C800060EB4000B0F5000F13D3B0F1807F06D396
:103C900040084FEA310102F10102FE2A51D2B1F18E
:103CA000004F40EBC25008BF20F0010040EA030083
:103CB0007047490040EB000010F4000FA2F1010230
:103CC000EDD1B0FA80FCACF1080CB2EB0C0200FABA
:103CD0000CF0AABF00EBC25052421843BCBFD04008
:103CE0001843704792F0000F81F4000106BF80F482
:103CF00000000132013BB5E74FEA41037FEA226C45
:103D000018BF7FEA236C21D092EA030F04D092F00F
:103D1000000F08BF0846704790EA010F1CBF002043
:103D2000704712F07F4F04D1400028BF40F00040A0
:103D3000704712F100723CBF00F50000704700F0C0
:103D4000004343F0FE4040F4000070477FEA2262E7
:103D500016BF08467FEA23630146420206BF5FEAB8
:103D6000412390EA010F40F4800070474FF00003B8
:103D700004E000BF10F0004348BF40425FEA000C7F
:103D800008BF704743F0964301464FF000001CE027
:103D900050EA010208BF70474FF000030AE000BF7D
:103DA00050EA010208BF704711F0004302D54042BB
:103DB00061EB41015FEA010C02BF8446014600202D
:103DC00043F0B64308BFA3F18053A3F50003BCFA48
:103DD0008CF2083AA3EBC25310DB01FA02FC6344F5
:103DE00000FA02FCC2F12002BCF1004F20FA02F2FC
:103DF00043EB020008BF20F00100704702F12002EF
:103E000001FA02FCC2F1200250EA4C0021FA02F24F
:103E100043EB020008BF20EADC7070474FF0FF3C24
:103E200006E000BF4FF0010C02E000BF4FF0010CB4
:103E30004DF804CD4FEA40024FEA41037FEA226C7D
:103E400018BF7FEA236C11D001B052EA530C18BF9F
:103E500090EA010F58BFB2EB030088BFC81738BF04
:103E60006FEAE17018BF40F0010070477FEA226CF2
:103E700002D15FEA402C05D17FEA236CE4D15FEAEE
:103E8000412CE1D05DF8040B704700BF8446084622
:103E90006146FFE70FB5FFF7C9FF002848BF10F1E3
:103EA000000F0FBD4DF808EDFFF7F4FF0CBF012028
:103EB00000205DF808FB00BF4DF808EDFFF7EAFFB2
:103EC00034BF012000205DF808FB00BF4DF808ED6D
:103ED000FFF7E0FF94BF012000205DF808FB00BF62
:103EE0004DF808EDFFF7D2FF94BF012000205DF8E8
:103EF00008FB00BF4DF808EDFFF7C8FF34BF0120F5
:103F000000205DF808FB00BF4FEA4002B2F1FE4F0F
:103F10000FD34FF09E03B3EB12620DD94FEA00238B
:103F200043F0004310F0004F23FA02F018BF404264
:103F300070474FF00000704712F1610F01D142024B
:103F400005D110F0004008BF6FF0004070474FF0FF
:103F50000000704770B50F4E0F4D761BB61018BF9E
:103F6000002405D0013455F8043B9847A642F9D106
:103F70000A4E0B4D00F0E4F8761BB61018BF002473
:103F800006D0013455F8043B9847A642F9D170BDDC
:103F900070BD00BF58410000584100006041000062
:103FA00058410000024B13B1024800F005B87047B9
:103FB00000000000C53F0000014600200246034605
:103FC00000F016B838B5084B084DED1AAC1018BF04
:103FD000ED1805D0013C55F8043D9847002CF9D167
:103FE000BDE8384000F0B2B8604100006441000014
:103FF0002DE9F047254C064625688846D5F8484106
:1040000092469946C4B360681F2817DC411C76B1FC
:1040100004EB8003C3F888A0D4F8885101228240C1
:104020001543022EC4F88851C3F808911ED0831C92
:104030006160002044F82380BDE8F087144B03B38F
:104040004FF4C870AFF300800446D0B1D5F84831C2
:10405000002784E888003846C5F848410121C4F8A3
:104060008871C4F88C71002EE1D0D1E7D4F88C317E
:104070001A43C4F88C21DAE705F5A674C5F848415F
:10408000C1E74FF0FF30BDE8F08700BF3C410000C2
:104090000000000000000000140000001C000000F0
:1040A000240000002C000000340000003C00000050
:1040B000440000004C000000540000005C000000C0
:1040C000640000006C000000740000007C00000030
:1040D000840000008C000000000102040810204051
:1040E0008001020408102040800000000000000051
:1040F0001000000018000000200000002800000050
:1041000030000000380000004000000048000000BF
:10411000500000005800000060000000680000002F
:10412000700000007800000080000000880000009F
:1041300000010001020203034300000028000020E8
:10414000F8B500BFF8BC08BC9E467047F8B500BF84
:10415000F8BC08BC9E467047A53F0000E50400007F
:10416000C10400000000000000000000000000008A
:1041700000000000003B5808C00E1602801D2C04F1
:10418000003B5808003B5808003B5808003B5808C3
:10419000020000004B00000000000000140300209B
:1041A0007C030020E4030020000000000000000069
:1041B00000000000000000000000000000000000FF
:1041C0000000000000000000000000003841000076
:1041D00000000000000000000000000000000000DF
:1041E00000000000000000000000000000000000CF
:1041F00000000000000000000000000000000000BF
:1042000000000000000000000000000000000000AE
:10421000000000000000000000000000000000009E
:10422000000000000000000000000000000000008E
:10423000000000000000000000000000000000007E
:1042400001000000000000000E33CDAB34126DE61B
:10425000ECDE05000B000000000000000000000084
:10426000000000000000000000000000000000004E
:10427000000000000000000000000000000000003E
:10428000000000000000000000000000000000002E
:10429000000000000000000000000000000000001E
:040000030000019167
:00000001FF
