:020000042000DA
:1000000000000120910100207F03002081030020D7
:1000100083030020850300208703002000000000E8
:100020000000000000000000000000008903002024
:100030008B030020000000008D0300208F030020B0
:100040009103002093030020191000203910002094
:10005000990300209B0300209D0300209F030020A4
:10006000A1030020A3030020A5030020A703002074
:10007000A9030020AB03002095240020AF0300203B
:10008000B1030020B3030020B5030020AD0500201C
:10009000B9030020BB030020BD030020BF030020E4
:1000A000C1030020C3030020C5030020A5110020C8
:1000B00099120020CB030020CD030020CF030020A5
:1000C000D1030020D3030020D5030020DD2400202D
:1000D0002D250020DB030020DD030020DF030020AE
:1000E000E1030020E3030020E5030020E7030020F4
:1000F000E9030020EB030020ED030020EF030020C4
:10010000F1030020F3030020F5030020F703002093
:10011000F9030020FB030020FD030020FF03002063
:10012000010400200304002005040020070400202F
:10013000090400200B0400200D0400200F040020FF
:1001400011040020130400201504002017040020CF
:10015000190400201B0400201D0400201F0400209F
:10016000210400202304002025040020270400206F
:10017000290400202B0400202D0400202F0400203F
:1001800031040020330400200000000000000000C3
:100190004FF0000BDFF8BE020068DFF8B612096806
:1001A00001F0030100F01C00142801D14BF0020BF8
:1001B000002901D04BF0010BBBF1000F05D0A7487F
:1001C000A749DFF8722200F09FF8A64880470BF09D
:1001D000020ABAF1000F0CD0DFF86E02DFF86E12DF
:1001E00002680B680FB44FF000024FF0FF0302608B
:1001F0000B609D489D4A9E4B022808D1DFF83E12B5
:100200000A60DFF842120A60DFF836120B6001283C
:1002100008D1DFF82E120A60DFF82A120A60DFF830
:100220001E120B609348002809D193489349944AC1
:1002300000F032F893489449944A00F02DF894481D
:100240009449954A00F028F894489549DFF8E6214A
:1002500000F05AF8BBF1000F12D092489249DFF833
:10026000DA2100F051F80BF0020ABAF1000F07D0C2
:100270000FBC02600B6000BFAFF30080AFF30080E3
:10028000DFF828020FF2030E00474FF000004FF096
:100290000001DFF81CF2FEE72DE9F841884225D085
:1002A000B2EB010200D5FEE740EA010313F00303BD
:1002B00002D000F01DF819E04FF000039046121133
:1002C000F7D09A421CBFF0C8F0C103F10103F8D186
:1002D00008F00F08B8F1000F08D004780C7000F196
:1002E000010001F10101B8F10108F6D1BDE8F88182
:1002F00008B54FF0000303780B7000F1010001F125
:100300000101013AF7D108BD884237D000F0030659
:10031000002E14D04FF00405A5EB06044FF008079B
:1003200007FB06F8914669FA08F9002C07D080F817
:10033000009069FA07F900F10100013CF5E74FF080
:1003400000060F46091A88460911914614461546BB
:10035000B14206D018BFA0E8340206F10106B1424E
:10036000F8D108F00F08B8F1000F07D002704FEA7B
:10037000322200F10100B8F10108F4E77047FEE70E
:10038000FEE7FEE7FEE7FEE7FEE7FEE7FEE7FEE745
:10039000FEE7FEE7FEE7FEE7FEE7FEE7FEE7FEE735
:1003A000FEE7FEE7FEE7FEE7FEE7FEE7FEE7FEE725
:1003B000FEE7FEE7FEE7FEE7FEE7FEE7FEE7FEE715
:1003C000FEE7FEE7FEE7FEE7FEE7FEE7FEE7FEE705
:1003D000FEE7FEE7FEE7FEE7FEE7FEE7FEE7FEE7F5
:1003E000FEE7FEE7FEE7FEE7FEE7FEE7FEE7FEE7E5
:1003F000FEE7FEE7FEE7FEE7FEE7FEE7FEE7FEE7D5
:10040000FEE7FEE7FEE7FEE7FEE7FEE7FEE7FEE7C4
:10041000FEE7FEE7FEE7FEE7FEE7FEE7FEE7FEE7B4
:10042000FEE7FEE7FEE7FEE7FEE7FEE7FEE7FEE7A4
:10043000FEE7FEE7704700000000A2A2A2A2008033
:100440000340088003401080034030800340348024
:1004500003403880034018080240000000F00020EC
:1004600000000120551D00200000000000000000D9
:10047000010000000000000000000020000000203B
:1004800090010020C0040020C0040020C0480020CB
:10049000C0480020C0480020104D0020104D002012
:1004A000A04E0020A04E002000F00020A946002011
:1004B0005D2100200000000000000000000000009E
:1004C00010B5054C237833B9044B13B10448AFF38E
:1004D00000800123237010BD104D0020000000009B
:1004E00094480020084B10B51BB108480849AFF3E9
:1004F00000800848036803B910BD074B002BFBD0F0
:10050000BDE81040184700BF0000000094480020DC
:10051000144D0020C048002000000000016070471A
:10052000006870470EB503FA01F303EA020301689D
:100530006FEA020201EA020141EA030101600EBD15
:10054000006800EA020020FA01F07047018070475D
:10055000008870470EB503FA01F303EA020301882D
:100560006FEA020201EA020141EA030101800EBDC5
:10057000008800EA020020FA01F07047017070471D
:10058000007870470EB503FA01F303EA020301781D
:100590006FEA020201EA020141EA030101700EBDA5
:1005A000007800EA020020FA01F0704780B582B0BE
:1005B00000AF0F4B5B68FB710D4B9B68DAB2FB79A8
:1005C0001340FB71FB7903F00203BB71BB79002B75
:1005D00001D000F0E7F8FB7903F001037B717B7930
:1005E000002B01D000F006F80837BD4680BD00BFE3
:1005F0000060014080B584B000AF634B1B78022BD4
:100600003FD0052B6BD0012B40F0AD805F4B1B889A
:100610009BB2002B30D05E4B1A685C4B1B889BB2A0
:100620001046194600F006FAF860584B1B889BB23A
:100630001A46FB689A420FD9544B1B889AB2FB6842
:100640009BB2D31A9AB2514B1A80514B1A68FB686D
:1006500013444F4A13600EE04C4B00221A804D4B5E
:100660001B68002B03D0484B02221A7003E0464B54
:1006700003221A7004E003E000BE00F0B5F97FE049
:100680007EE0444B1B68002B24D0434B1A68414B3F
:100690001B681046194600F0CDF9B8603D4B1B6849
:1006A000BA689A420CD23B4B1A68BB68D31A394AD3
:1006B0001360394B1A68BB681344374A13600DE066
:1006C000364A364B9B6823F0010393602E4B03227E
:1006D0001A7003E000BE00F087F951E050E02D4BA6
:1006E0001B68002B1BD12E4B1B68002B14D02C4BEE
:1006F0001B68294898470246264B1A60254B1B6801
:10070000002B0CD1254A254B9B6823F001039360F5
:100710001D4B03221A7002E000BE00F065F91D4B6C
:100720001B68002B09D11D4A1C4B9B6823F0010359
:100730009360154B03221A7022E0174B1A68154B71
:100740001B681046194600F075F97860114B1A685D
:100750007B68D31A0F4A13600F4B1A687B681344E7
:100760000D4A13600CE00D4A0C4B9B6823F001030B
:100770009360002000F018F9034B00221A7000BFAC
:100780001037BD4680BD00BF514D0020344D0020C4
:10079000304D00203C4D0020384D002000600140CD
:1007A0004C4D002080B584B000AF794B1B69FB81B4
:1007B000FB8923F4FF4323F07F03BB81FB89FB729A
:1007C000744B1B78052B00F2D88001A252F823F05D
:1007D000E907002065090020650900204108002084
:1007E0008F08002039090020BB89002B27D0FB7A15
:1007F000F12B06D0FB7ABB72BB7A184600F04CF99D
:100800001DE0654B00221A80644B1B68624A128807
:1008100092B21344FA7A1A705F4B1B889BB2013371
:100820009AB25D4B1A805D4B1B685B4A128892B28C
:10083000134400221A70574B04221A70A4E0A3E05C
:10084000BB89002B22D0FB7A7B72554B1B78DBB225
:100850007A7A9A4215D1504B00221A804F4B1B686E
:100860004D4A128892B213447A7A1A704A4B1B8806
:100870009BB201339AB2484B1A80464B04221A703D
:1008800004E07B7A184600F007F97DE07CE0BB8944
:10089000002B06D0FB7A3B723B7A184600F0FCF83E
:1008A00049E03E4B1A683C4B1B889BB2013B13440A
:1008B0001B78F12B16D1394B1B68374A128892B23C
:1008C0001344FA7A1A70354B1A68334B1B889BB263
:1008D000013B13441B78184600F0DEF82D4B002234
:1008E0001A7028E02C4B1B889AB22E4B1B889A4218
:1008F00010D2FB7AFB71294B1B68274A128892B2EF
:100900001344FA791A70244B1B889BB201339AB2B4
:10091000214B1A80204B1B889AB2224B1B889A428B
:1009200009D11D4B1B889BB2184600F03DF8194BAE
:1009300000221A7028E027E0BB89002B0BD1174B4F
:100940001B680133FA7A1A70022000F02DF8114B5F
:1009500000221A7018E0FB7ABB71BB79184600F0D0
:100960009BF811E0BB89002B06D0FB7A7B717B7969
:10097000184600F091F807E006E0002000F014F8B7
:10098000044B00221A7000BF1037BD4680BD00BF67
:1009900000600140514D0020464D0020404D002098
:1009A0002C4D0020444D002080B582B000AF03469E
:1009B000FB800A4B1B68002B0DD0084B1B68084AB4
:1009C0001168FA88084611469847044B00221A60BD
:1009D000044B00221A700837BD4680BD484D0020E8
:1009E000404D0020504D002080B582B000AF0E4B2E
:1009F0001B78DBB2002B13D00C4B1B889BB2184624
:100A0000FFF7D2FF0A4A0A4B1B6843F00103136049
:100A1000074B1B6803F001037B607B68002BF7D159
:100A20000837BD4680BD00BF504D0020464D002018
:100A30000060014080B485B000AF78603960154A2D
:100A4000144B1B6823F0040313600023FB60114B5D
:100A50005B6803F00103BB600DE00E497A68FB6838
:100A600013441B780B61FB680133FB60094B5B6827
:100A700003F00103BB60BB68002B03D0FA683B683E
:100A80009A42EAD3FB6818461437BD465DF8047BEA
:100A9000704700BF0060014080B582B000AF0346E0
:100AA000FB71064B1B68002B04D0044B1B68FA79C2
:100AB000104698470837BD4680BD00BF544D002002
:100AC00080B483B000AF0346FB71094997F9073042
:100AD0005B09FA7902F01F02012000FA02F260338A
:100AE00041F823200C37BD465DF8047B704700BFFA
:100AF00000E100E080B58AB000AF78607B681B68D9
:100B00001B687B627B681B689B693B627B681B6818
:100B10005B68FB617B681B689B6ABB617B681B68C9
:100B20001B6B7B617B681B685B6B3B617B681B6835
:100B3000DB69FB607B68344A93421DD17B68334A92
:100B40001A607B6802221A71314A314B9B6C43F464
:100B5000007393640220FFF7B3FF2D4A2C4B9B6C6C
:100B600023F4007393647B681B687A6812681268C8
:100B700022F000421A601CE07B68264A1A607B68FB
:100B800003221A71224A224B9B6C43F480639364C4
:100B90000320FFF795FF1E4A1D4B9B6C23F48063D7
:100BA00093647B681B687A681268126822F00042BE
:100BB0001A607B6A23F001037B627B681B687A6A98
:100BC0001A607B681B683A6A9A617B681B68FA69DD
:100BD0005A607B681B687A681268126842F00102EA
:100BE0001A607B681B68BA699A627B681B687A69BD
:100BF0001A637B681B683A695A637B681B68FA68EA
:100C0000DA612837BD4680BDFC4D00200010004051
:100C1000008003400010014080B485B000AF7860D0
:100C20000023FB600DE07B681B687A6891687A6836
:100C300012690A4412785A617B681B695A1C7B68E6
:100C40001A617B681B689B6803F48073002B05D1D5
:100C50007B681A697B68DB689A42E4D37B681A690F
:100C60007B68DB689A421BD30DE07B681B687A685F
:100C700051697A68D2690A4412785A617B68DB69E3
:100C80005A1C7B68DA617B681B689B6803F480737D
:100C9000002B05D17B68DA697B689B699A42E4D3B3
:100CA0007B685B6A002B1DD07B681A697B68DB68F8
:100CB0009A4217D37B68DA697B689B699A4211D3A1
:100CC00006E07B681B6800225A61FB680133FB6009
:100CD0007B681B689B6803F48073002B02D1FB6860
:100CE0001F2BEED91437BD465DF8047B704700BF5B
:100CF00080B584B000AF78607B6893F88030022BB9
:100D000015D10CE07B681B681B69FB607B685B6F1F
:100D1000002B04D07B685B6FFA68104698477B68AD
:100D20001B689B6803F04003002BEBD030E07B682E
:100D300093F88030012B1FD116E07B681B681B697C
:100D4000FB607B681A6B7B68DB6A9A4207D27B6820
:100D50009A6A7B681B6B1344FA68D2B21A707B687C
:100D60001B6B5A1C7B681A637B681B689B6803F0CB
:100D70004003002BE1D00BE003E07B681B681B699C
:100D8000FB607B681B689B6803F04003002BF4D07A
:100D90001037BD4680BD00BF80B586B000AF78601B
:100DA0007B681B6820337B617B686C4A934204D06C
:100DB0007B686B4A934200D000BE7B691B6803F0DE
:100DC0000203002B4FD07B6893F88030022B15D1A3
:100DD0000CE07B681B681B69FB607B685B6F002B0A
:100DE00004D07B685B6FFA68104698477B681B6885
:100DF0009B6803F04003002BEBD030E07B6893F856
:100E00008030012B1FD116E07B681B681B69FB60DB
:100E10007B681A6B7B68DB6A9A4207D27B689A6AA6
:100E20007B681B6B1344FA68D2B21A707B681B6B29
:100E30005A1C7B681A637B681B689B6803F040033D
:100E4000002BE1D00BE003E07B681B681B69FB60B3
:100E50007B681B689B6803F04003002BF4D07B6821
:100E60001B680222DA607B691B6803F00103002B18
:100E700011D07B6893F88030022B05D17B681B680A
:100E80007A68926F5A6102E07868FFF7C5FE7B6866
:100E90001B680122DA607B691B6803F01003002BDA
:100EA00021D07868FFF724FF7B681B6A002B0BD0EA
:100EB0007B681B6A7A68916A7A68126B08461146E9
:100EC00098477868FFF7A8FE7B6801225A627B6822
:100ED0001B687A681268926A22F010029A627B6834
:100EE0001B681022DA607B691B6803F00403002B87
:100EF0000ED07B681B687A681268D26A42F00402DE
:100F0000DA627868FFF7F6FD7B681B680422DA6016
:100F10007B691B6803F00803002B32D07B681B68D9
:100F20007A681268D26A42F00802DA627B6893F843
:100F30008030022B16D17B681A687B681B681B689F
:100F400023F47F0323F47F4343F4807313607B68AF
:100F50001B687A68926F5A610FE000BFFC4D002059
:100F6000784D00207B6893F88030012B05D17B6899
:100F700000221A617868FFF74FFE7B681B68082221
:100F8000DA607B691B6803F02003002B41D078688E
:100F9000FFF7AEFE7B681B6B3B617B681B6A002B17
:100FA00017D07B6800225A627B6800225A617B68F6
:100FB00000229A617B680022DA617B681B6810223C
:100FC000DA607B681B687A681268926A42F01002E5
:100FD0009A627B6800221A617B681B687A681268D3
:100FE000D26A42F00C02DA627868FFF715FE7B687D
:100FF00000221A637B68DB6F002B06D07B68DB6FF7
:101000007A68926A1046396998477B681B68202283
:10101000DA601837BD4680BD684620F007018D466E
:1010200089B500AF0348FFF7B7FEBD46BDE889406C
:1010300085467047FC4D0020684620F007018D462C
:1010400089B500AF0348FFF7A7FEBD46BDE889405C
:1010500085467047784D002090B484B000AFF860AA
:10106000B9607A60FB704B484B4B1A68F9781346AD
:101070009B001344DB01034403F5E07359604749C7
:10108000454B1A6813469B0013449B000B44FA68B7
:101090005A604249404B1A6813469B0013449B0018
:1010A0000B44BA689A603D483B4B19683B4C3A4B3D
:1010B0001A6813469B0013449B00234408335B6863
:1010C0001A0C12040B469B000B449B00034408338C
:1010D0005A607B68B3F5803F0FD97B68A3F58033F6
:1010E0002F4A1361BB6803F580332D4AD360FB6838
:1010F00003F580332A4A936019E02848264B1A6882
:10110000264C254B19680B469B000B449B0023443F
:1011100008335B68796889B2194313469B0013440E
:101120009B000344083359601D4B00221A611B4881
:10113000194B1A68194C184B19680B469B000B4445
:101140009B00234408335B6843F4E00113469B0093
:1011500013449B000344083359600E490E4B1A6830
:1011600013469B001344DB010B4403F5E07301229B
:101170001A600849084B1A6813469B001344DB01A8
:101180000B4403F5E47300225A601037BD4690BC4F
:10119000704700BF00002842704D00200040014011
:1011A000584D0020684620F007018D4691B500AFEC
:1011B000344A354B1B6803F52873012142F823108C
:1011C0003248314B1A68314C2F4B19680B469B0043
:1011D0000B449B00234408335B6823F4E00113466F
:1011E0009B0013449B00034408335960264B1B6843
:1011F0000133254A1360244B1B68042B02D1224B78
:1012000000221A60224B1B69002B17D0214B1B6850
:10121000042B03D11F4B00221A6004E01D4B1B68F6
:1012200001331C4A13601A4B9868194BD968184B44
:101230001A69174B1B7DFFF70FFF1EE01349124B76
:101240001A6813469B0013449B000B4408335B68E9
:1012500003F4E003002B10D10B4B00221A600D4B5E
:1012600000221A600A4B01221A70094B5B68002B9E
:1012700003D0074B5B6801209847BD46BDE891400D
:101280008546704700002842744D00200040014010
:10129000584D0020704D0020684620F007018D4613
:1012A00081B583B000AF384B1B683B603B6803F4EB
:1012B00070633B603B68002B2FD03449344B1A6875
:1012C00013469B001344DB010B4403F502731B68B8
:1012D000002B0AD02F4B02221A702E4B5B68002B7A
:1012E00003D02C4B5B68022098472849284B1A688A
:1012F00013469B001344DB010B4403F502735B6848
:10130000002B0AD0234B03221A70224B5B68002B60
:1013100003D0204B5B68032098471B4B1B683B6046
:101320003B6803F470433B603B68002B0AD0194BC9
:1013300004221A70174B5B68002B03D0154B5B68B7
:101340000420984700237B6014E010497A68134614
:101350009B001344DB010B4403F5E47301221A6084
:101360000A4A7B6803F52873012142F823107B6841
:1013700001337B607B68032BE7D90C37BD46BDE8A2
:1013800081408546704700BF004001400000284270
:10139000744D0020584D002080B586B000AFF86035
:1013A000B96011461A460B46FB8013467B71FB68F9
:1013B000002B00D100BE7B79072B00D900BEFB8833
:1013C000B3F5005F00D300BEFB68002B6BD07B79C8
:1013D000072B68D8FB88B3F5005F64D2BB6803F1C4
:1013E0000802FB88DBB210461946FFF7C7F8BB6856
:1013F00003F10C017B79FA8802F47F425211134306
:1014000008461946FFF7BAF8FB68BA681A60FB6825
:101410001B6808331846FFF7B3F80346BB82FB6826
:101420001B680C331846FFF7ABF80346FB74FB7CD4
:1014300023F00703BB74BB7C9BB25B019AB2BB8AEF
:101440001343BB82FB7C03F00703FB74BA8AFB885F
:101450009A4200D000BEFA7C7B799A4200D000BE4E
:10146000FB681B6810331846FFF78AF8034603F041
:101470000203FB7511E0FB681B6804331846FFF795
:101480007FF803467B74FB681B6810331846FFF730
:1014900077F8034603F00203FB75FB7D002BEAD1CE
:1014A000FB6800221A711837BD4680BD80B586B032
:1014B00000AFF860B9607A60FB68002B00D100BE15
:1014C000BB68002B00D100BE7B68002B00D100BEA2
:1014D000FB68002B26D0BB68002B23D07B68002B39
:1014E00020D000237B6119E0FB681B68103318468D
:1014F000FFF746F8034603F00103FB74FB7C002B67
:10150000F2D0FB681968BA687B6913441B780846F7
:101510001946FFF733F87B6901337B617A697B6891
:101520009A42E1D31837BD4680BD00BF90B589B05F
:1015300000AFF860B9607A600023BB61FB68002BE4
:1015400000D100BEBB68002B00D100BE7B68002B21
:1015500000D100BEFB68002B43D0BB68002B40D0FD
:101560007B68002B3DD00023BB61FB681B681033F8
:101570001846FFF705F80346FB75FB681A79FB7DF3
:101580001343DAB2FB681A71FB7D03F00203FB77A9
:1015900020E0BA68BB69D418FB681B68043318469E
:1015A000FEF7EEFF03462370BB690133BB61FB68A6
:1015B0001B6810331846FEF7E3FF0346FB75FB6814
:1015C0001A79FB7D1343DAB2FB681A71FB7D03F0D5
:1015D0000203FB77FB7F002B03D0BA697B689A423A
:1015E000D7D3BB6918462437BD4690BD80B485B0BB
:1015F00000AF7860FF23FB737B68002B00D100BE37
:101600007B68002B08D07B681B7903F01C039B10C0
:10161000FB737B6800221A71FB7B18461437BD46AA
:101620005DF8047B704700BF80B584B000AFF86000
:10163000B9607A603B60FB68BA681A60FB681B6837
:10164000083318460021FEF799FFFB681B680C332E
:1016500018460021FEF792FFFB681B681846796860
:10166000FEF75CFF3B68002B00D100BEFB681B68E7
:10167000043318463968FEF751FFFB681B681033C6
:1016800018460021FEF74AFFFB681B68183318460E
:101690000021FEF743FFFB681B682033184600213A
:1016A000FEF73CFFFB681B68283318460021FEF755
:1016B00035FFFB681B68303318460021FEF72EFF0C
:1016C000FB681B68383318460021FEF727FFFB68CC
:1016D0001B68403318460021FEF720FFFB681B689B
:1016E000483318460021FEF719FFFB681B6850338A
:1016F00018460021FEF712FFFB681B685833184696
:101700000021FEF70BFFFB681B68603318460021C1
:10171000FEF704FFFB681B68683318460021FEF7DC
:10172000FDFEFB681B68703318460021FEF7F6FECD
:10173000FB681B68783318460021FEF7EFFEFB6854
:101740001B68803318460021FEF7E8FEFB681B6823
:10175000883318460021FEF7E1FE1037BD4680BDF4
:1017600080B584B000AF78600B46FB70FB78002B2F
:1017700000D100BEFB78102B00D900BEFB78002BF7
:1017800034D0FB78102B31D8FB781A4AD35CFB732A
:10179000FB78082B15D87B681B6808331846FEF7C2
:1017A000EFFE0346BB73BA7BFB7B1343BB737B68C3
:1017B0001B6803F10802BB7B10461946FEF7DEFEEC
:1017C00014E07B681B680C331846FEF7D9FE03460D
:1017D000BB73BA7BFB7B1343BB737B681B6803F152
:1017E0000C02BB7B10461946FEF7C8FE1037BD46FB
:1017F00080BD00BFE847002080B584B000AF7860AE
:101800000B46FB70FB78002B00D100BEFB78102B41
:1018100000D900BEFB78002B38D0FB78102B35D8D0
:10182000FB781C4AD35CFB73FB78082B17D87B68CA
:101830001B6808331846FEF7A3FE0346BB73FB7B09
:10184000DB43DAB2BB7B1340BB737B681B6803F1DD
:101850000802BB7B10461946FEF790FE16E07B6837
:101860001B680C331846FEF78BFE0346BB73FB7BED
:10187000DB43DAB2BB7B1340BB737B681B6803F1AD
:101880000C02BB7B10461946FEF778FE1037BD46AA
:1018900080BD00BFE847002080B588B000AFF86089
:1018A0000B467A60FB72FB7A002B00D100BEFB7AFC
:1018B000102B00D900BEFB681B6804331846FEF7E6
:1018C0002FFEF8617A68FB699A4200D900BEFB7A64
:1018D000002B3AD0FB7A102B37D87B68002B05D130
:1018E000FB7AF8681946FFF787FF2EE0FB681A6855
:1018F000FB7A174951F82330134418460021FEF7AC
:101900000DFEFB681A68FB7A124951F82330134424
:1019100018467968FEF702FEFB7A0E4A52F8233029
:10192000BB61FB681A68BB6913441846FEF728FEC2
:101930000346FB757B68DBB2FA7D9A4200D000BE9D
:10194000FB7AF8681946FFF70BFF2037BD4680BDCC
:10195000FC4700204048002080B586B000AFF8600A
:10196000B9601346FB710023FB75BB683B61FB68E4
:10197000BA681A60FB68FA791A710023FB75BB68B4
:101980003B6109E038690021FEF7F8FD3B6904334B
:101990003B61FB7D0133FB75FB7D1F2BF2D9FB689F
:1019A0001B79012B0DD0022B02D0002B1AD036E070
:1019B000FB681B68803318464FF0FF31FEF7AEFD21
:1019C0002FE0FB681B68803318464FF6FF71FEF767
:1019D000BDFDFB681B68843318464FF6FF71FEF7A8
:1019E000B5FD1EE0FB681B6880331846FF21FEF73B
:1019F000C5FDFB681B6884331846FF21FEF7BEFD5A
:101A0000FB681B6888331846FF21FEF7B7FDFB68AB
:101A10001B688C331846FF21FEF7B0FD01E000BEC5
:101A200000BF1837BD4680BD80B586B000AFF860F6
:101A30000B467A60FB72FB7A1F2B00D900BEFB7A43
:101A40001F2B14D8FB681B687B61FB7A9B001A462E
:101A50007B6913447B6178697968FEF75FFD78697B
:101A6000FEF75EFD02467B689A4200D000BE183742
:101A7000BD4680BD80B582B000AF786039607B68BC
:101A80001B79012B0CD0022B02D0002B1DD047E07C
:101A90007B681B68A03318463968FEF73FFD41E0BC
:101AA0007B681B68A0333A6892B218461146FEF76D
:101AB0004DFD7B681B6803F1A4023B681B0C9BB2C5
:101AC00010461946FEF742FD2CE07B681B68A033E8
:101AD0003A68D2B218461146FEF750FD7B681B6883
:101AE00003F1A4023B681B0ADBB210461946FEF75D
:101AF00045FD7B681B6803F1A8023B681B0CDBB249
:101B000010461946FEF73AFD7B681B6803F1AC02EC
:101B10003B681B0EDBB210461946FEF72FFD01E0B5
:101B200000BE00BF786800F009F802463B689A42A0
:101B300000D000BE0837BD4680BD00BF80B584B070
:101B400000AF78600023FB607B681B79012B0CD011
:101B5000022B02D0002B20D04FE07B681B68A03303
:101B60001846FEF7DDFCF86049E07B681B68A0338F
:101B70001846FEF7EDFC03461A46FB681343FB606C
:101B80007B681B68A4331846FEF7E2FC03461B047F
:101B90001A46FB681343FB6031E07B681B68A03387
:101BA0001846FEF7D5FC03461A46FB681343FB6054
:101BB0007B681B68A4331846FEF7CAFC03461B0269
:101BC0001A46FB681343FB607B681B68A833184602
:101BD000FEF7BEFC03461B041A46FB681343FB607A
:101BE0007B681B68AC331846FEF7B2FC03461B0645
:101BF0001A46FB681343FB6001E000BE00BFFB68B0
:101C000018461037BD4680BD80B584B000AF7860FF
:101C10000B46FB707B681B68FB60FB781F2B00D9B1
:101C200000BEFB781F2B12D8FB789B001A46FB687E
:101C30001344FB60F868FEF7A3FC0346BB60BB6877
:101C400043F00803BB60F868B968FEF797FC1037EB
:101C5000BD4680BD80B584B000AF78600B46FB7098
:101C60007B681B68FB60FB781F2B00D900BEFB78EC
:101C70001F2B12D8FB789B001A46FB681344FB60AD
:101C8000F868FEF77DFC0346BB60BB6823F00803E1
:101C9000BB60F868B968FEF771FC1037BD4680BDBF
:101CA00080B584B000AF78600B46FB70FB780122F2
:101CB00002FA03F3FB607B681B79012B0CD0022B2B
:101CC00002D0002B1AD03FE07B681B688033184697
:101CD000F968FEF723FC39E07B681B6880331846FF
:101CE000F968FEF733FC7B681B6803F18402FB682C
:101CF0001B0C10461946FEF729FC27E07B681B6881
:101D000080331846F968FEF739FC7B681B6803F1DD
:101D10008402FB681B0A10461946FEF72FFC7B68FD
:101D20001B6803F18802FB681B0C10461946FEF77E
:101D300025FC7B681B6803F18C02FB681B0E1046B8
:101D40001946FEF71BFC01E000BE00BF1037BD4680
:101D500080BD00BF80B500AF00F0F8F8044A044B26
:101D60005B6943F400735361FEF764FB80BD00BF01
:101D700000ED00E080B588B000AF2F4BD3F898306D
:101D800003F08063FB61FB69002B4BD12A4BD3F836
:101D9000983003F48053BB61BB69002B15D1274BEE
:101DA000274A1A60274B264A1A60274B244A1A6092
:101DB000264B274A1A60274B274A1A60274B204A8E
:101DC0001A60274B1E4A1A602BE0264A3B1D1068FA
:101DD000516803C3184BD3F89C309B0903F00703E9
:101DE0007B613A1D7B6913441B78FB74FB7C012BE0
:101DF0000AD0022B0DD0002B0FD100F037F8F8607D
:101E0000F86800F051F80CE04FF4004000F04CF896
:101E100007E0154800F048F803E0134800F044F8E4
:101E200000BF05E000F022F8F860F86800F03CF828
:101E30002037BD4680BD00BF00800340C44800205D
:101E4000003B5808C8480020CC480020D04800205B
:101E5000C00E1602D4480020801D2C04D848002053
:101E6000DC4800208448002040420F0080B483B04A
:101E700000AF0A4BD3F8503103F004033B603B68DA
:101E8000002B02D1064B7B6001E0064B7B607B6838
:101E900018460C37BD465DF8047B70470080034050
:101EA00040787D0180F0FA0280B483B000AF7860A2
:101EB0000C4A7B6813600C4A7B6813600B4A7B6892
:101EC00013600B4B0B4A1A600B4A7B6813600B4A7A
:101ED0007B6813600A4A7B6813600C37BD465DF867
:101EE000047B7047C4480020C8480020CC4800202C
:101EF000D0480020C00E1602D4480020D848002048
:101F0000DC48002080B483B000AF0E4BD3F84C31D6
:101F10003B603B684FF60202934203D00A4A934269
:101F200003D005E001237B6005E002237B6002E033
:101F300000237B6000BF7B6818460C37BD465DF808
:101F4000047B70470080034002F8010080B582B036
:101F500000AFFFF7D7FF78607B68012B00D002E06D
:101F600000F004F800BF0837BD4680BD80B400AF64
:101F7000094A094BD3F8983043F48073C2F898307B
:101F8000054A054BD3F8983023F08063C2F89830A7
:101F9000BD465DF8047B70470080034080B483B089
:101FA00000AF0346FB71084997F907305B09FA79DE
:101FB00002F01F02012000FA02F241F823200C3740
:101FC000BD465DF8047B704700E100E080B483B05B
:101FD00000AF0346FB71094997F907305B09FA79AD
:101FE00002F01F02012000FA02F2203341F8232000
:101FF0000C37BD465DF8047B704700BF00E100E090
:1020000080B483B000AF0346FB71094997F90730EC
:102010005B09FA7902F01F02012000FA02F2603334
:1020200041F823200C37BD465DF8047B704700BFA4
:1020300000E100E080B483B000AF03463960FB717B
:1020400097F90730002B0BDA0D49FB7903F00F03EA
:10205000043B3A68D2B21201D2B20B441A7609E0BC
:10206000084997F907303A68D2B21201D2B20B444C
:1020700083F800230C37BD465DF8047B704700BF32
:1020800000ED00E000E100E080B582B000AF034663
:10209000FB710E20FFF79AFF0F4A0F4B9B6C23F04A
:1020A000400393644FF0402300225A650B4B0022FB
:1020B000C3F88021094B0022C3F88821074AFB7925
:1020C000C2F884314FF0402301221A610E20FFF73D
:1020D00097FF0837BD4680BD0080034000000842DE
:1020E00080B400AF034B0122C3F88021BD465DF8E8
:1020F000047B70470000084280B483B000AF786072
:102100004FF040227B6853600C37BD465DF8047B7E
:10211000704700BF80B500AF034B0122C3F8882190
:102120000E20FFF73BFF80BD0000084280B500AFE6
:10213000034B0022C3F888210E20FFF747FF80BD24
:102140000000084280B400AF4FF0402301221A6122
:10215000BFF34F8FBD465DF8047B704780B58AB0F2
:1021600000AFBA484FF0A041042240F69F73FFF73A
:102170005BFAC82000F00CFAB548062100F020FAFE
:10218000B448042100F01CFAB348052100F018FA05
:10219000B248022100F014FA4FF00000032100F0D1
:1021A0000FFAAF48072100F00BFAAB48082100F006
:1021B00007FA4FF47A7000F0EBF9AA48062100F014
:1021C000FFF9A948042100F0FBF9A848052100F017
:1021D000F7F9A748022100F0F3F94FF07E500321F0
:1021E00000F0EEF9A348072100F0EAF99F48082122
:1021F00000F0E6F94FF47A7000F0CAF9944806212D
:1022000000F0DEF99348042100F0DAF99248052144
:1022100000F0D6F99148022100F0D2F94FF0000009
:10222000032100F0CDF98E48072100F0C9F98A4852
:10223000082100F0C5F94FF47A7000F0A9F900F018
:10224000E5FB4FF4FA7000F0A3F93B4600221A6058
:10225000043300221A60043300221A60043300227F
:102260001A60043300221A60043300221A60043317
:1022700000221A60043300221A6004337E487F492A
:1022800025220123FFF788F87B487D490222FFF7CA
:102290000DF9FFF76FFD7B487B490222FFF75CFBDE
:1022A000784800210522FFF7BFFB7648012105226F
:1022B000FFF7BAFB734802210522FFF7B5FB734B0A
:1022C0001B6870481946FFF7D5FB6E480021432272
:1022D000FFF7AAFB6B4801214322FFF7A5FB6948E2
:1022E00002210522FFF7A0FB66480021FFF78CFCC6
:1022F00064480121FFF788FC2320FFF74FFE2420CC
:10230000FFF74CFE23200621FFF794FE2420052131
:10231000FFF790FE5E4B1A6813469B0013443B6226
:102320000020FFF7B1FE386AFFF7E6FEFFF7D8FEA0
:10233000FFF7F0FE554B1B6852481946FFF79AFB12
:102340004D48FFF753F90346002B06D13B464A4858
:1023500019462022FFF7EAF878627B6A002B0BD03F
:102360003B78412B08D100233B7046480321FFF7FF
:1023700081FB00F023FE67E07B6A002B0BD03B78EB
:10238000422B08D100233B703E480321FFF772FB2C
:1023900000F0F4FE58E07B6A002B0BD03B78432B17
:1023A00008D100233B7037480321FFF763FB00F09F
:1023B000C9FF49E07B6A002B0BD03B78442B08D146
:1023C00000233B702F480321FFF754FB01F0A4F8D2
:1023D0003AE07B6A002B0BD03B78452B08D129488B
:1023E0000121FFF747FB00233B7001F07FF92BE051
:1023F0007B6A002B0BD03B78472B08D100233B7026
:1024000020480121FFF736FB01F072FA1CE07B6ADD
:10241000002B0BD03B78492B08D11A480621FFF737
:1024200029FB00233B7000F09BFC0DE07B6A002B36
:102430000AD03B784A2B07D100233B701148052175
:10244000FFF718FB00F0E2FA74E700BF904E00209F
:1024500000008C420000A0420000C8420000B442CC
:102460000000824200008E420000A2420000CA42E8
:102470000000B64200008442884E00200020005038
:10248000E0480020804E002000100030E44800208A
:10249000C848002080B500AF0C48FFF74FFB02464C
:1024A0000B4B1A600A4B1B6883F00703084A136042
:1024B000074B1B6805481946FFF7DCFA0548064933
:1024C0000222FEF7F3FFFFF73DFE80BD804E0020A5
:1024D000E4480020884E0020E048002080B500AF8E
:1024E00011480021FFF7B6FB0F480121FFF7B2FBAF
:1024F0000D480421FFF7BEFA0B480021FFF7D0FB7F
:1025000009480121FFF7CCFB07480021FFF77CFBBE
:1025100005480121FFF778FB00F010FB4FF47A60CB
:1025200000F036F8F8E700BF804E002080B500AF1D
:10253000FFF7FCFD14480021FFF78CFB1248052132
:10254000FFF798FA11480121FFF756F90F480221C9
:10255000FFF752F90D480321FFF74EF90B4804210C
:10256000FFF74AF909480521FFF746F90748062110
:10257000FFF742F905480721FFF73EF90348082114
:10258000FFF73AF9FEE700BF804E0020904E002092
:1025900080B485B000AF78600023FB6002E0FB6888
:1025A0000133FB607B6841F6641202FB03F2FB68B7
:1025B0009A42F4DC1437BD465DF8047B704700BFD7
:1025C00080B584B000AF786039603B68012B30D1B2
:1025D000786801F009FC02460B46104619464FF098
:1025E00000024FF0000301F0A1FA02460B4610462C
:1025F0001946CBA3D3E9002301F04AFC02460B465F
:10260000104619464FF00002CD4B01F08FFA0246FA
:102610000B461046194601F04DFE0346FB60F86874
:1026200002F01CF80346C74801211A46FFF734F9A7
:1026300073E13B68022B30D1786801F0D5FB02468C
:102640000B46104619464FF000024FF0000301F010
:102650006DFA02460B4610461946B1A3D3E9002392
:1026600001F016FC02460B46104619464FF00002D8
:10267000B34B01F05BFA02460B461046194601F0D7
:1026800019FE0346FB60F86801F0E8FF0346AD4819
:1026900002211A46FFF700F93FE13B68032B39D1CD
:1026A000786801F0A1FB02460B46104619464FF030
:1026B0000002A54B01F03AFA02460B4610461946B5
:1026C0004FF000024FF0000301F030FA02460B46D3
:1026D0001046194694A3D3E9002301F0D9FB024622
:1026E0000B46104619464FF00002984B01F01EFAB7
:1026F00002460B461046194601F0DCFD0346FB601E
:10270000F86801F0ABFF03468E4803211A46FFF735
:10271000C3F802E13B68042B30D1786801F064FB18
:1027200002460B46104619464FF000024FF00003D8
:1027300001F0FCF902460B461046194678A3D3E98E
:10274000002301F0A5FB02460B46104619464FF048
:1027500000027B4B01F0EAF902460B46104619468F
:1027600001F0A8FD0346FB60F86801F077FF03461F
:10277000744804211A46FFF78FF8CEE03B68052B1A
:1027800030D1786801F030FB02460B4610461946FE
:102790004FF000024FF0000301F0C8F902460B466B
:1027A0001046194662A3D3E9002301F071FB0246EB
:1027B0000B46104619464FF00002654B01F0B6F982
:1027C00002460B461046194601F074FD0346FB60B5
:1027D000F86801F043FF03465A4805211A46FFF7FF
:1027E0005BF89AE03B68062B30D1786801F0FCFA80
:1027F00002460B46104619464FF000024FF0000308
:1028000001F094F902460B46104619464AA3D3E953
:10281000002301F03DFB02460B46104619464FF0DF
:1028200000024C4B01F082F902460B461046194655
:1028300001F040FD0346FB60F86801F00FFF03461E
:10284000404806211A46FFF727F866E03B68072B49
:1028500030D1786801F0C8FA02460B461046194696
:102860004FF000024FF0000301F060F902460B4602
:10287000104619462AA3D3E9002301F009FB0246BA
:102880000B46104619464FF000022D4B01F04EF951
:1028900002460B461046194601F00CFD0346FB604C
:1028A000F86801F0DBFE0346264807211A46FEF7CA
:1028B000F3FF32E03B68082B2FD1786801F094FADF
:1028C00002460B46104619464FF000024FF0000337
:1028D00001F02CF902460B461046194610A3D3E925
:1028E000002301F0D5FA02460B46104619464FF078
:1028F0000002134B01F01AF902460B461046194626
:1029000001F0D8FC0346FB60F86801F0A7FE03461F
:102910000C4808211A46FEF7BFFF1037BD4680BDA0
:102920002A2A2A2A2A2A02405A5A5A5A5A5A02400B
:102930004E4E4E4E4E4E02403636363636360240FB
:1029400000405940904E00200080444000405840D4
:10295000008058400000594080B500AF0E48062165
:10296000FFF72EFE0D480421FFF72AFE0C48052133
:10297000FFF726FE0B480221FFF722FE4FF0000072
:102980000321FFF71DFE08480721FFF719FE044841
:102990000821FFF715FE80BD00008C420000A04218
:1029A0000000C8420000B4420000824280B582B0FC
:1029B00000AF78607B68002B04D111480621FFF737
:1029C000FFFD16E07B68012B04D10E480621FFF7BE
:1029D000F7FD0EE07B68022B04D10B480621FFF7C0
:1029E000EFFD06E07B68032B03D106480621FFF7C5
:1029F000E7FD3220FFF7CCFD0837BD4680BD00BFA4
:102A000000008C420000DC420000704280B582B0C1
:102A100002AF0A2300930223019320481F49012299
:102A20004FF07E5300F044F80A23009303230193F0
:102A30001B484FF0000101224FF07E5300F038F8A0
:102A40004FF47A70FFF7A4FD0A2300930423019347
:102A50001348144900224FF07E5300F029F84FF438
:102A60007A70FFF795FD0A230093082301930E481F
:102A70000E4900224FF07E5300F01AF84FF47A709E
:102A8000FFF786FD0120FFF791FF4FF47A70FFF703
:102A90007FFDFFF761FFBD4680BD00BF0000B4426F
:102AA000000020420000A042000070420000C84226
:102AB00080B588B000AFF860B9607A603B607B6831
:102AC000012B19D1BB68BB610EE0B869F96AFFF749
:102AD00077FDB86AFFF75CFDBB69FB61B8693968CF
:102AE00001F03EFC0346BB61B869F96801F098FD4E
:102AF0000346002BE9D11BE07B68002B18D1BB6893
:102B00007B610EE07869F96AFFF75AFDB86AFFF752
:102B10003FFD7B69FB617869396801F01FFC034662
:102B20007B617869F96801F085FD0346002BE9D1E6
:102B3000FB6918462037BD4680BD00BF80B582B016
:102B400002AF7B480621FFF73BFD052300930423DA
:102B500001937848784900224FF07E53FFF7A8FF91
:102B60000A230093022301937448754901224FF010
:102B70007E53FFF79DFF05230093052301937148C2
:102B80006E4901224FF07E53FFF792FF0220FFF7BC
:102B90000DFFC820FFF7FCFC0A23009302230193DA
:102BA0006948664901224FF07E53FFF781FF0823F1
:102BB00000930323019360484FF0000101224FF07E
:102BC0007E53FFF775FF05230093042301935F48AD
:102BD000584901224FF07E53FFF76AFFC820FFF7E4
:102BE000D7FC0320FFF7E2FE0523009305230193A2
:102BF0004FF00000534900224FF07E53FFF758FF7B
:102C0000C820FFF7C5FC05230093052301934D4819
:102C10004FF0000101224FF07E53FFF749FFC8201B
:102C2000FFF7B6FC08230093032301934848424969
:102C300000224FF07E53FFF73BFF05230093042350
:102C400001934048414901224FF07E53FFF730FF86
:102C50000220FFF7ABFEC820FFF79AFC0A2300937F
:102C6000022301934FF000003A4900224FF07E53B7
:102C7000FFF71EFFC820FFF78BFC0320FFF796FE2F
:102C8000052300930523019333484FF000010122EF
:102C90004FF07E53FFF70CFFC820FFF779FC0523A8
:102CA0000093052301934FF000002B4900224FF0C1
:102CB0007E53FFF7FDFEC820FFF76AFC0220FFF7F6
:102CC00075FE05230093042301931B48234900222A
:102CD0004FF07E53FFF7ECFE05230093052301938D
:102CE00016484FF0000101224FF07E53FFF7E0FE3F
:102CF0000A2300930223019311484FF0000101229F
:102D00004FF07E53FFF7D4FE082300930323019373
:102D100009480F4901224FF07E53FFF7C9FEFFF724
:102D20001BFE4FF4FA70FFF733FCBD4680BD00BFB9
:102D30000000DC42000048420000A0420000C842FF
:102D40000000B4420000164300000C430000F042B3
:102D50000000F04100002043000034430000024323
:102D600080B582B002AF0323009306230193874806
:102D7000874900224FF07E53FFF79AFE032300930A
:102D8000062301938348814901224FF07E53FFF7C8
:102D90008FFEC820FFF7FCFB03230093062301935B
:102DA0007A487C4900224FF07E53FFF781FEC8200D
:102DB000FFF7EEFB03230093062301937448734946
:102DC00001224FF07E53FFF773FEC820FFF7E0FBB0
:102DD00071480821FFF7F4FB0323009304230193B8
:102DE0006E486F4900224FF07E53FFF761FE0523C6
:102DF0000093042301936B48684901224FF07E53EE
:102E0000FFF756FEC820FFF7C3FB052300930423FA
:102E100001936348634900224FF07E53FFF748FE59
:102E2000C820FFF7B5FB5C480821FFF7C9FB032367
:102E30000093052301935C48574900224FF07E53CD
:102E4000FFF736FE052300930523019357485249A7
:102E500001224FF07E53FFF72BFEC820FFF798FBAF
:102E600005230093052301934B48504900224FF05E
:102E70007E53FFF71DFEC820FFF78AFB4648052159
:102E8000FFF79EFBC820FFF783FB43480821FFF7AD
:102E900097FB0323009302230193454845490022F1
:102EA0004FF07E53FFF704FE0A23009302230193A1
:102EB00041483F4901224FF07E53FFF7F9FDC820FA
:102EC000FFF766FB0A2300930223019339483A492E
:102ED00000224FF07E53FFF7EBFDC820FFF758FBB1
:102EE00034480221FFF76CFBC820FFF751FB2A484A
:102EF0000821FFF765FB082300930323019328486B
:102F00004FF0000101224FF07E53FFF7D1FDC820A2
:102F1000FFF73EFB08230093032301934FF00000CB
:102F20001F4900224FF07E53FFF7C2FDC820FFF774
:102F30002FFB4FF000000321FFF742FBC820FFF7F3
:102F400027FB082300930823019318481249012204
:102F50004FF07E53FFF7ACFD4FF4FA70FFF718FB0C
:102F60000B230093082301930B48104900224FF0D4
:102F70007C53FFF79DFD4FF4FA70FFF709FB4FF408
:102F80007A70FFF705FBBD4680BD00BF0000204200
:102F900000008C420000DC420000C8420000F0410A
:102FA0000000A0420000F042000048420000204320
:102FB000000020410000B44200002A4380B582B0E6
:102FC00002AF0A2300930223019366486549012258
:102FD0004FF07E53FFF76CFD0A2300930323019308
:102FE00061484FF0000101224FF07E53FFF760FD72
:102FF0004FF47A70FFF7CCFA0A230093042301936D
:1030000059485A4900224FF07E53FFF751FD4FF4C3
:103010007A70FFF7BDFA0A230093082301935448FE
:10302000544900224FF07E53FFF742FD4FF47A706F
:10303000FFF7AEFA0120FFF7B9FC4FF47A70FFF703
:10304000A7FA0A230093082301934848484901221C
:103050004FF07E53FFF72CFD0A23009303230193C7
:103060004548414900224FF07E53FFF721FD4FF4C0
:103070007A70FFF78DFA0A230093022301933C48EC
:10308000384900224FF07E53FFF712FD4FF4FA70DB
:10309000FFF77EFA0A23009308230193344833494B
:1030A00000224FF07E53FFF703FD4FF4FA70FFF755
:1030B0006FFA0A230093032301932B482E49012220
:1030C0004FF07E53FFF7F4FC4FF4FA70FFF760FA0D
:1030D0000220FFF76BFC4FF47A70FFF759FA0020DB
:1030E000FFF764FC0A230093082301932148204939
:1030F00001224FF07E53FFF7DBFC4FF4FA70FFF72D
:1031000047FA0A230093032301934FF00000164966
:1031100000224FF07E53FFF7CBFC4FF4FA70FFF71D
:1031200037FA0A230093022301930E481049012223
:103130004FF07E53FFF7BCFC4FF4FA70FFF728FA0C
:103140000A230093042301930848074901224FF002
:103150007E53FFF7ADFC40F6B830FFF719FABD46D5
:1031600080BD00BF0000B442000020420000A04229
:10317000000070420000C8420000F04180B582B0FB
:1031800002AF0A2300930223019368486849002292
:103190004FF07E53FFF78CFC4FF4FA70FFF7F8F90D
:1031A0000A230093042301936248634900224FF0ED
:1031B0007E53FFF77DFC4FF4FA70FFF7E9F90A231D
:1031C0000093032301935B484FF0000101224FF06D
:1031D0007E53FFF76DFC4FF4FA70FFF7D9F90A231D
:1031E0000093082301935148544900224FF07E5325
:1031F000FFF75EFC4FF47A70FFF7CAF90120FFF782
:10320000D5FB4FF47A70FFF7C3F90A230093082324
:1032100001934948454901224FF07E53FFF748FC8E
:103220000A230093032301934548424900224FF0AB
:103230007E53FFF73DFC4FF4FA70FFF7A9F90A231C
:103240000093022301933A48384901224FF07E53FC
:10325000FFF72EFC4FF4FA70FFF79AF90A23009358
:10326000082301933148344900224FF07E53FFF781
:103270001FFC4FF4FA70FFF78BF90A230093032326
:1032800001932C482E4901224FF07E53FFF710FC8A
:103290004FF4FA70FFF77CF90220FFF787FB4FF439
:1032A0007A70FFF775F90020FFF780FB0A2300937F
:1032B0000823019321481D4901224FF07E53FFF757
:1032C000F7FB4FF4FA70FFF763F90A230093032327
:1032D00001934FF00000174900224FF07E53FFF793
:1032E000E7FB4FF4FA70FFF753F90A230093022328
:1032F00001930F480E4901224FF07E53FFF7D8FB90
:103300004FF4FA70FFF744F90A2300930423019362
:103310000948084901224FF07E53FFF7C9FB40F6E8
:10332000B830FFF735F9BD4680BD00BF00007042E0
:103330000000B442000020420000A0420000C84249
:103340000000F04180B582B002AF0A23009302234F
:1033500001936848684900224FF07E53FFF7A8FBAD
:103360004FF4FA70FFF714F90A2300930423019332
:103370006248634901224FF07E53FFF799FB4FF4F7
:10338000FA70FFF705F90A230093032301935D48C0
:103390004FF0000101224FF07E53FFF789FB4FF4FD
:1033A000FA70FFF7F5F80A230093082301935648B3
:1033B000564900224FF07E53FFF77AFB4FF47A70A4
:1033C000FFF7E6F80120FFF7F1FA4FF47A70FFF704
:1033D000DFF80A230093082301934C484A4901224D
:1033E0004FF07E53FFF764FB0A23009303230193FE
:1033F0004748444900224FF07E53FFF759FB4FF4F2
:10340000FA70FFF7C5F80A230093022301933F489F
:10341000384901224FF07E53FFF74AFB4FF4FA7010
:10342000FFF7B6F80A23009308230193344837497D
:1034300000224FF07E53FFF73BFB4FF4FA70FFF78B
:10344000A7F80A230093032301933248304901224D
:103450004FF07E53FFF72CFB4FF4FA70FFF798F80C
:103460000220FFF7A3FA4FF47A70FFF791F80020DB
:10347000FFF79CFA0A23009308230193234820496D
:1034800001224FF07E53FFF713FB4FF4FA70FFF762
:103490007FF80A230093032301934FF000001D4996
:1034A00000224FF07E53FFF703FB4FF4FA70FFF753
:1034B0006FF80A230093022301930F481349002257
:1034C0004FF07E53FFF7F4FA4FF4FA70FFF760F80D
:1034D0000A230093042301930948084900224FF06E
:1034E0007E53FFF7E5FA40F6B830FFF751F8BD46D6
:1034F00080BD00BF00005C420000B4420000AA4250
:103500000000A0420000704200008C420000C8424F
:103510000000F0410000204280B582B002AF0A23D3
:103520000093022301936A486A4901224FF07E53B7
:10353000FFF7BEFA4FF4FA70FFF72AF80A23009358
:10354000042301936448654901224FF07E53FFF73D
:10355000AFFA4FF4FA70FFF71BF80A230093032326
:1035600001935F484FF0000101224FF07E53FFF7B7
:103570009FFA4FF4FA70FFF70BF80A230093082321
:1035800001935648524900224FF07E53FFF790FABC
:103590004FF47A70FEF7FCFF0120FFF707FA4FF4B3
:1035A0007A70FEF7F5FF0A23009308230193484839
:1035B0004A4901224FF07E53FFF77AFA4FF4FA702E
:1035C000FEF7E6FF0A23009303230193454844498D
:1035D00000224FF07E53FFF76BFA4FF4FA70FEF7BC
:1035E000D7FF0A230093022301933F483849002262
:1035F0004FF07E53FFF75CFA4FF4FA70FEF7C8FF06
:103600000A230093032301933548364901224FF0E2
:103610007E53FFF74DFA4FF4FA70FEF7B9FF0A2315
:103620000093082301932D48294900224FF07E532F
:10363000FFF73EFA4FF4FA70FEF7AAFF0220FFF7F9
:10364000B5F94FF47A70FEF7A3FF0020FFF7AEF94B
:103650000A230093082301931D48204901224FF0BB
:103660007E53FFF725FA4FF47A70FEF791FF0A2395
:103670000093032301934FF00000194900224FF0FB
:103680007E53FFF715FA4FF4FA70FEF781FF0A2315
:103690000093022301930F48134901224FF07E53F8
:1036A000FFF706FA4FF4FA70FEF772FF0A23009351
:1036B000042301930948084900224FF07E53FFF785
:1036C000F7F940F6B830FEF763FFBD4680BD00BF96
:1036D0000000C8420000B4420000AA420000A0421C
:1036E000000020420000F04100005C4280B582B042
:1036F00002AF0A2300930223019375487449012203
:103700004FF07E53FFF7D4F90A230093032301936C
:1037100070484FF0000101224FF07E53FFF7C8F9C7
:103720004FF47A70FEF734FF0A23009304230193C9
:103730006848694900224FF07E53FFF7B9F94FF40A
:103740007A70FEF725FF0A2300930823019363484C
:10375000634900224FF07E53FFF7AAF94FF47A70C5
:10376000FEF716FF0120FFF721F94FF47A70FEF7FC
:103770000FFF0A230093082301935548574901225C
:103780004FF07E53FFF794F90A230093032301932C
:103790005448504900224FF07E53FFF789F94FF407
:1037A0007A70FEF7F5FE0A230093052301934E4835
:1037B0004B4900224FF07E53FFF77AF94FF4FA702D
:1037C000FEF7E6FE0A230093052301934748464986
:1037D00001224FF07E53FFF76BF94FF4FA70FEF7BA
:1037E000D7FE0A230093052301933F483F49002257
:1037F0004FF07E53FFF75CF94FF4FA70FEF7C8FE06
:103800000A230093052301933548374901224FF0DD
:103810007E53FFF74DF94FF4FA70FEF7B9FE0A2315
:103820000093032301932B482E4901224FF07E532E
:10383000FFF73EF94FF4FA70FEF7AAFE0A23009351
:10384000082301932548224900224FF07E53FFF7B9
:103850002FF94FF4FA70FEF79BFE0220FFF7A6F84F
:103860004FF4FA70FEF794FE0020FFF79FF80A234A
:103870000093082301931A48184901224FF07E5300
:10388000FFF716F94FF47A70FEF782FE0A230093D1
:10389000032301934FF000000E4900224FF07E53A6
:1038A000FFF706F94FF4FA70FEF772FE0A23009351
:1038B000042301930848074901224FF07E53FFF784
:1038C000F7F840F6B830FEF763FEBD4680BD00BF96
:1038D0000000B442000020420000A04200007042FC
:1038E0000000C8420000A041000048420000204300
:1038F00080B582B002AF0A230093022301937E4871
:103900007E4900224FF07E53FFF7D2F84FF4FA7051
:10391000FEF73EFE0A230093042301937848794979
:1039200001224FF07E53FFF7C3F84FF4FA70FEF711
:103930002FFE0A2300930323019373484FF00001E5
:1039400001224FF07E53FFF7B3F84FF4FA70FEF701
:103950001FFE0A230093082301936C486C49002240
:103960004FF07E53FFF7A4F84FF47A70FEF710FE85
:103970000120FFF71BF84FF47A70FEF709FE0A23C7
:103980000093082301936248604901224FF07E535F
:10399000FFF78EF80A230093032301935D485A49E9
:1039A00000224FF07E53FFF783F84FF4FA70FEF7D2
:1039B000EFFD0A2300930523019357485449002241
:1039C0004FF07E53FFF774F84FF4FA70FEF7E0FD06
:1039D0000A2300930523019350484F4901224FF0D9
:1039E0007E53FFF765F84FF4FA70FEF7D1FD0A2316
:1039F0000093052301934848484900224FF07E5325
:103A0000FFF756F84FF4FA70FEF7C2FD0A23009351
:103A1000052301933E48404901224FF07E53FFF7B2
:103A200047F84FF4FA70FEF7B3FD0A23009303231F
:103A300001933548374901224FF07E53FFF738F89C
:103A40004FF4FA70FEF7A4FD0A23009308230193B4
:103A50002E482F4900224FF07E53FFF729F84FF4EC
:103A6000FA70FEF795FD0220FEF7A0FF4FF4FA7002
:103A7000FEF78EFD0020FEF799FF0A23009308232E
:103A800001932348214901224FF07E53FFF710F89C
:103A90004FF47A70FEF77CFD0A2300930323019311
:103AA0004FF00000184900224FF07E53FFF700F856
:103AB0004FF4FA70FEF76CFD0A2300930423019380
:103AC00010480F4900224FF07E53FEF7F1FF4FF4EC
:103AD000FA70FEF75DFD0A23009302230193074865
:103AE000054900224FF07E53FEF7E2FF40F6B83062
:103AF000FEF74EFDBD4680BD00005C420000B442B2
:103B00000000AA420000A0420000704200008C4267
:103B10000000C8420000F04100004842000020437D
:103B200081F0004102E000BF83F0004330B54FEA6E
:103B300041044FEA430594EA050F08BF90EA020FDB
:103B40001FBF54EA000C55EA020C7FEA645C7FEA6E
:103B5000655C00F0E2804FEA5454D4EB5555B8BF91
:103B60006D420CDD2C4480EA020281EA030382EA02
:103B7000000083EA010180EA020281EA0303362D94
:103B800088BF30BD11F0004F4FEA01314FF4801C67
:103B90004CEA113102D0404261EB410113F0004F79
:103BA0004FEA03334CEA133302D0524263EB430330
:103BB00094EA050F00F0A780A4F10104D5F1200ECE
:103BC0000DDB02FA0EFC22FA05F2801841F1000129
:103BD00003FA0EF2801843FA05F359410EE0A5F1FD
:103BE00020050EF1200E012A03FA0EFC28BF4CF02E
:103BF000020C43FA05F3C01851EBE37101F00045E4
:103C000007D54FF0000EDCF1000C7EEB00006EEBF0
:103C10000101B1F5801F1BD3B1F5001F0CD349087A
:103C20005FEA30004FEA3C0C04F101044FEA4452D1
:103C300012F5800F80F09A80BCF1004F08BF5FEA58
:103C4000500C50F1000041EB045141EA050130BD38
:103C50005FEA4C0C404141EB010111F4801FA4F1DB
:103C60000104E9D191F0000F04BF01460020B1FA30
:103C700081F308BF2033A3F10B03B3F120020CDA68
:103C80000C3208DD02F1140CC2F10C0201FA0CF046
:103C900021FA02F10CE002F11402D8BFC2F1200CAB
:103CA00001FA02F120FA0CFCDCBF41EA0C01904061
:103CB000E41AA2BF01EB0451294330BD6FEA0404AA
:103CC0001F3C1CDA0C340EDC04F11404C4F1200295
:103CD00020FA04F001FA02F340EA030021FA04F3A7
:103CE00045EA030130BDC4F10C04C4F1200220FAFE
:103CF00002F001FA04F340EA0300294630BD21FA3C
:103D000004F0294630BD94F0000F83F4801306BF01
:103D100081F480110134013D4EE77FEA645C18BFF5
:103D20007FEA655C29D094EA050F08BF90EA020F8C
:103D300005D054EA000C04BF1946104630BD91EA84
:103D4000030F1EBF0021002030BD5FEA545C05D187
:103D50004000494128BF41F0004130BD14F58004C6
:103D60003CBF01F5801130BD01F0004545F0FE413A
:103D700041F470014FF0000030BD7FEA645C1ABF6F
:103D8000194610467FEA655C1CBF0B46024650EAA6
:103D9000013406BF52EA033591EA030F41F40021D2
:103DA00030BD00BF90F0000F04BF0021704730B558
:103DB0004FF4806404F132044FF000054FF000012D
:103DC00050E700BF90F0000F04BF0021704730B5EE
:103DD0004FF4806404F1320410F0004548BF4042C3
:103DE0004FF000013EE700BF42004FEAE2014FEA18
:103DF00031014FEA02701FBF12F07F4393F07F4FF3
:103E000081F06051704792F0000F14BF93F07F4F24
:103E1000704730B54FF4607401F0004521F0004167
:103E200020E700BF50EA010208BF704730B54FF0ED
:103E300000050AE050EA010208BF704730B511F0F2
:103E4000004502D5404261EB41014FF4806404F12A
:103E500032045FEA915C3FF4DCAE4FF003025FEAAC
:103E6000DC0C18BF03325FEADC0C18BF033202EB34
:103E7000DC02C2F1200300FA03FC20FA02F001FA8E
:103E800003FE40EA0E0021FA02F11444C1E600BF2D
:103E900070B54FF0FF0C4CF4E06C1CEA11541DBFE0
:103EA0001CEA135594EA0C0F95EA0C0F00F0DEF8AB
:103EB0002C4481EA030621EA4C5123EA4C5350EA90
:103EC000013518BF52EA033541F4801143F48013E1
:103ED00038D0A0FB02CE4FF00005E1FB02E506F072
:103EE0000042E0FB03E54FF00006E1FB03569CF0C7
:103EF000000F18BF4EF0010EA4F1FF04B6F5007FCD
:103F000064F5407404D25FEA4E0E6D4146EB06063E
:103F100042EAC62141EA55514FEAC52040EA5E50C7
:103F20004FEACE2EB4F1FD0C88BFBCF5E06F1ED871
:103F3000BEF1004F08BF5FEA500E50F1000041EBA8
:103F4000045170BD06F0004646EA010140EA020055
:103F500081EA0301B4EB5C04C2BFD4EB0C0541EA77
:103F6000045170BD41F480114FF0000E013C00F38C
:103F7000AB8014F1360FDEBF002001F0004170BDB0
:103F8000C4F10004203C35DA0C341BDC04F11404C9
:103F9000C4F1200500FA05F320FA04F001FA05F255
:103FA00040EA020001F0004221F0004110EBD37022
:103FB00021FA04F642EB06015EEA430E08BF20EA4E
:103FC000D37070BDC4F10C04C4F1200500FA04F3F1
:103FD00020FA05F001FA04F240EA020001F0004183
:103FE00010EBD37041F100015EEA430E08BF20EAF6
:103FF000D37070BDC4F1200500FA05F24EEA020E3E
:1040000020FA04F301FA05F243EA020321FA04F06C
:1040100001F0004121FA04F220EA020000EBD37023
:104020005EEA430E08BF20EAD37070BD94F0000F23
:104030000FD101F00046400041EB010111F4801F57
:1040400008BF013CF7D041EA060195F0000F18BF08
:10405000704703F00046520043EB030313F4801F44
:1040600008BF013DF7D043EA0603704794EA0C0FFE
:104070000CEA135518BF95EA0C0F0CD050EA410614
:1040800018BF52EA4306D1D181EA030101F0004191
:104090004FF0000070BD50EA410606BF10461946B9
:1040A00052EA430619D094EA0C0F02D150EA0136C5
:1040B00013D195EA0C0F05D152EA03361CBF104606
:1040C00019460AD181EA030101F0004141F0FE41A5
:1040D00041F470014FF0000070BD41F0FE4141F429
:1040E000780170BD70B54FF0FF0C4CF4E06C1CEA29
:1040F00011541DBF1CEA135594EA0C0F95EA0C0FDE
:1041000000F0A7F8A4EB050481EA030E52EA033598
:104110004FEA013100F088804FEA03334FF08055B9
:1041200045EA131343EA12634FEA022245EA1115E6
:1041300045EA10654FEA00260EF000419D4208BF97
:10414000964244F1FD0404F5407402D25B084FEA44
:104150003202B61A65EB03055B084FEA32024FF4F0
:1041600080104FF4002CB6EB020E75EB030E22BF4D
:10417000B61A754640EA0C005B084FEA3202B6EB0D
:10418000020E75EB030E22BFB61A754640EA5C00BC
:104190005B084FEA3202B6EB020E75EB030E22BF4C
:1041A000B61A754640EA9C005B084FEA3202B6EB4D
:1041B000020E75EB030E22BFB61A754640EADC000C
:1041C00055EA060E18D04FEA051545EA16754FEA6E
:1041D00006164FEAC30343EA52734FEAC2025FEA8C
:1041E0001C1CC0D111F4801F0BD141EA00014FF01B
:1041F00000004FF0004CB6E711F4801F04BF0143EC
:104200000020B4F1FD0C88BFBCF5E06F3FF6AFAE07
:10421000B5EB030C04BFB6EB020C5FEA500C50F197
:10422000000041EB045170BD0EF0004E4EEA11311A
:1042300014EB5C04C2BFD4EB0C0541EA045170BD21
:1042400041F480114FF0000E013C90E645EA060E65
:104250008DE60CEA135594EA0C0F08BF95EA0C0F93
:104260003FF43BAF94EA0C0F0AD150EA01347FF4DB
:1042700034AF95EA0C0F7FF425AF104619462CE7B2
:1042800095EA0C0F06D152EA03353FF4FDAE104615
:10429000194622E750EA410618BF52EA43067FF466
:1042A000C5AE50EA41047FF40DAF52EA43057FF4F6
:1042B000EBAE12E74FEA4102B2F1E04324BFB3F59F
:1042C000001CDCF1FE5C0DD901F0004C4FEAC0028D
:1042D0004CEA5070B2F1004F40EB830008BF20F071
:1042E0000100704711F0804F21D113F13872BCBF2B
:1042F00001F00040704741F480114FEA5252C2F180
:104300001802C2F1200C10FA0CF320FA02F018BFC8
:1043100040F001004FEAC1234FEAD32303FA0CFC1B
:1043200040EA0C0023FA02F34FEA4303CCE77FEAAA
:10433000625307D150EA01331EBF4FF0FE4040F4F4
:104340004000704701F0004040F0FE4040F40000A3
:10435000704700BF80F0004002E000BF81F00041E4
:1043600042001FBF5FEA410392EA030F7FEA226C1B
:104370007FEA236C6AD04FEA1262D2EB1363C1BFAB
:10438000D218414048404140B8BF5B42192B88BF1A
:10439000704710F0004F40F4000020F07F4018BF3D
:1043A000404211F0004F41F4000121F07F4118BF5D
:1043B000494292EA030F3FD0A2F1010241FA03FC05
:1043C00010EB0C00C3F1200301FA03F100F00043ED
:1043D00002D5494260EB4000B0F5000F13D3B0F1B5
:1043E000807F06D340084FEA310102F10102FE2A24
:1043F00051D2B1F1004F40EBC25008BF20F0010094
:1044000040EA03007047490040EB000010F4000F41
:10441000A2F10102EDD1B0FA80FCACF1080CB2EBD4
:104420000C0200FA0CF0AABF00EBC2505242184333
:10443000BCBFD0401843704792F0000F81F40001D8
:1044400006BF80F400000132013BB5E74FEA4103AB
:104450007FEA226C18BF7FEA236C21D092EA030F17
:1044600004D092F0000F08BF0846704790EA010F91
:104470001CBF0020704712F07F4F04D1400028BFBE
:1044800040F00040704712F100723CBF00F50000A0
:10449000704700F0004343F0FE4040F400007047D6
:1044A0007FEA226216BF08467FEA23630146420282
:1044B00006BF5FEA412390EA010F40F48000704795
:1044C0004FF0000304E000BF10F0004348BF40423B
:1044D0005FEA000C08BF704743F0964301464FF077
:1044E00000001CE050EA010208BF70474FF00003D3
:1044F0000AE000BF50EA010208BF704711F0004314
:1045000002D5404261EB41015FEA010C02BF8446E3
:104510000146002043F0B64308BFA3F18053A3F542
:104520000003BCFA8CF2083AA3EBC25310DB01FA89
:1045300002FC634400FA02FCC2F12002BCF1004F0D
:1045400020FA02F243EB020008BF20F0010070479E
:1045500002F1200201FA02FCC2F1200250EA4C00F2
:1045600021FA02F243EB020008BF20EADC70704738
:104570004FF0FF3C06E000BF4FF0010C02E000BF2F
:104580004FF0010C4DF804CD4FEA40024FEA4103D1
:104590007FEA226C18BF7FEA236C11D001B052EA87
:1045A000530C18BF90EA010F58BFB2EB030088BF4D
:1045B000C81738BF6FEAE17018BF40F001007047BC
:1045C0007FEA226C02D15FEA402C05D17FEA236C9E
:1045D000E4D15FEA412CE1D05DF8040B704700BFE5
:1045E000844608466146FFE70FB5FFF7C9FF00287C
:1045F00048BF10F1000F0FBD4DF808EDFFF7F4FFB5
:104600000CBF012000205DF808FB00BF4DF808ED4D
:10461000FFF7EAFF34BF012000205DF808FB00BF70
:104620004DF808EDFFF7E0FF94BF012000205DF892
:1046300008FB00BF4DF808EDFFF7D2FF94BF012043
:1046400000205DF808FB00BF4DF808EDFFF7C8FF3C
:1046500034BF012000205DF808FB00BF4FEA400294
:10466000B2F1FE4F0FD34FF09E03B3EB12620DD9A0
:104670004FEA002343F0004310F0004F23FA02F00A
:1046800018BF404270474FF00000704712F1610FB1
:1046900001D1420205D110F0004008BF6FF0004088
:1046A00070474FF00000704770B50F4E0F4D761BEE
:1046B000B61018BF002405D0013455F8043B9847C4
:1046C000A642F9D10A4E0B4D00F0E4F8761BB61065
:1046D00018BF002406D0013455F8043B9847A64281
:1046E000F9D170BD70BD00BFAC480020AC480020BF
:1046F000B4480020AC480020024B13B1024800F03F
:1047000005B870470000000019470020014600204E
:104710000246034600F016B838B5084B084DED1AAE
:10472000AC1018BFED1805D0013C55F8043D984772
:10473000002CF9D1BDE8384000F0B2B8B4480020F0
:10474000B84800202DE9F047254C064625688846E4
:10475000D5F8484192469946C4B360681F2817DCD3
:10476000411C76B104EB8003C3F888A0D4F88851CB
:10477000012282401543022EC4F88851C3F80891E3
:104780001ED0831C6160002044F82380BDE8F087C0
:10479000144B03B34FF4C870AFF300800446D0B19C
:1047A000D5F84831002784E888003846C5F84841E4
:1047B0000121C4F88871C4F88C71002EE1D0D1E7D2
:1047C000D4F88C311A43C4F88C21DAE705F5A674C5
:1047D000C5F84841C1E74FF0FF30BDE8F08700BFA2
:1047E0009048002000000000000102040810204052
:1047F000800102040810204080000000000000003A
:104800001000000018000000200000002800000038
:1048100030000000380000004000000048000000A8
:104820005000000058000000600000006800000018
:104830007000000078000000800000008800000088
:1048400000000000140000001C0000002400000014
:104850002C000000340000003C0000004400000078
:104860004C000000540000005C00000064000000E8
:104870006C000000740000007C0000008400000058
:104880008C0000000001000102020303430000004D
:10489000E8480020F8B500BFF8BC08BC9E46704749
:1048A000F8B500BFF8BC08BC9E467047F94600202A
:1048B000E5040020C104002000000000000000000A
:1048C00000000000003B5808003B5808003B580817
:1048D000C00E1602801D2C04003B5808003B5808EF
:1048E0004B0000000200000000000000D44B00203C
:1048F0003C4C0020A44C0020000000000000000000
:1049000000000000000000000000000000000000A7
:104910000000000000000000000000008C480020A3
:104920000000000000000000000000000000000087
:104930000000000000000000000000000000000077
:104940000000000000000000000000000000000067
:104950000000000000000000000000000000000057
:104960000000000000000000000000000000000047
:104970000000000000000000000000000000000037
:104980000000000000000000000000000000000027
:1049900001000000000000000E33CDAB34126DE6C4
:1049A000ECDE05000B00000000000000000000002D
:1049B00000000000000000000000000000000000F7
:1049C00000000000000000000000000000000000E7
:1049D00000000000000000000000000000000000D7
:1049E00000000000000000000000000000000000C7
:040000052000019145
:00000001FF
